:020000040800F2
:1000000070B000204D020008713400080D2B00086C
:100010006D3400083D080008954C00080000000001
:10002000000000000000000000000000713F000818
:100030009D0E000800000000A1340008D946000809
:1000400067020008670200086702000867020008EC
:1000500067020008670200086702000867020008DC
:1000600067020008670200086702000867020008CC
:10007000210C000867020008310C00086702000824
:1000800067020008670200086702000867020008AC
:1000900009090008670200086702000867020008F3
:1000A000670200086702000867020008670200088C
:1000B000670200086702000867020008670200087C
:1000C000670200086702000867020008670200086C
:1000D00067020008A54B000867020008E94B00080A
:1000E000670200086702000867020008670200084C
:1000F000670200086702000867020008670200083C
:10010000670200086702000867020008670200082B
:100110006702000867020008C1470008670200087C
:100120006702000867020008410C00086702000827
:1001300067020008670200086702000867020008FB
:100140007D090008670200086702000867020008CE
:1001500067020008670200086702000867020008DB
:1001600067020008670200086702000867020008CB
:10017000670200086702000867020008000000002C
:1001800067020008670200086702000867020008AB
:10019000670200086702000867020008670200089B
:1001A00000000000000000006702000800F002F8F4
:1001B00000F03CF80AA090E8000C82448344AAF1C5
:1001C0000107DA4501D100F031F8AFF2090EBAE8C3
:1001D0000F0013F0010F18BFFB1A43F0010318477B
:1001E000389C0000589C0000103A24BF78C878C1A1
:1001F000FAD8520724BF30C830C144BF04680C602D
:10020000704700000023002400250026103A28BF74
:1002100078C1FBD8520728BF30C148BF0B60704778
:100220001FB508F071FE1FBD10B510BD00F0F8F944
:100230001146FFF7F5FF04F04DFF00F016FA03B486
:10024000FFF7F2FF03BC00F07BFA0000094880478B
:1002500009480047FEE7FEE7FEE7FEE7FEE7FEE7A8
:10026000FEE7FEE7FEE7FEE704480549054A064BC0
:1002700070470000AD470008AD0100087070002015
:1002800070B0002070900020709000209FED1A1A2E
:10029000F5EE000A40EE010ABDEEE00AF5EEC00AF6
:1002A00010EE100AF1EE10FA38BF401E00EE100AF0
:1002B0001349F7EE001AB8EEC00A30EEC00ADFEDBF
:1002C0000F0A20EE200AFCEEC00A10EE900AC0F3DE
:1002D000080000EE900A01EB8000F8EE600A90ED55
:1002E000011A70EE600A90ED000A71EEE01A21EE3C
:1002F000800A00EE810A704783F9223E0000004424
:1003000048920008B5EEC00AF1EE10FA07D2DFED10
:100310001E0AB4EEE00AF1EE10FAA8BF7047DFED56
:100320001B0AB5EEC00A60EE200ABDEEE01A11EE1F
:10033000100AF1EE10FA38BF401E00EE100A1549FF
:10034000F7EE001AB8EEC00A30EEC00ADFED100A70
:1003500060EE200ABCEEE00A10EE100AC0F30800BE
:1003600000EE100A01EB8000B8EE400A90ED011A91
:1003700070EEC00A90ED000A71EEE01A21EE800ADC
:1003800000EE810A70470000CD024CB483F9223E92
:10039000000000444892000853EA020C00F0698013
:1003A0002DE9F04B4FF00006002B1FBFB3FA83F589
:1003B00003FA05F424FA05F65E4012BF1643B2FABA
:1003C00082F502FA05F4C5F120051EBF22FA05FCEC
:1003D00044EA0C04203556EA044C4FEA144418BF92
:1003E000641C4FF000084FF00009904271EB030CC1
:1003F00039D3002919BFB1FA81F701FA07F6B0FA2B
:1004000080F700FA07F6C7F120071EBF20FA07FCA5
:1004100046EA0C062037B6FBF4FCA7EB0507103FB5
:1004200007F01F0BCBF120062CFA06F60CFA0BFB9B
:1004300044BFB3460026202FA4BF5E464FF0000BFA
:100440005BEA060C08BF4FF0010B19EB0B0948EBF8
:100450000608ABFB027C06FB02CC0BFB03CCC01BEB
:1004600071EB0C01C1E70B46024641464846BDE828
:10047000F08B13B5084318BF4FF0FF300146AFF3C0
:100480000080BDE81C407047032A40F2308010F025
:10049000030C00F0158011F8013BBCF1020F62441F
:1004A00098BF11F801CB00F8013B38BF11F8013BB0
:1004B000A2F1040298BF00F801CB38BF00F8013B5D
:1004C00011F0030300F05A80083AC0F0088051F898
:1004D000043B083A51F804CBA0E80810F5E7121DD8
:1004E0005CBF51F8043B40F8043BAFF30080D207F7
:1004F00024BF11F8013B11F801CB48BF11F8012BC3
:1005000024BF00F8013B00F801CB48BF00F8012BE5
:1005100070474FF0000200B51346944696462039C6
:1005200022BFA0E80C50A0E80C50B1F12001BFF4AC
:10053000F7AF090728BFA0E80C5048BF0CC05DF812
:1005400004EB890028BF40F8042B08BF704748BF60
:1005500020F8022B11F0804F18BF00F8012B7047D4
:1005600070477047704710B500F03AF8006810BD4A
:1005700010B5044600F034F8046010BD10B5203A00
:10058000C0F00B80B1E81850A0E81850B1E818503E
:10059000A0E81850203ABFF4F5AF5FEA027C24BF10
:1005A000B1E81850A0E8185044BF18C918C0BDE8F9
:1005B00010405FEA827C24BF51F8043B40F8043BC2
:1005C00008BF7047D20728BF31F8023B48BF11F877
:1005D000012B28BF20F8023B48BF00F8012B7047D1
:1005E00000487047880000201FB584B000200A9C96
:1005F00006AB04AA02A90094AFF3008018B1DDE9AC
:10060000020108B010BD0348204000F037F8002078
:100610000146F6E70000207C004870478800002073
:100620007546FFF7F9FFAE4605006946534620F0D0
:100630000700854618B020B5FFF716FEBDE820403C
:100640004FF000064FF000074FF000084FF0000B8E
:10065000AC46ACE8C009ACE8C009ACE8C009ACE8FD
:10066000C00921F007018D46704710B50446AFF36D
:1006700000802046BDE81040FFF7E1BD10B500F056
:1006800009F8BDE81040AFF30080002801D000F069
:1006900057B8704710B5022803D0410103D50DA10A
:1006A00012E0002010BD010101D50FA10CE0C10036
:1006B00001D511A108E0810001D512A104E040009C
:1006C00001D513A100E0002115A000F03FF80120A2
:1006D00010BD0000496E76616C6964204F706572D0
:1006E0006174696F6E000000446976696465204238
:1006F00079205A65726F00004F766572666C6F776D
:1007000000000000556E646572666C6F7700000033
:10071000496E657861637420526573756C7400006E
:100720005349474650453A2041726974686D657473
:10073000696320657863657074696F6E3A200000A4
:1007400001491820ABBEFEE72600020070B5054641
:100750000C460A2000E06D1C00F011F835B1287835
:100760000028F8D102E0641C00F009F814B12078E8
:100770000028F8D1BDE870400A20AFF3008008B52A
:1007800069468DF800000320ABBE08BD704700002D
:1007900040F23C04C2F2000405F048FD04F024FCE1
:1007A00004F068FC02F0B4F904F0CEFC00F07CF92F
:1007B00004F0BCFC206A804705F05CFD002005F0D9
:1007C00057FEE9E710B540F2EC04C2F200042078CD
:1007D0000130C1B26329207024D840F27C70C2F28B
:1007E000000090ED000A9FED111AB4EE410AF1EEFF
:1007F00010FA08DD9FED101A30EE010A80ED000AB4
:10080000FFF7E0FF0EE09FED0A1AB4EE410AF1EEA9
:1008100010FA07DA9FED071A30EE010A80ED000AA0
:10082000FFF7D0FF20780138207010BD000034435E
:10083000000034C30000B4430000B4C3FEE700006E
:100840008EB040F2F00BC2F2000B0DF1140840F232
:10085000252940F2013A0DE006AF8ECFDDE90A65A9
:10086000DDE90C4CCDE90076CDE90254CDF810C09D
:1008700002F048FEDBF8000041464FF0FF3206F080
:10088000C7F80598B0F5407F14DCB0F5017F2BD098
:100890004845EFD106AFCECFDDE90B54DDF834C0CB
:1008A000CDE90067CDE90254CDF810C000F02EFA72
:1008B000E0E700BF5045CFD0B0F5C06FDAD140F2CD
:1008C0003C01C2F2000106AED1F82CC04ECEDDE9EB
:1008D0000A54DDE90C7ECDE9006502940397CDF85A
:1008E00010E0E047C6E700BF06AF8ECFDDE90A653E
:1008F000DDE90C4CCDE90076CDE90254CDF810C00D
:1009000002F024FBB6E7000080B540F2FC70C2F2B2
:10091000000000F091FC80BD8EB040F2F808C2F2F9
:1009200000080DF1140909E006AFEECFDDE90C4C2B
:100930008DE8E000CDE9034C02F0CCFAD8F80000D5
:1009400049464FF0FF3206F063F80598A0F2012106
:100950000329E9D9A0F205210329EFD806AF8ECFEC
:10096000DDE90A65DDE90C4CCDE90076CDE90254FC
:10097000CDF810C002F008FBE0E7000080B540F6BB
:100980002400C2F2000000F057FC80BD10B58AB010
:10099000002040F2FC74CDE905000121CDE9000002
:1009A000CDE9020004900E20C2F20004CDE9071147
:1009B00009906946204600F03FFB204600F0A0FE6B
:1009C0002046022100F0D2FA0AB010BD10B58AB05C
:1009D0000E2040F62404059000200121C2F20004FC
:1009E0000690CDE90000CDE902000490CDE90711A1
:1009F0006946204600F020FB204600F081FE20469C
:100A0000022100F0B3FA0AB010BD000082B006F077
:100A100089F901AC019000BF00F042F820460221A4
:100A200005F0D2FCF8E7000080B586B00091002107
:100A3000CDE90211082104916946012300F0AAFAC8
:100A400006B080BD002808BF704780B541F2A41CE5
:100A50000A28C2F2000C0BD2ACF1010201230921D9
:100A600002F8013F013903F10103F9D100210CE043
:100A7000ACF1010E0123092103F164020EF8012FEC
:100A8000013903F10103F7D101218CF8090000F5C8
:100A900080708CF80A10ACF80B00BDE880407047FD
:100AA00080B500F087F980BD40F26C5044F21F5CC5
:100AB00048F6310241F62F5345F69301C2F2000089
:100AC000C4F2333CC4F2EA22C4F2EE23C4F2ED21B4
:100AD000C0F8B4C042674363C0F8F41040F29060BD
:100AE000C2F20000C0F838C0C2610360416541F243
:100AF000BB10C2F2000001210170704740F2C24CED
:100B00006FF01300C2F2000C002200BF0CEB0003D8
:100B1000998C1430002918BF01213C2883F8261035
:100B20009A84F3D17047000040F26C5C6FF03F0094
:100B3000C2F2000C002200BF0CEB0003B3F86A10F5
:100B40004030002918BF0121C02883F86C10A3F899
:100B50006A20F1D17047000040F2F020C2F200009C
:100B6000018DB1FA81F1490980F82A10002101852F
:100B70007047000040F21250C2F20000018A0029C2
:100B800018BF0121817400210182704740F270601A
:100B9000C2F20000002181810121817370470000B1
:100BA00040F23C00C2F20000018AB1FA81F1490929
:100BB0008174002101827047401A41F6FF71B0F53F
:100BC000805FC4BF401A704710F5805FB8BF08440B
:100BD0007047000082B006F0A5F840F2F02540F220
:100BE0000406C2F20005C2F2000601AC019000BF8B
:100BF000FFF7B2FF95F82A000138B0FA80F04009FB
:100C0000F077FFF7CDFFFFF7C1FFFFF78DFFFFF78D
:100C100075FFFFF7AFFF2046C82105F0D5FBE7E7DA
:100C200080B540F6AC00C2F2000000F0F7FD80BDD8
:100C300080B540F60C10C2F2000000F0EFFD80BD60
:100C400080B540F64C00C2F2000000F0E7FD80BD28
:100C5000D0F800C06FF00F024AF6AB2352FA8CF2C4
:100C6000CAF6AA230146A2FB0330000905A31B5CB8
:100C700040F2FF302CEA00005F2A88BF0430C1E94F
:100C80001603704700061016000610168269816A66
:100C9000B2F5005F06D06AB9022912D0012914D03A
:100CA000D1B90EE0032917D8DFE801F0020B020FDB
:100CB0000120704703293CBF012070471CBF002062
:100CC0007047C06AC0F300607047C06AA0F1C0708E
:100CD000B0FA80F0400970470020704780B5D0F826
:100CE00000C0D0F808E0DCF80000BEF1400F20F4AE
:100CF0008020CCF800000846CCF8043004BF104631
:100D00000A46CCF80800CCF80C2080BD2DE9F04351
:100D100081B0DDE90B2140F2B02602F47F40C2F33E
:100D2000074502F00F03C2F303172844150D0A0903
:100D3000C1F307249FED1D0ADFED1D0AC1F307492A
:100D40004FEA1168C2F2000662F3030561F30B2457
:100D50001021C6E90037C6E90205346105F0EAF959
:100D600086ED070ABBEE0E0AF3EE0E0A28460C21AA
:100D700005F0E0F986ED090ABAEE040AF2EE040A7B
:100D800020460C2105F0D6F986ED0A0A00EE109AED
:100D900001EE108AB8EE400AB8EE411A86ED0E0A4E
:100DA00086ED0F1A01B0BDE8F08300BFC3F548C05F
:100DB000C3F5484070B586B00020CDE90200082098
:100DC000049040F27510009040F2C240C2F2000060
:100DD00090F8262090F83A3002F00102817C52010E
:100DE00090F84E0063F3041242EAC11100F00100D2
:100DF000C9B241EA801040F26C51C2F2000191F890
:100E00006C3091F8AC4091F82C2003F0010391F87C
:100E1000EC1040EA430004F00103184402F0010220
:100E200040F2507540EAC20001F0010140F20404B2
:100E3000C2F2000540EA8100C2F2000494F82010DA
:100E400028706068697008F00DF9D5F80220E9880B
:100E500022F07F42060A42EA00600909C5F8020052
:100E6000E06861F31F16EE8008F0FCF806F00F0151
:100E700041EA0010E880D5E9001040F22032C2F2C9
:100E80000002C2E9001040F2FC70C2F200006946A4
:100E9000002300F07FF806B070BD0000704700002E
:100EA000EFF3108072B600BFFEE7000080B598B186
:100EB00081B149F6164C0138C0F6000C10F801EF6C
:100EC000D3B283EA0E033CF8133092B2013983EABD
:100ED0001222F3D190B280BD4FF6FF7290B280BD66
:100EE00040F23230C2F200000188B1F5E17F39D919
:100EF00040F21250C2F20000B0F90C1041F6651237
:100F000040F2303C9142C2F2000C0FDB40F22E3234
:100F1000C2F200021388013399B2B1F5FA7F13804F
:100F200004D901218CF80010002111809CF80010D8
:100F3000002902BF40F2DC510181704740F22C329F
:100F4000C2F20002118801318BB211804FF62421C8
:100F5000B3F5967F018198BF704700208CF80000A0
:100F600010807047013101807047000090F8202008
:100F7000013A012A04D8006800F11402002004E0BC
:100F800000F1240201204FF48021136819431160FD
:100F90007047000010B590F820E0D0F800C0AEF126
:100FA000010EBEF1010FDCF808E00DD81EF0E05F85
:100FB00010D0CEF3016EBEF1030F11D100F1240168
:100FC00001204FF4000233E000F1240101204FF42E
:100FD00080222DE000F1240101204FF4001227E0CF
:100FE000012000FA0EF01860886818B14B6840EADA
:100FF000C30001E008684005D1E9033403430CEB6A
:101000000E10C0F88031C0F88441097D012905D156
:1010100000F5C2710B6843F480730B605168C0F82F
:101020008C11126800F5C071C0F8882100200122DF
:101030000B681A430A6010BDB0B590F82020013A41
:10104000012A2FD846F20060C4F20000026842F084
:1010500001020260026822F47C520260D1F814E0BE
:10106000CC694A6A0368012C43EA022202600EF04E
:101070001F024FF0010303FA02F2C3696FEA020C88
:1010800023EA0203C36113D02CBBC36803EA0C0339
:10109000C360CB688C8844EA034300EBCE0423642E
:1010A0000B4611E0416A41F4802141620120B0BD4C
:1010B000C3681343C3600B688C8844EA034300EBA6
:1010C000CE04236401F10C038C681B8843EA0443BB
:1010D00000EBCE04636443688D6943EA0204D1F8EF
:1010E00010E0096A002D08BF03EA0C04446043695C
:1010F000BEF1000F43EA020408BF03EA0C04012911
:10110000446102D1C1691143C161016821F001014B
:1011100001600020B0BD00007047000010B590F8DD
:101120002040013C012C0CD8D0F800C079B1DCF88B
:101130001040A4070FD100F1240101204FF4001248
:1011400070E000F1240101204FF480226AE0DCF815
:101150000C40A4076AD0046804EB011CDCF8B04121
:101160000CF5D87E14F004049460DCF8B04119BF8B
:10117000E4085460640D1460DEF80040002904F0B7
:101180000204D460DCF8B44104F00F041461DCF80C
:10119000B441C4F307249461DCF8B4414FEA144429
:1011A0005461DCF8B8211A70026802EB0112D2F81F
:1011B000B8214FEA12225A70026802EB0112D2F8EB
:1011C000B8214FEA12429A70026802EB0112D2F87B
:1011D000B8214FEA1262DA70026802EB0112D2F80B
:1011E000BC211A71026802EB0112D2F8BC214FEA4D
:1011F00012225A71026802EB0112D2F8BC214FEAA6
:1012000012429A71026802EB0112D2F8BC214FEA35
:101210001262DA71006814BF00F1100100F10C01D4
:10122000002020220B681A430A6010BD00F124013F
:1012300001204FF40012F5E72DE9F04F81B004468C
:1012400000684669D0F804908768D0F80CB0D0F8F0
:1012500010A0D0F81880F10703D1002530071CD466
:1012600023E0F90710D00121BA07816009D478077B
:1012700000F1AA80380700F1B080204600F06EFA35
:1012800002E0204600F06CFA0025F80500F18480A9
:10129000F80300F1AA80300707D51BF0100004D036
:1012A000206845F400751021C160700708D51BF057
:1012B000080005D020680821C160204600F0E4F94C
:1012C000B00706D52068C068800702D0204600F02D
:1012D000DDF9700607D51AF0100004D0206845F437
:1012E000806510210161B00608D51AF0080005D00C
:1012F000206808210161204600F0FCF9F00606D5BF
:1013000020680069800702D0204600F0F5F9B0039C
:1013100008D519F0100005D0206810214160204642
:1013200000F0ECF9F00308D519F0080005D02068AA
:1013300008214160204600F01DFA300440F18F8002
:101340005FEA497040F1888006F4807008EA102056
:1013500028435FEA8871014648BF41F00201B205A7
:1013600058BF01465FEA48700D4648BF45F0040586
:10137000700558BF0D4630056ED518F070006BD063
:1013800010380009052862D8DFE800F003535659E9
:101390005C5F45F008055AE020684FF48071BA059B
:1013A00081600AD4780512D4380519D4204600F09B
:1013B000D9F9F8037FF56FAF17E0204600F0D4F9B4
:1013C000F8037FF568AF10E04FF400655DE705F5C1
:1013D0000055F8037FF55FAF07E04FF4805554E701
:1013E00005F58045F8037FF556AF20684FF480314E
:1013F000BA0381600AD478030FD4380313D420468B
:1014000000F0B4F930073FF548AF4EE7204600F052
:10141000AFF930073FF541AF47E705F50045300725
:101420003FF53BAF41E705F5803530073FF535AF78
:101430003BE745F010050AE045F0200507E045F0E0
:10144000400504E045F0800501E045F48075206822
:10145000816921F0700181612068042141602DB112
:10146000606A284360622046FFF756FE01B0BDE87F
:10147000F08F0000B0B5C8B1044690F8200010B954
:10148000204600F071F82068016841F00101016018
:1014900000F0E2FB054600BF20684168C90707D19C
:1014A00000F0DAFB401B0B28F6D312E00120B0BDA0
:1014B000016821F00201016000F0CEFB054600BF8B
:1014C0002068416889070DD500F0C6FB401B0B283A
:1014D000F6D3606A052140F400306062012084F890
:1014E0002010B0BD217E0268012922F0800208BFD1
:1014F00080320260617E0268012922F0400208BF4A
:1015000040320260A17E0268012922F0200208BF59
:1015100020320260E17E0268012922F0100218BF29
:1015200010320260217F0268012922F0080208BF00
:1015300008320260617F0268012922F0040208BFBC
:1015400004320260D4E901C2D4E9033561691A4367
:101550002A431143ACF101021143C1610020012172
:10156000606284F82010B0BD10B586B0006846F601
:101570000002C4F2000200219042CDE90411CDE93D
:101580000211019134D046F20041C4F200018842B8
:1015900078D140F23831C2F200010A6843F64000C7
:1015A000C4F20200531C0B6052B900210091016883
:1015B00041F000710160016801F000710091009933
:1015C0000021009150F8101C142441F0080140F84B
:1015D000101C50F8100C00F0080000900098032038
:1015E000019040F20040C4F2020000F5006036E0D5
:1015F00043F64000C4F202000091016841F08061AE
:101600000160016801F080610091009940F2383179
:10161000C2F200010A68531C0B6052B9002100910C
:10162000016841F000710160016801F000710091F2
:1016300000990021009150F8101C402441F0020153
:1016400040F8101C50F8100C00F0020000900098B8
:101650004FF44050019040F20040C4F202000221D9
:10166000029100210391032104910921059101A90F
:1016700000F024FA20460521002200F09DFB2046C0
:1016800000F096FB06B010BD7047000010B5016871
:1016900046F60002C4F20002914215D046F2004222
:1016A000C4F20002914218BF10BD40F20414C2F20D
:1016B000000404F11C0300212246FFF72FFD40F235
:1016C000F000C2F200000DE040F22814C2F2000463
:1016D00004F11C0300212246FFF720FD40F2F80030
:1016E000C2F20000006821460022002305F028F91C
:1016F00010BD0000704700007047000070470000F8
:10170000B0B5044690F8200001281DD1022084F8CD
:1017100020002068016821F00101016000F09CFABE
:10172000054600BF20684068C00713D000F094FA57
:10173000401B0B28F6D3606A40F40030606205203D
:1017400084F820000120B0BD606A40F4002060628F
:101750000120B0BD00206062B0BD000070470000F5
:10176000704700007047000070470000704700009D
:10177000704700007047000070B5866D044600F0A9
:101780006BFA94F83510022925D105462068216CA2
:10179000026822F016020260426922F08002426171
:1017A00009B9A16C19B1016821F008010160016853
:1017B00021F00101016000BF20680068C0070ED061
:1017C00000F04AFA401B0628F6D32020606503206B
:1017D00084F835000CE080206065012008E0E06DB1
:1017E0003F2101FA00F0B060012084F835000020AC
:1017F000002184F8341070BD90F83510022909D109
:10180000052180F835100068016821F001010160B0
:10181000002070478021416501207047F0B581B0FC
:1018200004460020009040F27800C2F200000268F6
:10183000D4E9166048F2B51337680821C1F64E3373
:1018400081403942A2FB03250CD0226813685B0754
:1018500008D5136823F004031360B160616D41F093
:101860000101616501218140394208D02268526935
:10187000120604D5B160616D41F002016165042179
:101880008140394208D022681268920704D5B160BD
:10189000616D41F00401616510218140394215D02C
:1018A00020680268120711D5B1600268016852030E
:1018B00006D4C90506D4016821F00801016001E0E1
:1018C000080342D4216C09B120468847E16D2020ED
:1018D00000FA01F23A4244D020680368DB0640D5A2
:1018E000B26094F835300268052B1ED122F0160242
:1018F0000260426922F080024261226C0AB9A26C45
:101900001AB1026822F0080202603F208840B060ED
:10191000012084F83500216D0020002984F834006E
:1019200040D02046884701B0F0BD0168520310D472
:10193000C90512D4016821F010010160012084F86A
:101940003500002084F8340007E0A16C0029BBD1E9
:10195000BCE7080301D4616C00E0E16B09B12046EB
:101960008847606DF0B1606DC00717D0052084F81E
:1019700035002068A90A026822F00102026000BF57
:10198000009A01328A42009202D80268D207F7D147
:10199000012084F83500002084F83400E16C09B19E
:1019A0002046884701B0F0BD2DE9F041044600F023
:1019B00053F9C4B10546022084F83500002021689F
:1019C00084F83400086820F0010008602668306858
:1019D000C0070BD000F040F9401B0528F6D90321C1
:1019E0002022032042E00120BDE8F081306848F267
:1019F0003F01CFF21001251D00EA010C2ECDD4E9E4
:101A0000050E41EA0C01114319432943D4E9077833
:101A1000084340EA0E01606A3943042841EA08019C
:101A200003D1D4E90B2311431943316071690428B0
:101A300021F0070141EA00050CD1D4E90A1045EA7A
:101A4000010538B12046FFF721F918B101214022E4
:101A500001200BE020467561FFF7FAF8E16D3F22A7
:101A600002FA01F18160002201210020626584F800
:101A70003510BDE8F0810000B0B5044690F83400A0
:101A8000012818D0012084F8340094F8350001288A
:101A90000ED1022084F83500002520466565FFF749
:101AA0001DF92068016841F0010101602846B0BDC0
:101AB000002084F834000220B0BD00002DE9F04F72
:101AC00083B000F13E4202F1FF724FEAB22242F2CD
:101AD00000470192C4F202070A224FF0010E0025CE
:101AE0004FF0000A4FF00008B84208BF09220092E8
:101AF0000AE000BF08F101080AF1040AB8F1100F6A
:101B000005F1020500F0A4800C680EFA08FB14EA47
:101B10000B09EFD04C6804F0030CACF1010EBEF1E0
:101B2000010F11D80322876802FA05F6CA68B74385
:101B3000AA403A4382604268C4F3001722EA0B02CB
:101B400007FA08F73A434260BCF1030F1CD0C268A1
:101B500003238E6803FA05F7BA4306FA05F73A43FA
:101B6000BCF1020FC2600FD16FF0030202EA58020B
:101B700002440AF01C060F23176A03FA06F40B69E5
:101B8000A743B3403B431362026803234F68AB4053
:101B90009A4307F00303AB401A4317F4403F4FF05A
:101BA000010E0260A6D0002243F644030292C4F262
:101BB00002031A6843F6004442F480421A601A682D
:101BC000C4F2010402F480420292029A28F0030255
:101BD0004FF6084B2244CFF6FF7B52F80B300AF049
:101BE0000C070F26BE4023EA060C019B009E092B22
:101BF00038BF1E4606FA07F747EA0C0342F80B30D7
:101C0000A2684B6842EA090743F60C4CDE0258BF53
:101C100022EA0907A760C4F2010CDCF800209E024A
:101C200042EA090758BF22EA0907CCF80070626847
:101C30009E0342EA090758BF22EA09076760226843
:101C4000DB0342EA090358BF22EA0903236051E794
:101C500003B0BDE8F08F000046F66450C2F2000009
:101C60000068704740F27E0046F66451C2F2000000
:101C7000C2F2000100780A68104408607047000052
:101C800080B543F60040C4F20200016841F40071DF
:101C90000160016841F480610160016841F4807174
:101CA0000160032000F098F80F2000F005F800F024
:101CB0005BF8002080BD000070B586B0002543F6BB
:101CC00040010195C4F202010A68044642F0100284
:101CD0000A60096801A801F01001019101996946A3
:101CE00000F02EF9049E002E18BF012600F04EF9D8
:101CF0004DF68361B040C4F21B31A0FB01014FF0EF
:101D0000FF3000EB914140F66C1041F20002C2F24C
:101D10000000C4F2000240F2E733C0E90021C0E94C
:101D200002530561856100F031FB0546C0B940F6FC
:101D30006C10C2F2000000F059FB054680B9362055
:101D400000F036F80F2C0AD836202146002200F089
:101D500033F840F28000C2F20000046000E0012588
:101D6000284606B070BD000080B582B0002043F662
:101D700040010190C4F202014A6842F480424A6084
:101D80004A6802F480420192019A00900868002299
:101D900040F08050086008680F2100F080500090EB
:101DA00000986FF0010000F007F802B080BD00005D
:101DB00080B503F0D7F880BD70B514460D460646D1
:101DC00003F0E0F82946224601F054FB0146304674
:101DD00003F0E0F870BD000080B503F0EDF880BDC1
:101DE0002DE9F041002800F08B8043F60808C4F28A
:101DF00002080446D8F8F8030D4600F00F008842A8
:101E000007D288F8F853D8F8F80300F00F00A8427A
:101E100076D12068810717D5410705D5D8F800107D
:101E200041F4E051C8F80010010705D5D8F80010BA
:101E300041F46041C8F80010D8F80010A26821F001
:101E4000F0011143C8F80010C0073FD1D8F8F803DB
:101E500000F00F00A84207D988F8F853D8F8F80323
:101E600000F00F00A8424BD12068410707D5D8F8F1
:101E70000010E26821F4E0511143C8F80010000797
:101E800008D5D8F80000216920F4604040EAC1007C
:101E9000C8F8000000F09EF8D8F8001049F6983213
:101EA000C1F30311C0F60002515C40F2780220FA3F
:101EB00001F140F28000C2F200000068C2F20002AC
:101EC0001160FFF7F9FE0020BDE8F0816068811E17
:101ED000022907D258F8081C89015CBF0120BDE81F
:101EE000F08110E0012807D158F8081C89035CBF75
:101EF0000120BDE8F08106E058F8081C890702D4EB
:101F00000120BDE8F081D8F8001021F0030108435A
:101F1000C8F80000FFF7A0FE064641F2883700BF70
:101F2000D8F80000616800F00C00B0EB810F8DD094
:101F3000FFF792FE801BB842F2D90320BDE8F08182
:101F40000F22026043F60802C4F20202136803F093
:101F500003034360136803F0F0038360136803F422
:101F6000E053C360D2F800C04FF4E05303EADC034F
:101F70000361D2F8F80300F00F000860704700001A
:101F800040F27800C2F200000068704780B5FFF7A9
:101F9000F7FF43F60801C4F20201096849F6A832C6
:101FA000C1F38221C0F60002515CC84080BD000030
:101FB00080B5FFF7E5FF43F60801C4F202010968A6
:101FC00049F6A832C1F34231C0F60002515CC84064
:101FD00080BD000010B543F60404C4F2020460683A
:101FE00000F00C0008280AD0042819BF42F2004073
:101FF000C0F2F40041F60030C0F2B70010BD206816
:1020000021682368490241F60031C0F2B70100F0AF
:102010003F02C3F388105CBF42F20041C0F2F401FA
:10202000A1FB00010023FEF7B7F921680222C1F3EA
:10203000014102EB4101B0FBF1F010BD2DE9F0418F
:1020400082B0002800F0A2800446007843F6000623
:10205000C007C4F2020643D0B06800F00C000428A8
:1020600005D1306880033BD56068C8BB8EE0B0689E
:1020700000F00C00082802D170684002F1D46568B5
:10208000B5F5A02F0AD0B5F5803F0BD0306820F40D
:1020900080303060306820F4802006E0306840F402
:1020A00080203060306840F480303060FFF7D4FD2D
:1020B000002D054611D000BF3068800310D4FFF713
:1020C000CBFD401B6428F7D922E100BFFFF7C4FD18
:1020D000401B64284FF0030055D830688003F5D4C6
:1020E000207880071AD5B06810F00C0F09D0B068BE
:1020F00000F00C00082840F08A807068400200F16F
:1021000086803068800702D5E06801283ED13068BB
:10211000216920F0F80040EAC10030602078000713
:1021200038D4207840074CD4A5695DB3B06800F07E
:102130000C00082840F09E80012D27D07068E169CE
:1021400000F480028A4221D1216A00F03F028A42D3
:102150001CD147F6C071626A0140B1EB821F15D1F4
:10216000A26A0023CFF6FF7303EBC23200F44031C2
:102170006FF30F02914209D1E16A00F07060B0EB99
:10218000016F03D1002002B0BDE8F081012002B050
:10219000BDE8F0816069002840F20000C4F24720E9
:1021A00057D00121C0F8801EFFF756FD054600BF3D
:1021B000706F8007B5D4FFF74FFD401B0228F7D999
:1021C000A6E0306C10F080580AD100200190306CED
:1021D00040F080503064306C00F0805001900198E5
:1021E00047F20007C4F200073868C00524D43868F5
:1021F00040F480703860FFF72FFD05463868C00551
:102200001AD4FFF729FD401B0228F7D980E0E068C7
:10221000002851D00020C4F2472001210160FFF7BF
:102220001BFD0546306880073FF571AFFFF714FDD1
:10223000401B0228F6D96BE0A568052D50D0012D72
:1022400052D0306F20F001003067306F20F0040072
:102250004DE00021C0F8801EFFF7FEFC054600BFE0
:10226000706F80077FF55DAFFFF7F6FC401B02281B
:10227000F6D94DE00027C4F2472700203866FFF763
:10228000EBFC022D05460BD13068800158D5FFF7D5
:10229000E3FC401B02284FF00300F5D973E700BFB1
:1022A000306880017FF56EAFFFF7D6FC401B022837
:1022B0004FF00300F4D966E70020C4F24720002164
:1022C0000160FFF7C9FC0546306880077FF526AF3F
:1022D000FFF7C2FC401B02284FF00300F4D952E77D
:1022E000306F40F004003067306F40F0010030671D
:1022F000FFF7B2FC002D054641F2883714D000BF2D
:10230000306F800713D4FFF7A7FC401BB842F7D902
:10231000032002B0BDE8F081FFF79EFC401BB842ED
:102320004FF003003FF62FAF306F8007F4D4B8F1C1
:10233000000F7FF4F9AE306C20F080503064F3E68B
:1023400004F11C052FCD08430021CFF6FF7140EAB0
:10235000821001EBC3316FF30F0140EA05600843BF
:10236000706001203866FFF777FC04463068800112
:102370003FF508AFFFF770FC001B02284FF0030089
:10238000F4D900E77047000070470000002804BF40
:102390000120704710B5044690F83D0028B9002090
:1023A00084F83C00204600F01FF8022084F83D002D
:1023B0002068211D02F00CFA012084F8460084F800
:1023C0003E0084F83F0084F8400084F8410084F81F
:1023D000420084F8430084F8440084F8450084F8FF
:1023E0003D00002010BD00007047000090F83D1037
:1023F00001291CBF01207047022180F83D100068B0
:1024000041F2FF72C168C4F20002904241F0010142
:10241000C1600DDC40F2FF71C4F20001884215DC9E
:10242000B0F1804F29D040F20041C4F2000122E017
:1024300040F2FF31C4F20101884212DC41F6000192
:10244000C4F20001884218D0002112E040F60001D9
:10245000C4F20001884210D040F60041C4F20001ED
:1024600009E044F20001C4F20101884205D040F2C3
:102470000041C4F20101884206D1816801F00701E0
:10248000062904BF00207047016841F00101016086
:10249000002070477047000010B5044600680169CD
:1024A000890744BFC1685FEA817138D42068016937
:1024B000490744BFC1685FEA41713CD420680169A3
:1024C000090744BFC1685FEA017141D4206801690E
:1024D000C90644BFC1685FEAC16145D4206801698B
:1024E000C9071CBFC1685FEAC1714AD12068016990
:1024F000090644BFC1685FEA016149D420680169E7
:10250000490644BFC1685FEA416148D42068016957
:10251000890644BFC1685FEA816147D410BD6FF08E
:1025200002010161012121778069800745D02046A1
:10253000FFF7B0FF47E06FF004010161022121774E
:10254000806910F4407F41D02046FFF7A3FF43E0AD
:102550006FF00801016104212177C06980073ED036
:102560002046FFF797FF40E06FF01001016108215E
:102570002177C06910F4407F3AD02046FFF78AFFE8
:102580003CE06FF001010161204600F03FF8ADE74B
:102590006FF0800101612046FFF7F4FEAEE76FF0B7
:1025A00040010161204600F03DF8AFE76FF02001E7
:1025B00001612046FFF7E8FE10BD204600F022F83A
:1025C000204600F021F8002020776FE7204600F039
:1025D00019F8204600F018F8002020776EE7204612
:1025E00000F010F8204600F00FF8002020776DE78B
:1025F000204600F007F8204600F006F8002020777B
:102600006CE70000704700007047000080B500686C
:1026100041F20001C4F20001884208BFFFF722FB2B
:1026200080BD000070470000704700007047000048
:10263000B0B582B0036804461868D9685A6900F0DA
:102640002F05202D01F0200505D125B1204602F0EF
:10265000AFF902B0B0BD5FEA007C1EBF02F0010E10
:1026600001F4907212EB0E0248D1226B0840C106B1
:102670003BD5012A39D10020019018680190586893
:10268000019001985869400640D4A08DE18DE28DFB
:10269000002A1CBF401A5FEA004101D102B0B0BD60
:1026A000216851E8031F226821F4907142E8031366
:1026B000002BF5D1216851E8051F226821F00101A6
:1026C00042E80513002BF5D1202184F83E100021AB
:1026D000216300BF216851E8031F226821F0100127
:1026E00042E80313002BF5D152E0010656D4400610
:1026F000D4D5204602F050F902B0B0BDC20718BFD1
:1027000011F480724FD1420753D459E0A06B016895
:1027100049688AB2002AC1D0A38D9A42BED2E1850F
:10272000C069B0F5807F30D0206850E8030F216881
:1027300020F4807041E80302002AF5D1206850E8B7
:10274000050F216820F0010041E80502002AF5D1BB
:10275000206850E8050F216820F0400041E805029C
:10276000002AF5D1202084F83E000020206300BF1D
:10277000206850E8030F216820F0100041E80302B0
:10278000002AF5D1A06BFEF7F7FFA08DE18D401A6E
:1027900081B22046FFF748FF02B0B0BD204602F0EC
:1027A000D7F902B0B0BD226C42F0010222644207A8
:1027B00006D5BEF1000F03D0226C42F00202226463
:1027C000820706D5BEF1000F03D0226C42F004024E
:1027D0002264BCF1000F06D55EEA050203D0226C2C
:1027E00042F008022264226C002A3FF457AF0840EE
:1027F000800602D5204602F0DBF820684069216C93
:1028000000F0400001F00801401827D0204602F0F7
:102810009BF82068406940061BD500BF206850E83F
:10282000050F216820F0400041E80502002AF5D19B
:10283000A06B70B144F63911C0F600010165FEF7D6
:10284000DBFF00283FF42AAFA06B016D884702B080
:10285000B0BD2046FFF7EAFE02B0B0BD2046FFF74C
:10286000E5FE0020206402B0B0BD0000002804BFD7
:102870000120704710B5044690F83D0028B90020AB
:1028800084F83C00204600F021F8242084F83D0024
:102890002068C16821F40051C160204602F0EAF8C6
:1028A0002068016921F490410161416921F02A0108
:1028B0004161C16841F40051C160002020212064C1
:1028C00084F83D1084F83E1010BD00002DE9F0435F
:1028D00087B00446006844F60001C4F200010026F7
:1028E0008842CDE90566CDE9036602963CD041F207
:1028F0000001C4F20101884200F0AB8047F60001FC
:10290000C4F20001884240F0A180002043F630016B
:102910000190C4F202010A6942F080420A610A6928
:1029200002F080420192019A01900A6842F010027E
:102930000A60096801F01001019101994FF4C0711A
:1029400002910221CDE90310032005900820069092
:1029500040F20040C4F2020000F5406002A9FFF717
:10296000ADF807B0BDE8F08343F630000196C4F23D
:102970000200016946F2280841F4802101610169E1
:10298000C4F2020801F480210191019901960168C5
:1029900041F008010160006802A900F00800019000
:1029A00001984FF4407002900220CDE90306032005
:1029B00005900720069040F20040C4F2020000F5A6
:1029C0000060FFF77BF840F6AC05C2F200054FF45B
:1029D00080704FF000674FF48069C5E906602846B3
:1029E000C5E90087C5E90266C5E90496C5E9086638
:1029F000FEF7DAFF002818BFFEF752FAA563AC63B2
:102A000040F60C1508F13000C2F200054021C5E97E
:102A1000000705F10800002280E806024FF440306C
:102A2000C5E908022846C5E90522EA61FEF7BCFFB0
:102A3000002818BFFEF734FA27200521002265631D
:102A4000AC63FFF7B9F92720FFF7B2F907B0BDE88B
:102A5000F083002643F630000196C4F2020041697B
:102A600041F010014161416901F0100101910199AA
:102A70000196016841F002010160006802A900F0BE
:102A8000020001900198C02002900220CDE90306C7
:102A9000032005900720069040F20040C4F2020097
:102AA000FFF70CF846F22800C4F2020040F64C058D
:102AB00000F58360C2F200054FF0006185E8430035
:102AC0004FF440304FF480624FF48073C5E908063C
:102AD0002846C5E90362C5E90566EB61FEF764FFB8
:102AE000002818BFFEF7DCF9252005210022A56388
:102AF000AC63FFF761F92520FFF75AF907B0BDE88D
:102B0000F08300007047000070470000FEE70000FF
:102B100080B582B00020019040F6F810C2F20000AB
:102B200001680A6801924A680192019ACA6842F4EF
:102B30000052CA60CA6842F01002CA6040F23C31DA
:102B4000C2F2000140F2851202F082F802B080BDAC
:102B50002DE9F04F81B0002800F0AB8040F23C3608
:102B600040F2CC7840F2DC7940F2807A04460025CD
:102B7000C2F200064FF0010BC2F20008C2F20009D7
:102B8000C2F2000A02E0A54280F29380705DA5289F
:102B90000CD17719B7F80500A0F2012107291FD839
:102BA000DFE801F00637040404044B730135EAE75B
:102BB0003846162102F070F80028F7D0F87CD7F8D4
:102BC0000B1088F80C00D7F80700D7F80F2088E81A
:102BD0000700C0B21635FDF735FF88F80EB0D2E712
:102BE00040F2023188423CD00328DFD13846292107
:102BF00002F052F80028D9D0F91D40F2A877C2F2AD
:102C0000000738462022FDF73FFC293587F820B021
:102C1000B9E73846192102F03FF80028C6D0D7F8A6
:102C20000700D7F80B10D7F80F20D7F8133089E832
:102C30000F00193589F810B0A5E73846102102F0C9
:102C40002BF808B3D7F80A00D7F8071040F2F07253
:102C5000C2F20002C2F803001160103582F808B019
:102C600013E03846272102F017F800289ED0F91DFE
:102C700040F28877C2F2000738461E22FDF704FCB6
:102C8000273587F81EB07EE70135771938460F21C2
:102C900002F002F800283FF489AFB7F80B00D7F82C
:102CA0000710AAF80400CAF800100F358AF806B019
:102CB00069E701B0BDE8F08F70B588B040F2CC7123
:102CC000C2F2000149894FF6FF720020914207903D
:102CD000CDE90500CDE90300CDE9010000906DD0FC
:102CE00040F23C7640F2387140F26A74C2F200065B
:102CF000C2F200016FF00102C2F20004306008600D
:102D0000A318B3F90230023203EBE33585EAE3336B
:102D10000E2A10FA83F0F3D140F23432C2F20002EC
:102D200012780860002A306054D0B4F90010B4F969
:102D30000220B4F9043000EE101A01EE100AB8EEC9
:102D4000C00AB8EEC11A02EE102A80EE010AB8EEEF
:102D5000C22A03EE103A82EE012AB8EEC33A83EE9D
:102D6000013AB4F9065004EE105AB8EEC44A84EEA3
:102D7000011A9FED364A20EE045A8DED005A22EEDC
:102D8000045A8DED015A23EE045A8DED025A9FED3F
:102D9000305A20EE050A8DED040A22EE050A8DED6B
:102DA000050A23EE050A21EE044A8DED060A21EEFE
:102DB000050A8DED034A8DED070A2DE040F23870CB
:102DC000C2F20000006840F23C71C2F200010860EB
:102DD00008B070BD00EE100A6846B8EEC00A00F1F7
:102DE0000C02A01D042100BF30F9023F013930F967
:102DF000085C02EE103A01EE105AB8EEC11AB8EEB5
:102E0000C22A81EE001A82EE002A02ED031A82ED38
:102E1000012A02F10402E7D100F01CF896ED000A45
:102E20006846B8EEC00A011F6FF0010091ED011A6B
:102E3000231821EE001ABDEEC11A0230043111EE42
:102E4000102A0E285A80F1D108B070BD6666E63FA0
:102E5000CDCC4C3E40F2DC7040F2CC71C2F20000AE
:102E6000C2F20001B0F90800498900EE100A01EE33
:102E7000101AB8EEC00AB8EE411A80EE010A40F20C
:102E80006E61C2F2000141F204120880C0F13C0000
:102E9000C2F2000201B2108040F22830C2F20000FB
:102EA000012920EE000A80ED000AB8BF704740F209
:102EB0003870C2F2000090ED001A40F23C70B8EE9B
:102EC000C11A20EE010ABDEEC00AC2F2000080ED78
:102ED000000A704780B5DDE9052C40F2C24300EBE3
:102EE0008000C2F2000311BA03EB80004DF2F073D0
:102EF000090CCFF6FF73C1526FF0FF0101EA1221F6
:102F000041EA12614DF2F272CFF6FF7281529CFAE1
:102F10008CF14DF2F872090CCFF6FF7281524DF22E
:102F2000FC72CFF6FF724DF2FA71835A4FEA1C4ED3
:102F3000CFF6FF7100F801E0591C81524DF2FB7190
:102F4000CFF6FF710122425480BD0000DDE9031C71
:102F500040F212500BBA1B0CC2F2000083806FF0DB
:102F6000FF0303EA112343EA1161C1809CFA8CF14B
:102F7000090C8181018A4FEA1C4201310182012141
:102F80008273C17370470000DDE9032C11BA090C8C
:102F900000EE101A40F26C51C2F2000101EB8010F9
:102FA00048F23811B8EE400A411A81ED000A6FF07C
:102FB000FF0101EA122141EA126147F6D062CFF621
:102FC000FF7281529CFA8CF147F6D462090CCFF65D
:102FD000FF72815247F6EA62CFF6FF72815A4FEADA
:102FE0001C4347F6D66CCFF6FF7C013100F80C305D
:102FF000815270472DE9F04381B02DED088B82B0EE
:10300000B0EE41AAB0EE60BADFED2D0A9FED2D1AA9
:1030100081461020B0EE428AB0EE619A884602F0F6
:1030200043F80646FBEE0E0AB3EE0E1AB0EE4B0A5C
:103030000C2002F039F89FED24BA9FED241A0746C0
:10304000B0EE4A0AF0EE4B0A0C2002F02DF80446CE
:10305000B1EE041AB0EE490AF0EE4B0A0C2002F071
:1030600023F80546FAEE040AB2EE041AB0EE480A56
:103070000C2002F019F8310A8DF8001039098DF88A
:103080000210210A41EA07118DF8031029098DF871
:103090000510010A41EA05118DF806108DF80700A8
:1030A0006A46484641468DF801608DF80440FDF7B8
:1030B000BBFC02B0BDEC088B01B0BDE8F08300BFE3
:1030C000C3F548C0C3F54840000000000000FA43C3
:1030D00010B540F2FC7046F20041C2F20000C4F2AA
:1030E000000140F2001407220023C0F2011480E81E
:1030F0000E0000F10C014FF4003C4FF4801E81E8FB
:10310000085084618383FEF7B5F9002818BFFDF7E6
:10311000C7FE10BD10B540F6240046F60001C2F20D
:103120000000C4F2000140F2001407220023C0F2A4
:10313000011480E80E0000F10C014FF4003C4FF444
:10314000801E81E8085084618383FEF793F900288C
:1031500018BFFDF7A5FE10BD80B582B0002043F674
:1031600030010190C4F202010A6842F480020A6050
:103170000A6802F480020192019A00900868002215
:1031800040F4001008600868052100F40010009069
:1031900000980C20FEF710FE0C20FEF709FE0E2012
:1031A00005210022FEF708FE0E20FEF701FE3A2060
:1031B00005210022FEF700FE3A20FEF7F9FD02B0DD
:1031C00080BD000010B5B2B049F6B030C0F60000C6
:1031D000D0E90012D0E90203CDE92E12CDE9300387
:1031E0002EA8002102F042F940F2F001C2F20001E3
:1031F000086049F6C030C0F60000D0E90012D0E9FE
:103200000203CDE92A12CDE92C032AA8002102F0FD
:103210002DF940F2F801C2F20001086049F6F020F1
:10322000C0F6000090E80E50D0E905402391CDE9AA
:10323000284023A8002124922593CDF898C0CDF8EA
:103240009CE002F02DF940F2E801C2F200010860B2
:1032500049F60C30C0F6000090E81E5080691C91C1
:1032600022901CA800211D921E931F94CDF880C0AF
:10327000CDF884E002F014F940F2F401C2F200014A
:10328000086049F62830C0F6000090E81E508069BA
:1032900015911B9015A80021169217931894CDF83C
:1032A00064C0CDF868E002F0FBF840F2FC01C2F225
:1032B0000001086049F64430C0F6000090E81E5056
:1032C00080690E9114900EA800210F921093119412
:1032D000CDF848C0CDF84CE002F0E2F840F2001121
:1032E000C2F20001086049F66030C0F6000090E8C4
:1032F0001E50806907910D9007A80021089209933C
:103300000A94CDF82CC0CDF830E002F0C9F840F2B4
:10331000A821C2F20001086049F67C30C0F6000026
:1033200090E81E5080698DE81E5006906846002186
:1033300002F0B6F840F20071C2F20001086032B04B
:1033400010BD000081B0002143F630000091C4F2AE
:103350000200026842F001020260026802F001020B
:103360000092009A0091026842F002020260026834
:1033700002F002020092009A0091026842F00802F4
:103380000260026802F008020092009A009102684E
:1033900042F080020260026802F080020092009A0D
:1033A0000091016841F010010160006800F0100018
:1033B0000090009801B0704780B540F63C2047F679
:1033C0000001C2F20000C4F2000100234FF00C0C17
:1033D0004FF4E13280E80E00C0E90333C0E905C3D1
:1033E000C361FFF743FA002818BFFDF759FD80BD00
:1033F00010B540F6B41041F2000C48F2A062C2F2DF
:103400000000C4F2010CC0F201024FF4805300210D
:103410004FF4806E0C24C0E900C2C0E90231C0E95B
:1034200004E4C0E90611FFF721FA002818BFFDF7F0
:1034300037FD10BD80B540F6F81044F60001C2F229
:103440000000C4F2000100234FF00C0C4FF4E132F5
:1034500080E80E00C0E90333C0E905C3C361FFF78C
:1034600005FA002818BFFDF71BFD80BDFEE7000030
:10347000FEE7000000F0070080F00703042B28BFE0
:1034800004234FF0FF3C03380CFA03F338BF00204D
:10349000994381400CFA00F022EA0000084370478B
:1034A000EFF30980BFF36F8F154B1A681EF0100FF2
:1034B00008BF20ED108A20E9F04F10602DE90900C7
:1034C0004FF0500080F31188BFF34F8FBFF36F8F21
:1034D00003F0BEF84FF0000080F31188BDE809004A
:1034E00019680868B0E8F04F1EF0100F08BFB0EC84
:1034F000108A80F30988BFF36F8F704700BF00BF49
:103500000811002004989FED0C0A01EE100A81EECC
:10351000001A039940F2706202EE101AC2F2000221
:10352000C2E9001090890130908121EE021A81EEEB
:10353000000A82ED020A704700007A44F0B581B0BB
:103540002DED048BC4B240F29061C4EBC400C2F212
:10355000000101EB800595ED030A9FED419A9FED77
:10356000418A80EE091A80EE082A95ED003A40F271
:103570007C772E46C2F20007BDEEC11ABDEEC22A0C
:1035800011EE100A12EE101A401A02EE100A95ED12
:10359000011AB8EEC22A22EE082A31EE021A33EEE0
:1035A000011A31EE400A46F8140F85ED011A87ED35
:1035B000000AFDF707F997ED000A9FED2B1AB0EE10
:1035C000C00AB4EE410AF1EE10FA45DD40F26C603B
:1035D000C2F20000007801280DD040F26D60C2F206
:1035E0000000007838B140F2EE00C2F2000000881E
:1035F00080087C2830D896ED001A281D90ED000A2E
:1036000041F2B211B8EEC11AC2F2000121EE081A5D
:1036100030EE090A31F8142031EE092AB4EE420ADC
:103620005242F1EE10FA80ED000A21F8142006DD76
:103630009FED0F1A30EE010A80ED000A0CE09FEDBD
:103640000B2A31EE021AB4EE410AF1EE10FABCBFB9
:1036500030EE080A80ED000ABDEC048B01B0F0BD2D
:10366000000034430000B4430000B442000034C3FF
:103670000000B4C380B540F26C51C0B2C2F2000188
:1036800001EB801191ED020A40F280619FED201A5A
:10369000C2F200019FED1F2A01EB800120EE010A1A
:1036A00091ED001A20EE020A9FED1B2A30EE411A1E
:1036B000B4EE421A40F2906CF1EE10FAC2F2000C35
:1036C00002DD4FF0FF3E08E09FED142AB4EE421AEF
:1036D000F1EE10FA08DA4FF0010EC0EBC0020CEB6D
:1036E0008202136973441361C0EBC0000CEB8000CD
:1036F00081ED000A01694FF4B472514301EE101AD2
:10370000B8EEC11A30EE010A80ED030A80BD00BF99
:10371000000000390000B44300003443000034C30B
:1037200080B540F2F02040F20402C2F20000C2F282
:103730000002418B93691980B0F912E0B0F914C00E
:10374000B0F91830B0F91610B0F91C0000EE103ABC
:1037500001EE101A02EE10EA03EE10CA04EE100A8F
:10376000B8EEC00AB8EEC11AB8EEC22AB8EEC33A33
:10377000B8EEC44A82ED000A82ED014A82ED021AD7
:1037800082ED033A82ED042A80BD000082B003F08E
:10379000C9FA40F20405C2F2000501AC019005E04F
:1037A00000F014F82046022102F00EFEE87F012806
:1037B000F6D100F001F8F5E780B500F095F840F299
:1037C0000400C2F200000021018480BD10B540F267
:1037D0003C04C2F20004206B804700F0DBFB606A0F
:1037E0008047FFF79DFF00F001F810BD10B540F2D3
:1037F0000404C2F20004A0690178032919D14278B7
:10380000022A16D11520208400F098F894ED001AB1
:1038100094ED020A94ED042AB2EE0C3A61EE030A2A
:10382000BAEE041A20EE030A22EE011A00F0EAFBB7
:1038300010BD022907D14278032A04D10C2020842C
:1038400000F052F804E003290BD14278032A08D192
:1038500094ED040A9FED231A20EE010A00F002FD08
:1038600010BD012913D14278032A10D120202084D1
:1038700000F0D6FD94ED001A94ED020AB2EE042A8F
:1038800020EE020A61EE020A00F026FD10BD0329B7
:1038900011D14278012A0ED194ED001A94ED020A5A
:1038A000B2EE042A172020EE020A61EE020A2084FA
:1038B00000F046FC10BD02290BD14078022808D147
:1038C0000B20208400F010F800F042F800F036F8E9
:1038D00010BD00F009F800F03BF800F02FF80020D0
:1038E000208410BD52499D39B0B582B040F26C5071
:1038F000C2F2000040F2C24240386FF01301C2F23F
:1039000000020023551814313C2920F8403FEB8277
:10391000F8D140F62404C2F200040025204600211C
:1039200000220023009502F055FB204600210022D2
:103930000023009502F07CFB02B0B0BD80B501F021
:10394000E7FB47F26C00C2F200000021017080BD6D
:1039500080B582B040F2FC704FF0000CC2F2000063
:10396000002100220023CDF800C002F033FB02B09A
:1039700080BD0000000000002DE9F04381B02DED76
:103980000C8B40F26D6840F2047915460C460646F1
:1039900051EA0007C2F20008C2F2000908D041F261
:1039A000BA11C2F200010020087088F8000016E089
:1039B00000EE105A0120B8EEC00A88F8000001F0AD
:1039C0000BFB9FEDA11AB4EE410AF1EE10FA08DAF2
:1039D000B9F8000081087C2903D801300025A9F836
:1039E000000055EA070000F0378141F2BB1198F85A
:1039F0000020C2F200010020012A08701EBF40F220
:103A0000EE01C2F20001088040F26C60C2F20000D8
:103A10004FF0010880F8008040F2906744F21F5098
:103A2000C2F20007C4F20630B86344F21940C4F28F
:103A30002230F86141F62F50C4F2942000EE106A53
:103A400040F238069FED819A38604AF64A40B8EE57
:103A5000C0BA00EE105AC2F20006C4F2233096ED4E
:103A600000AAB8EEC08AB0EE490A7865FCF74AFCB5
:103A70002AEE000A20EE080A3BEE400A10EE100A79
:103A800005F08AF900EE104A96ED001AB8EEC0CAA9
:103A9000B0EE490A41EC1A0B21EE08DAFCF7F6FB0E
:103AA0002DEE000A3CEE400A10EE100A05F074F903
:103AB00041EC110BB0EE4A0AF0EE6A0A03F09CFCEE
:103AC00051EC100B9FED620B54EC105B2A46234621
:103AD00004F090FB03F090FE96ED00AAB0EE490AC8
:103AE000F863FCF70FFC2AEE000A20EE080A3BEE12
:103AF000400A10EE100A05F04FF996ED000A41EC6D
:103B00001A0B20EE08DAB0EE490AFCF7BFFB2DEEE7
:103B1000000A30EE0C0A10EE100A05F03DF941ECF7
:103B2000110BB0EE4A0AF0EE6A0A03F065FC51ECA4
:103B3000100B2A46234604F05DFB03F05DFE96ED74
:103B400000AAB0EE490A3862FCF7DCFB2AEE000A54
:103B500020EE080A30EE0B0A10EE100A05F01CF9F0
:103B600096ED000A41EC1A0B20EE08DAB0EE490A95
:103B7000FCF78CFB2DEE000A30EE0C0A10EE100A5A
:103B800005F00AF941EC110BB0EE4A0AF0EE6A0AB0
:103B900003F032FC51EC100B2A46234604F02AFBBA
:103BA00003F02AFE96ED00AAB0EE490A7860FCF711
:103BB000A9FB2AEE000A20EE080A30EE0B0A10EEEE
:103BC000100A05F0E9F896ED000A41EC1A0B20EE18
:103BD00008DAB0EE490AFCF759FB2DEE000A3CEE7C
:103BE000400A10EE100A05F0D7F841EC110BB0EEC8
:103BF0004A0AF0EE6A0A03F0FFFB51EC100B2A466A
:103C0000234604F0F7FA03F0F7FDB0EE480AB86572
:103C100001F0E2F99FEDB51A0021B4EE410AF1EE90
:103C200010FAC2BF41F2BA10C2F2000080F8008060
:103C300040F20C70C2F2000080ED00BA40F2087051
:103C4000C2F20000016044E100008C42DB0F493FFA
:103C500000000000DCA54C4040F2EE01C2F2000181
:103C60000A8840F26C639708C2F2000300207C2FA0
:103C7000187000F20481501C088041F2BA10C2F2A0
:103C8000000000789AA140F20C7840F238079FEDCE
:103C9000968A012808BF043191ED009A40F2087617
:103CA000C2F20008C2F20007C2F2000698ED00AAB4
:103CB00097ED00BAB0EE480A86ED009AFCF722FBB9
:103CC0002BEE000A29EE000A3AEE400A10EE100A26
:103CD00005F062F896ED00AA97ED00BAB0EE480A3A
:103CE00041EC190BFCF7D2FA2AEE4B1A21EE000A2E
:103CF00010EE100A05F050F841EC110BB0EE490A35
:103D0000F0EE690A03F078FB51EC100B9FED740B99
:103D100054EC105B2A46234604F06CFA03F06CFD69
:103D200040F29069C2F2000998ED009A96ED00AA5F
:103D300097ED00BAB0EE480AC9F83C00FCF7E2FA89
:103D40002BEE000A2AEE000A39EE400A10EE100AA5
:103D500005F022F896ED000A97ED001A41EC190BD8
:103D600020EE01AAB0EE480AFCF790FA2AEE000A0B
:103D700010EE100A05F010F841EC110BB0EE490AF4
:103D8000F0EE690A03F038FB51EC100B2A4623468B
:103D900004F030FA03F030FD98ED009A96ED00AA99
:103DA00097ED00BAB0EE480AC9F82000FCF7AAFA6D
:103DB0002BEE000A2AEE000A39EE000A10EE100A75
:103DC00004F0EAFF96ED000A97ED001A41EC190B9A
:103DD00020EE01AAB0EE480AFCF758FA2AEE000AD3
:103DE00010EE100A04F0D8FF41EC110BB0EE490AB6
:103DF000F0EE690A03F000FB51EC100B2A46234653
:103E000004F0F8F903F0F8FC98ED009A96ED00AA9A
:103E100097ED00BAB0EE480AC9F80400FCF772FA50
:103E20002BEE000A2AEE000A39EE000A10EE100A04
:103E300004F0B2FF96ED00AA97ED00BAB0EE480A82
:103E400041EC190BFCF722FA2AEE4B1A21EE000A7C
:103E500010EE100A04F0A0FF41EC110BB0EE490A7D
:103E6000F0EE690A03F0C8FA51EC100B2A4623461B
:103E700004F0C0F903F0C0FCC9F8580029E041F291
:103E8000BA11C2F20001087040F2906144F21F5270
:103E9000C2F20001C4F233328A6348F63102C4F23E
:103EA000EA22CA6141F62F52C4F2EE220A6045F6B8
:103EB0009302C4F2ED224A6541F2BB12C2F2000243
:103EC000012313706FF01B028B181C32542A1862E6
:103ED000FAD1BDEC0C8B01B0BDE8F08300BF00BF90
:103EE00000000000DCA54C40DB0F493F0000C84249
:103EF0000000000000004842B0F5C06F18BF7047D6
:103F0000DDE9031040F23C02C2F200021160118AA6
:103F10005060481C1082704780B582B00A2040F281
:103F200010710190C2F200010820086140F20160A6
:103F3000086040F23C000022C2F20000C1E9022207
:103F4000D0E9023040F22872C2F20002C2E9003029
:103F500040F2FC70C2F2000001ABFDF71BF802B0AA
:103F600080BD000000000000000000000000000014
:103F7000074B19680868B0E8F04F80F30988BFF371
:103F80006F8F4FF0000080F31188704700BF00BFB3
:103F90000811002010B540F2F024C2F20004A07E07
:103FA00003280DD1E07E03280AD1002000F024F878
:103FB00040F23C00C2F20000816B0120884709E01A
:103FC000012000F019F840F23C00C2F20000816BC1
:103FD00000208847A07EE17E80F0010081F0010191
:103FE000084340F27C014FF00100C2F2000108BF1B
:103FF0000220087010BD000040F27D01C2F20001F5
:10400000087070472DE9F04F81B0BDEEC00A10EE88
:10401000100ABDEEE00A10EE101ABDEEC10A10EE55
:10402000102A00F05DFE40F26C50C2F20000A0F1D8
:10403000300740F2C240C2F20000A0F1140541F284
:10404000B210C2F2000040F60C3440F61C4940F2B7
:10405000906BA0F1020A0026C2F20004C2F200092D
:10406000C2F2000B4FF000083AF9020F00EE100AFE
:10407000B5F91A00B8EEC00A01EE100AF8EEC10A4E
:10408000204601F05DFA41F2BB11C2F2000109784D
:10409000BDEEC00A10EE100A012940F64C61E8821C
:1040A0004846C2F2000108BF08460BEB060191ED3D
:1040B000010AD1ED030A37F9401F404401EE101AFE
:1040C000B8EEC11A01F024FABDEEC00A1C3610EE9B
:1040D000100A08F18C081435702E04F1440427F8F6
:1040E000100CC1D140F24C10C2F2000000F094FF5D
:1040F00040F2C240C2F2000040F62404B0F90210BF
:10410000B0F91620B0F92A30B0F93E70C2F20004BE
:104110002046009701F05EFF40F26C50C2F20000B2
:10412000B0F90010B0F94020B0F98030B0F9C0709B
:104130002046009701F07CFF01B0BDE8F08F000041
:104140002DE9F04F81B000F097F940F23070C2F2E3
:10415000000090ED000A40F23470C2F2000090EDD1
:10416000001ABDEEC00A10EE100ABDEEC10A4FF6ED
:10417000242210EE101ACFF6FF7200F0B1FD40F2CB
:104180006C50C2F20000A0F1300B40F2C24941F283
:10419000B210C2F20009C2F2000040F60C3440F640
:1041A0001C4540F29068A9F11407A0F1020A00260C
:1041B000C2F20004C2F20005C2F200083AF9020F8E
:1041C00000EE100AB7F91A00B8EEC00A01EE100AA4
:1041D000F8EEC10A204601F0B3F9BDEEC00A10EEB8
:1041E000100A3BF9401FF88208EB060090ED010A27
:1041F000D0ED030A01EE101AB8EEC11A284601F0FC
:1042000087F9BDEEC00A1C3610EE100A143744348C
:10421000702E05F18C052BF8100CCFD140F624043C
:10422000B9F90210B9F91620B9F92A30B9F93E7076
:10423000C2F200042046009701F0CCFE40F26C5020
:10424000C2F20000B0F90010B0F94020B0F980309F
:10425000B0F9C0702046009701F0EAFE01B0BDE859
:10426000F08F000010B52DED028B47F26C04C2F206
:1042700000042078B0EE408A18B900F057FF012002
:10428000207040F2B024C2F20004D4ED070A94ED8D
:10429000091A40F6802030EE880AC2F2000084ED50
:1042A0000B0A01F035F9B0EE402A84ED0A0A9FEDC1
:1042B000090A40F2FC70C2F2000040F21521F0EE53
:1042C000400AB0EE401AF0EE401AFEF793FEBDEC45
:1042D000028B10BD000000002DE9F04F81B02DEDE4
:1042E000048B82B040F26850C2F2000090ED001AD8
:1042F00040F22850C2F20000B0EE608AD0ED020A0F
:1043000041F27C00B0EE409AC2F20000B0EE410AE9
:1043100001F06AF9BDEEC00A10EE102ABDEEC90A1E
:1043200010EE100ABDEEC80A524210EE101A12B278
:1043300000F0D6FC40F26C50C2F20000A0F1300B4D
:1043400040F2C24941F2B210C2F20009C2F20000CA
:1043500040F60C3440F61C4540F29068A9F1140771
:10436000A0F1020A0026C2F20004C2F20005C2F265
:10437000000800BF3AF9020F00EE100AB7F91A0060
:10438000B8EEC00A01EE100AF8EEC10A204601F0AC
:10439000D7F8BDEEC00A10EE100A3BF9401FF882B4
:1043A00008EB060090ED010AD0ED030A01EE101AA9
:1043B000B8EEC11A284601F0ABF8BDEEC00A1C36B3
:1043C00010EE100A14374434702E05F18C052BF8CA
:1043D000100CCFD140F62404B9F90210B9F9162017
:1043E000B9F92A30B9F93E70C2F2000420460097AC
:1043F00001F0F0FD40F26C50C2F20000B0F9001084
:10440000B0F94020B0F98030B0F9C0702046009774
:1044100001F00EFE02B0BDEC048B01B0BDE8F08FE0
:10442000B0B582B0FCF75CFD40F21255C2F2000557
:10443000B5F90800B5F9061000EE100A01EE101AE1
:1044400041F2C000B8EEC00AF8EEC10AC2F20000A4
:1044500001F02CF9BDEEC00A40F2FC7010EE104ADB
:10446000C2F200000021002200236C80009401F0C1
:10447000B1FD02B0B0BD000080B52DED088B40F25B
:104480002850C2F2000090ED021A40F26850C2F2C9
:10449000000090ED002A9FED1C3A31EE421A81EEA9
:1044A000031A9FED1A2AB0EE409AB0EE608A21EE10
:1044B00002AAB0EE4A0AFBF7E9FE20EE09BAB0EE16
:1044C0004A0AFBF71FFF20EE080A40F230703BEE6D
:1044D000400AC2F2000080ED000AB0EE4A0AFBF783
:1044E000D5FE20EE088AB0EE4A0AFBF70BFF20EE5D
:1044F000090A40F2347038EE000AC2F2000080ED82
:10450000000ABDEC088B80BD8805B64135FA8E3CAB
:1045100040F23C00C2F2000080ED020A7047000049
:1045200040F23C03C2F20003D87419735A73704707
:1045300040F23C01C2F2000148737047B0B540F24E
:10454000CC70C2F20000408940F2DC73782801EEA2
:10455000100A28BF7820C2F200032D2898BF2D2012
:104560005A6800EE100A40F23C04B8EE411A02EE1E
:10457000102AB8EE400AC2F2000432EE411A94F852
:1045800006C031EE002A617BB0EE421ABCF1280F62
:1045900088BFB0EE401A012908BFB0EE412A94ED61
:1045A000021AB1EE043A40F2447230EE033AC2F21B
:1045B0000002B4EE431A82ED000A40F24072C2F2E9
:1045C0000002F1EE10FA82ED002A06DCB5EE401A88
:1045D000F1EE10FA03DA9FED350A82ED000A1B892D
:1045E00023F00300382806D192ED000AB9EE041A30
:1045F00030EE010A03E0372B03D89FED2D0A82ED40
:10460000000A40F20400C2F20000038C1068A060AF
:104610001BB10B2B01D0A07C38B1A36A0020002174
:104620000022002598476576B0BD0120E074207314
:1046300049B1012918D1BCF1190F1CD3A36A01207B
:10464000012101221EE00120FFF7D6FC607EF8B1B7
:10465000E069A36A41F28832411C90424FF00100A8
:10466000E1611BDB0121DBE70120FFF7C5FCA36A49
:10467000002000210FE00120FFF7BEFCA36A01200B
:104680000121002298470020E06101206076B0BD42
:10469000A36A0120012100229847B0BD0021002219
:1046A000002598476561A560B0BD00BF000000000F
:1046B000CDCCCC3DB0B540F23C04C2F20004A36ABC
:1046C0000020002100220025984701206561A56097
:1046D0006576FFF791FCB0BD80B54FF0500080F3D8
:1046E0001188BFF36F8FBFF34F8F02F021FB30B102
:1046F0004EF60450CEF200004FF0805101600020D1
:1047000080F3118880BD000070B592B006AC2046E1
:104710003021FBF7FEFE002543F640000595CDE96C
:104720000355CDE901550095C4F202000168022647
:1047300041F080510160006800F0805000900098C6
:1047400047F200000095C4F20000016841F44041C6
:104750000160006800F4404000900098012006903D
:104760004FF4803007904FF480000D9006200E909B
:10477000A820CDE90F060420119020460C96FDF7E5
:104780005DFC88B90F20CDE901064FF4A0500490DC
:104790004FF48050059001A805210395FDF720FBFB
:1047A000002804BF12B070BDFCF77AFB4EF68850AB
:1047B000CEF20000016841F4700101607047000012
:1047C00080B540F66C10C2F20000FDF765FE80BDBA
:1047D00010B540F6FF3E0368C4F2000E40F2004CF4
:1047E0007045C4F2010C0FDCB0F1804F19D040F2DB
:1047F0000042C4F20002904213D040F60002C4F21C
:10480000000290420DD010E040F60042C4F20002D7
:10481000904206D0604504D00022C4F201029042CA
:1048200003D14A6823F07003134341F6FF72C4F2C8
:10483000000290420DDC70451FDCB0F1804F41D08A
:1048400040F20042C4F2000290423BD040F6000227
:1048500021E043F6FF72C4F20102904220DC42F2F2
:104860000002C4F2000290422CD00022C4F20102E5
:10487000904227D0604525D028E040F60042C4F29F
:10488000000290421ED041F60002C4F200029042A3
:1048900018D041F60042C4F20002904212D015E056
:1048A00044F20002C4F2010290420BD044F600022E
:1048B000C4F20102904205D044F20042C4F2010267
:1048C000904203D1CA6823F44073134323F080025B
:1048D0004B69D1F800E08C681A430260C46240F46E
:1048E0008062C0F828E0624504BF096901630121C4
:1048F000416110BD9FED0C2A30EE601AB4EE421AF1
:10490000F1EE10FA04DD9FED0B1A30EE010A70474C
:104910009FED062AB4EE421AF1EE10FABCBF9FEDED
:10492000041A30EE010A704700003443000034C31B
:104930000000B4430000B4C380B5806B0021C18582
:10494000C184FDF773FE80BD016851E8031F026852
:1049500021F4907142E80313002BF5D1016851E86E
:10496000051F026821F0010142E80513002BF5D173
:10497000016B01290AD100BF016851E8031F0268D9
:1049800021F0100142E80313002BF5D1202180F81B
:104990003E1000210163704780B50168CA6822F0AB
:1049A0004002CA60202180F83D10FEF7ADF880BDBE
:1049B00080B582B090F83E1022291ED18268B2F5EF
:1049C000805F02D10169002948D0816AB2F5805F19
:1049D00007D00AB9026922B10268526802F07F0268
:1049E00001E0026852680A700121826A1144816202
:1049F000C18D01390A04C18501D002B080BD0168B2
:104A0000CA6822F02002CA60CA6822F48072CA60B2
:104A10004A6922F001024A61202180F83E10016BB0
:104A2000012923D100210163016851E8031F0268B5
:104A300021F0100142E80313002BF5D101680A6848
:104A4000D20606D5002201920A68019249680191B6
:104A50000199818DFDF7E8FD02B080BD0168826A91
:104A600049686FF35F2111800221BEE7FEF74AF823
:104A700002B080BD10B504460068D4E902C22369C3
:104A8000016921F4405111430161626943EA0C015B
:104A9000E3691143C268194349F20C639A43114315
:104AA000C1604169A26921F4407141F200431143A0
:104AB00040F48062C4F201039A42416102D1FDF7E1
:104AC00077FA01E0FDF762FAE16963681922B1F54E
:104AD000004FA0FB02011CD15A00DB0FFBF75CFC6E
:104AE00048F21F51C5F2EB11A0FB01235A096FF0E8
:104AF000630302FB0300322303EBC000A0FB0101B0
:104B00004FF4F87000EA111000EB0210C1F34211EB
:104B10001AE09A009B0FFBF73FFC48F21F51C5F2C9
:104B2000EB11A0FB01235A096FF0630302FB0300A2
:104B3000322303EB0010A0FB0101F02000EA51102A
:104B400000EB0210C1F3431122680843906010BDCE
:104B500090F83D10212923D18168B1F5805F01D102
:104B6000016931B1016A02684B1C03620978516026
:104B700007E0016A036831F8022B6FF35F225A6085
:104B80000162C18C01390A04C18418BF70470068F2
:104B9000C16821F08001C160C16841F04001C1607D
:104BA0007047000010B582B040F6B414C2F20004A1
:104BB00020680168C90644BFC0685FEAC06007D4C6
:104BC00040F6B410C2F20000FDF732FD02B010BD95
:104BD000204601F07BFA00200190206801680191D5
:104BE000406801900198EBE710B582B040F6F814E8
:104BF000C2F2000420680168C90644BFC1685FEAC8
:104C0000C16107D440F6F810C2F20000FDF710FDB4
:104C100002B010BD0021019101680191406801902E
:104C20000198A06B0068016821F0010101604068F3
:104C300040F28711081A80B2FDF78AFFA06B40F29C
:104C4000851100684160016841F001010160D9E708
:104C5000B0B5054690F83E0020281CBF0220B0BD2C
:104C600013460A4600294FF0010418BF002B01D15A
:104C70002046B0BD0024AA62AB852C642968A86BCD
:104C80000431FCF7F9FE2868416941F040014161B7
:104C90002046B0BDFEE7000070B5054600284FF085
:104CA000000008BF70BD0C46032917D340F2000076
:104CB000C2F200000288A61E28463146FCF7F6F82C
:104CC000A95DC2B291421CBF002070BD611911F8EC
:104CD000011CA1EB1020B0FA80F0400970BD00006B
:104CE000F0B581B02DED088B84B015460C46064614
:104CF000FEF742FE40F2487754EA0600C2F200078F
:104D000001D0002012E000EE105AB8EEC00A00F008
:104D100063F99FED921AB4EE410AF1EE10FA06DA49
:104D2000388881087C2902D801300025388000EEBF
:104D3000106A9FED8B8AB8EEC0AA00EE105AB8EE4A
:104D4000C09AB0EE480AFBF7DDFA20EE090A3AEE07
:104D5000400A10EE100A04F01FF802460B4603F05A
:104D600049FA00EE104AB8EEC0BAB0EE480A05465D
:104D70000E46FBF78BFA20EE090A30EE0B0A10EE16
:104D8000100A04F009F802460B4603F033FA024613
:104D90000B462846314602F091FE41EC100B02F022
:104DA0002BFC8DED000B9DF8070080F080008DF846
:104DB0000700DDE9000103F0ABF941F2B216C2F2DF
:104DC0000006B0EE480A7080FBF79CFA20EE090A54
:104DD0003AEE400A10EE100A03F0DEFF02460B46E0
:104DE00003F008FAB0EE480A04460D46FBF74EFA07
:104DF00020EE090A3BEE400A10EE100A03F0CCFF49
:104E000002460B4603F0F6F902460B4620462946B9
:104E100002F054FE41EC100B02F0EEFB51EC100BD3
:104E200003F076F9B0EE480AB080FBF76BFA20EE9B
:104E3000090A30EE0A0A10EE100A03F0ADFF02462E
:104E40000B4603F0D7F9B0EE480A04460D46FBF7CF
:104E50001DFA20EE090A3BEE400A10EE100A03F09C
:104E60009BFF02460B4603F0C5F902460B4620465F
:104E7000294602F023FE41EC100B02F0BDFB8DED44
:104E8000020B9DF80F0080F080008DF80F00DDE927
:104E9000020103F03DF9B0EE480A3080FBF732FA28
:104EA00020EE090A30EE0A0A10EE100A03F074FF31
:104EB00002460B4603F09EF9B0EE480A04460D4642
:104EC000FBF7E4F920EE090A30EE0B0A10EE100AA7
:104ED00003F062FF02460B4603F08CF902460B46D4
:104EE0002046294602F0EAFD41EC100B02F084FB5B
:104EF00051EC100B03F00CF9F0800020FEF7BAFB28
:104F00000120FEF7B7FB0220FEF7B4FB0320FEF7FB
:104F1000B1FB0020FEF712FB0120FEF70FFB022081
:104F2000FEF70CFB0320FEF709FB40F290656FF0E3
:104F30001B04C2F2000500BF2E1996ED080AD6ED3B
:104F40000A0AFFF7D7FC1C34542C86ED080AF3D16B
:104F500004B0BDEC088B01B0F0BD00BF00008C4276
:104F6000DB0F493F002848BF704700F01F010122B6
:104F700002FA01F14EF200124009CEF2000242F8AC
:104F8000201070474EF60C50CEF200000068C0F3BF
:104F9000022070474EF6145300F00F02CEF20003C9
:104FA00009011A4400F16043B0F1FF3FC8BF03F5A7
:104FB00064421170704700004EF60C51CEF20001B1
:104FC0000A684FF6FF031A4060F30A2242F080603D
:104FD00040F0FD7008607047B0EEC00ABDEEC00A38
:104FE000B8EEC00A7047000080B5FBF7CFFCFBF7B6
:104FF000EDFC40F2FC70C2F200000068416941F033
:105000000201416140F62400C2F2000000684169DB
:1050100041F00201416180BD70B540F26C50C2F2B6
:105020000000A0F1400440F26A70C2F20000851E48
:1050300040F2C2466FF01300C2F200062946224633
:105040003318DB8A143021F8023F32F8403F3C2805
:105050000B81F5D1FDF730FE6FF0130035F8021F1C
:105060003218D182298914303C2824F8401FF5D108
:1050700070BD000080B582B00020019040F6B410F1
:10508000C2F2000000680168019141680191019934
:10509000C16841F01001C16000F0F8FF02B080BDAE
:1050A000406880B2704700004FF0FF3101FA00F015
:1050B000C04302EE100A30EE600AB8EEC22A31EEAA
:1050C000601A20EE020A80EE010ABDEEC00A10EE60
:1050D000100A7047FCF7D4FDFFF716FBFEF732F914
:1050E000FEF73AF8FDF7F4FFFEF714F8FEF764F95F
:1050F000FEF77EF9FEF79EF9FEF764F800F0B0F9CE
:10510000FEE70000B0F1840118BFC11C08467047DB
:1051100080B540F2FC7040F23002C2F20000C2F2F0
:10512000000240F21521FBF77FFC80BD80B540F204
:10513000FC7040F22802C2F20000C2F2000240F20B
:105140001521FBF771FC80BDB0B52DED108B9FEDE7
:10515000B18A9FEDB2AA41F27C00DFEDAF1AC2F234
:105160000000B0EE0C0AF0EE480AB0EE481AB0EEBD
:105170004A2A00F0FDFA41F2C000B2EE049ADFEDD7
:10518000A80ADFEDA81AC2F20000B0EE490AB0EE9C
:10519000481AB0EE4A2A00F0EBFA9FEDA3AA9FED61
:1051A000A3BA9FEDA3CA40F60C350024C2F2000555
:1051B0002819B0EE490AF0EE4A0AB0EE481AF0EEAD
:1051C0004B1AB0EE4C2A00F0D3FA4434B4F5887F81
:1051D000EED140F680249FED8F8AC2F200049FED4D
:1051E000950ADFED950A04F14400F1EE001AB1EEE4
:1051F000082AB0EE481A00F0BBFA9FED900ADFEDE6
:10520000901A9FED902A2046F0EE480AB0EE481A18
:1052100000F0AEFA40F64C649FED8BDA9FED8BBA4E
:105220009FED8BCAC2F20004B0EE04AA04F1440060
:10523000B0EE4D0AF0EE4A0AB0EE481AF0EE4B1A04
:10524000B0EE4C2A00F094FA9FED829A9FED75EA39
:10525000B7EE08FA2046B0EE4F0AF0EE480AB0EE7C
:10526000481AF0EE491AB0EE4E2A00F081FA04F125
:10527000D000B0EE4D0AF0EE4A0AB0EE481AF0EE59
:105280004B1AB0EE4C2A00F073FA04F18C00B0EE29
:105290004F0AF0EE480AB0EE481AF0EE491AB0EEA6
:1052A0004E2A00F065FA04F5AE70B0EE4D0AF0EE4D
:1052B0004A0AB0EE481AF0EE4B1AB0EE4C2A00F053
:1052C00057FA04F58C70B0EE4F0AF0EE480AB0EED3
:1052D000481AF0EE491AB0EE4E2A00F049FA04F5E9
:1052E000F470B0EE4D0AF0EE4A0AB0EE481AF0EE55
:1052F0004B1AB0EE4C2A00F03BFA04F5D270B0EE37
:105300004F0AF0EE480AB0EE481AF0EE491AB0EE35
:105310004E2A00F02DFA40F61C449FED4FDA9FED27
:1053200043BA9FED4ECAC2F2000404F14400B0EE4D
:105330004D0AF0EE4A0AB0EE481AF0EE4B1AB0EE03
:105340004C2A00F015FAB3EE04EA2046B0EE4E0AFD
:10535000F0EE480AB0EE481AF0EE491AB0EE492ACB
:1053600000F006FA04F1D000B0EE4D0AF0EE4A0A61
:10537000B0EE481AF0EE4B1AB0EE4C2A00F0F8F9F5
:1053800004F18C00B0EE4E0AF0EE480AB0EE481A76
:10539000F0EE491AB0EE492A00F0EAF904F5AE70D1
:1053A000B0EE4D0AF0EE4A0AB0EE481AF0EE4B1A93
:1053B000B0EE4C2A00F0DCF904F58C70B2EE0E0A67
:1053C000F0EE480AB0EE481AF0EE491AB0EE492A5B
:1053D00000F0CEF904F5F470B0EE4D0AF0EE4A0A92
:1053E000B0EE481AF0EE4B1AB0EE4C2A00F0C0F9BD
:1053F00004F5D270B2EE040AF0EE480AB0EE481A94
:10540000F0EE491AB0EE492A00F0B2F9BDEC108B6B
:10541000B0BD00BF000000000060EA4600401C462E
:105420009A99193F00007A44CDCC4C3F0000FA45D0
:105430000070944648507C3B499D803C0000584297
:105440000000204300409C45000048420080BB45CE
:1054500000A00C460000FA440000704200606A465A
:1054600080B501F0ADF8002080BD000080B582B0AD
:10547000826862B1C36853B1D0E900C14FF0000E39
:105480006046CDF800E001F0D1F902B080BDD0E96E
:1054900000211046002201F0A9F902B080BD0000F1
:1054A0002DE9F04385B047690C46A7B1856995B1F0
:1054B000D0E90086D0F81090B0F90800FFF722FE7E
:1054C000CDE90007304641464A462346029501F0A1
:1054D000D9FB049013E0D0E90056078AB0F9080020
:1054E000FFF710FE0DF1100C0090304629463A46A9
:1054F0002346CDF804C001F091FB012803D10498A4
:1055000005B0BDE8F083002005B0BDE8F0830000E1
:1055100010B52DED028BB0EE418A044600F010F874
:1055200094ED0D0A04F14400F0EE480A00F008F88A
:1055300094ED1E0A84ED220ABDEC028B10BD000022
:1055400090ED013A80ED050A90ED071A30EE604AC1
:1055500090ED000A90ED032A90ED0B6A24EE033AD9
:1055600080ED081A80ED074A90ED025A24EE000AF9
:1055700036EE033A34EE411AB1EE424AB4EE443A02
:1055800021EE051AF1EE10FAC0ED060A80ED0A0AC6
:1055900080ED0B3A80ED0C1A08DDB4EE423AB0EE25
:1055A000424AF1EE10FAB8BFB0EE434A90ED042A39
:1055B00030EE040A31EE001AB1EE420AB4EE401A9F
:1055C000F1EE10FA80ED0B4A80ED0D1A08DDB4EE15
:1055D000421AB0EE420AF1EE10FAB8BFB0EE410A3C
:1055E00080ED0D0A7047000010B580ED050ABDEE94
:1055F000C00A0446C0ED060A10EE100ABDEEE00A2D
:1056000010EE101AFBF7D8FA00EE100A94ED012AFA
:10561000B8EEC01A94ED0B4A22EE012A34EE024A8B
:1056200094ED082A94ED025A94ED033A31EE422AA1
:1056300094ED000A25EE022AB1EE435AB4EE454A33
:1056400020EE010AF1EE10FA84ED071A84ED0A0A41
:1056500084ED0B4A84ED0C2A08DDB4EE434AB0EE2B
:10566000435AF1EE10FAB8BFB0EE445A94ED043A42
:1056700030EE050A32EE002AB1EE430AB4EE402ABB
:10568000F1EE10FA84ED0B5A84ED0D2A08DDB4EE2C
:10569000432AB0EE430AF1EE10FAB8BFB0EE420A68
:1056A00084ED0D0A84ED081A10BD000090ED074A44
:1056B00030EE605A80ED050A90ED082A80ED084A28
:1056C00035EE440A90ED001A90ED016A90ED033A30
:1056D00034EE044A35EE444A80ED092A90ED027A10
:1056E00020EE010A25EE061A32EE042AB1EE434AF4
:1056F000B4EE441A22EE072AF1EE10FAC0ED060AC3
:1057000080ED075A80ED0A0A80ED0B1A80ED0C2A15
:1057100008DDB4EE431AB0EE434AF1EE10FAB8BF1A
:10572000B0EE414A30EE040A32EE000A90ED101A53
:1057300090ED042A30EE011A80ED0E0AB1EE420A15
:10574000B4EE401AF1EE10FA80ED0B4A80ED0F1A1C
:1057500008DDB4EE421AB0EE420AF1EE10FAB8BF1C
:10576000B0EE410A80ED0F0A80ED100A704700008C
:1057700080EC050A70470000F0B581B00D4647F295
:10578000640141F20816C2F20001C2F200060F687D
:1057900031680446081D00F0E3FC10B1601C0FD016
:1057A00019E0306846F67852C06AC2F20002012160
:1057B000136801FA00F023EA00001060601C0AD1AF
:1057C0004DB13068011D47F23C00C2F2000000F00C
:1057D00015FD01B0F0BD3068E41944600AD341F210
:1057E0001410C2F2000000683168043100F0E8FCD7
:1057F00001B0F0BD41F20C10C2F200000068316847
:10580000043100F0DDFC47F20800C2F2000001683C
:105810008C4238BF046001B0F0BD000070B5044692
:1058200000F004FD46F66850C2F20000016841F243
:10583000081501310160C2F20005296847F23006FF
:10584000C2F2000641B1306860B92868E16AC06AF6
:10585000884298BF2C6005E02C600068012801D1C7
:1058600000F068F946F67450C2F20000016846F68E
:10587000785201310160E06AC2F20002012113682E
:1058800081401943116041F2181100EB8000C2F20F
:10589000000101EB8000211D00F0B0FC00F0EAFCEB
:1058A000306880B12868E16AC06A884228BF70BD4C
:1058B0004EF60450CEF200004FF080510160BFF36D
:1058C0004F8FBFF36F8F70BDF0B581B046F66C554A
:1058D000C2F200052868E0B147F2500646F6685764
:1058E000C2F20006C2F2000700F0A0FCF068C46833
:1058F000201D00F035FC3868013838602868013810
:10590000286000F0B7FC204600F058F8286800280E
:10591000EAD101B0F0BD000080B5026C002A08BFDA
:1059200080BDD0E902C31344C360634524BF03684C
:10593000C360C36808461946FAF7A6FD80BD00009B
:1059400070B5866B036C0446E3B115461AB3E06884
:105950001A46FAF799FDE168206C2268091A91420B
:10596000E16003D2A16840420844E060A81EB0FA9A
:1059700080F040093146002E18BF01210840361A38
:10598000002516E02068002598B9A06801F082FA89
:10599000A56005460DE060681A46FAF775FD216CB2
:1059A000D4E90102002508446060904224BF2068C9
:1059B0006060711C2846A16370BD000010B50446EC
:1059C00090F85100022808BF10BD012803D030B95B
:1059D000206B00F067FC204600F064FC10BD4FF027
:1059E000500080F31188BFF36F8FBFF34F8F00BF5C
:1059F000FEE7000041F2BC10C2F20000C21D22F01E
:105A0000070210F0070CA0EB020318BF104647F284
:105A10003402C2F200020021C2E9000145F6A032C0
:105A2000BCF1000F18BF1A440244083A41F21013A7
:105A300022F00702C2F200031A60C2E90011111A33
:105A40001A68C0E9002147F20400C2F200000160B8
:105A500046F6A850C2F20000016046F67C50C2F241
:105A6000000001210170704741F218144EF60455F0
:105A7000C2F20004CEF200054FF08056FFF724FF7B
:105A800020680228FAD32E60BFF34F8FBFF36F8FC9
:105A9000F4E7000080B5002914BF1A601B60C3E959
:105AA0000F011846012100F00BFF80BD2DE9F047E2
:105AB000DDE909878246386B089C00EB82000438D8
:105AC000994620F0070679B107F13400002200BFA3
:105AD0008B5C83548B5C1BB10F2A02F10102F7D35C
