:020000040800F2
:1000000070B100205D0200080D380008752E000850
:1000100009380008B50B000869500008000000000E
:100020000000000000000000000000003143000854
:10003000151200080000000041380008AD4A000811
:1000400077020008770200087702000877020008AC
:10005000770200087702000877020008770200089C
:10006000770200087702000877020008770200088C
:10007000990F000877020008A90F0008770200080E
:10008000770200087702000877020008770200086C
:10009000810C000877020008770200087702000848
:1000A000770200087702000877020008770200084C
:1000B000770200087702000877020008770200083C
:1000C000770200087702000877020008770200082C
:1000D00077020008794F000877020008BD4F00083A
:1000E000770200087702000877020008770200080C
:1000F00077020008770200087702000877020008FC
:1001000077020008770200087702000877020008EB
:100110007702000877020008954B00087702000874
:100120007702000877020008B90F0008770200087C
:1001300077020008770200087702000877020008BB
:10014000F50C000877020008770200087702000823
:10015000770200087702000877020008770200089B
:10016000770200087702000877020008770200088B
:1001700077020008770200087702000800000000FC
:10018000770200087702000877020008770200086B
:10019000770200087702000877020008770200085B
:1001A00000000000000000007702000800F002F8E4
:1001B00000F045F80AA090E8000C82448344AAF1BC
:1001C0000107DA4501D100F03AF8AFF2090EBAE8BA
:1001D0000F0013F0010F18BFFB1A43F0010318477B
:1001E000A8A20000C8A20000103A24BF78C878C1B5
:1001F000FAD8520724BF30C830C144BF04680C602D
:10020000704700000023002400250026103A28BF74
:1002100078C1FBD8520728BF30C148BF0B60704778
:100220001FB509F0A9F99DE8030000F033FB00F0C9
:1002300013FA1FBD10B5002000F0C4FA10BD00F085
:10024000E7FA1146FFF7ECFF05F074FA00F07FFBC8
:1002500003B4FFF7EFFF03BC00F006FC094880473A
:1002600009480047FEE7FEE7FEE7FEE7FEE7FEE798
:10027000FEE7FEE7FEE7FEE704480549054A064BB0
:1002800070470000814B0008AD010008707100202C
:1002900070B1002070910020709100209FED1A1A1B
:1002A000F5EE000A40EE010ABDEEE00AF5EEC00AE6
:1002B00010EE100AF1EE10FA38BF401E00EE100AE0
:1002C0001349F7EE001AB8EEC00A30EEC00ADFEDAF
:1002D0000F0A20EE200AFCEEC00A10EE900AC0F3CE
:1002E000080000EE900A01EB8000F8EE600A90ED45
:1002F000011A70EE600A90ED000A71EEE01A21EE2C
:10030000800A00EE810A704783F9223E0000004413
:10031000B8980008B5EEC00AF1EE10FA07D2DFED8A
:100320001E0AB4EEE00AF1EE10FAA8BF7047DFED46
:100330001B0AB5EEC00A60EE200ABDEEE01A11EE0F
:10034000100AF1EE10FA38BF401E00EE100A1549EF
:10035000F7EE001AB8EEC00A30EEC00ADFED100A60
:1003600060EE200ABCEEE00A10EE100AC0F30800AE
:1003700000EE100A01EB8000B8EE400A90ED011A81
:1003800070EEC00A90ED000A71EEE01A21EE800ACC
:1003900000EE810A70470000CD024CB483F9223E82
:1003A00000000044B8980008018042804360704714
:1003B00010B4B0F800C00C8843684A68A44503D163
:1003C00040884988884203D010BC6FF00200704713
:1003D0000CFB00F188081DD093ED002AD3ED010A33
:1003E000D3ED021A93ED031A22EE002A60EE800A82
:1003F00061EE801A21EE001A82ED002AC2ED010A98
:10040000C2ED021A82ED031A401E02F1100203F13E
:100410001003E1D111F0030026D0B0F1004F26D235
:10042000002821DD191F121F10F0010F07D0D1ED98
:10043000010A091D60EE800AC2ED010A121D400882
:1004400012D000BFD1ED010A401E60EE800AC2ED5D
:10045000010AD1ED020A01F1080160EE800AC2ED45
:10046000020A02F10802EDD110BC00207047F3EC43
:10047000010A401E60EE800AE2EC010AF7D1F3E7C0
:1004800053EA020C00F069802DE9F04B4FF00006B2
:10049000002B1FBFB3FA83F503FA05F424FA05F61F
:1004A0005E4012BF1643B2FA82F502FA05F4C5F1B6
:1004B00020051EBF22FA05FC44EA0C04203556EA4A
:1004C000044C4FEA144418BF641C4FF000084FF06E
:1004D0000009904271EB030C39D3002919BFB1FA1E
:1004E00081F701FA07F6B0FA80F700FA07F6C7F1CC
:1004F00020071EBF20FA07FC46EA0C062037B6FB91
:10050000F4FCA7EB0507103F07F01F0BCBF120060B
:100510002CFA06F60CFA0BFB44BFB3460026202F3C
:10052000A4BF5E464FF0000B5BEA060C08BF4FF01D
:10053000010B19EB0B0948EB0608ABFB027C06FB31
:1005400002CC0BFB03CCC01B71EB0C01C1E70B46CB
:10055000024641464846BDE8F08B13B5084318BF34
:100560004FF0FF300146AFF30080BDE81C407047FC
:100570000B460146184600F08CB8032A40F2308042
:1005800010F0030C00F0158011F8013BBCF1020FD4
:10059000624498BF11F801CB00F8013B38BF11F855
:1005A000013BA2F1040298BF00F801CB38BF00F86C
:1005B000013B11F0030300F08380083AC0F008808B
:1005C00051F8043B083A51F804CBA0E80810F5E7CD
:1005D000121D5CBF51F8043B40F8043BAFF30080B0
:1005E000D20724BF11F8013B11F801CB48BF11F825
:1005F000012B24BF00F8013B00F801CB48BF00F8F5
:10060000012B70474FF0000200B513469446964602
:10061000203922BFA0E80C50A0E80C50B1F1200115
:10062000BFF4F7AF090728BFA0E80C5048BF0CC0C3
:100630005DF804EB890028BF40F8042B08BF704721
:1006400048BF20F8022B11F0804F18BF00F8012B93
:10065000704770477047704770B5064C7C44064D34
:100660007D4404E02046016808448047241DAC42D4
:10067000F8D170BD489E0000489E000010B500F003
:1006800055F8006810BD10B5044600F04FF804603E
:1006900010BD2DE9F041074615460E46102000F02A
:1006A00049F804000AD06760C4E9026500F03AF82E
:1006B0000168216004600020BDE8F0810120FBE7B3
:1006C00010B5203AC0F00B80B1E81850A0E81850DF
:1006D000B1E81850A0E81850203ABFF4F5AF5FEA2F
:1006E000027C24BFB1E81850A0E8185044BF18C9D4
:1006F00018C0BDE810405FEA827C24BF51F8043B7B
:1007000040F8043B08BF7047D20728BF31F8023BCE
:1007100048BF11F8012B28BF20F8023B48BF00F862
:10072000012B704700487047C00000200048704708
:100730008800002070B5064600F090F8056806F1C4
:100740000B0020F00704B4429CBF002070BD2B4674
:100750006A68BAB11068A04210D304F10801884257
:100760003CBF5068586007D3516810194160116848
:10077000091B016058601460101D70BD134652685B
:10078000002AE7D12146284600F070F80028DED183
:1007900070BD00001FB584B000200A9C06AB04AAFF
:1007A00002A90094AFF3008018B1DDE9020108B09E
:1007B00010BD0348204000F0D3F800200146F6E7C2
:1007C0000000207C2DE9F0410646FFF7ABFF804694
:1007D000454613E016B1E068B0420ED120682860AB
:1007E000D4E90101D8F800708847204600F088F865
:1007F000D8F80000B842EBD100E025462C68002C68
:10080000E8D1BDE8F0810000004870478800002072
:100810007546FFF7F9FFAE4605006946534620F0DE
:100820000700854618B020B5FFF726FDBDE820403B
:100830004FF000064FF000074FF000084FF0000B9C
:10084000AC46ACE8C009ACE8C009ACE8C009ACE80B
:10085000C00921F007018D4670470000004870472D
:1008600090000020704770477047704738B50446C5
:100870000A4600206946AFF30080002808BF38BD53
:1008800002460099204600F072F8012038BD012090
:1008900000F0E2B8F8B5AFF30080054600200C4642
:1008A000102000BF0646A819A0420DD9324669465D
:1008B0000020AFF30080070008BF00F0CDF80098DB
:1008C000A04218BF0546C419FFF7C8FF05600746D8
:1008D000F01D20F007004619284600F00AF8B4423F
:1008E00008BFF8BDA21B31463868BDE8F84000F0EB
:1008F0003EB800210160C0E9011070471020704728
:1009000070B50446051FFFF7A9FF0068002C14BF4F
:10091000446870BD002C18BFAC423CBF20466468E0
:10092000F8D301680A18AA4218BF456003D12A68A3
:1009300005461144016028684119A1421CBF6C6042
:1009400070BD6168696021680844286070BD10B599
:100950000446AFF300802046BDE81040FFF778BCA6
:1009600010B500F023F8BDE8104000F01AB80346B7
:1009700040688C46002818BF88423CBF0346406848
:10098000F8D318681844884207D00CF1030020F00F
:100990000700001D411A521A0146081D0A60FFF7A0
:1009A000AFBF002801D000F05FB8704710B5022833
:1009B00003D0410103D50DA112E0002010BD0101BB
:1009C00001D50FA10CE0C10001D511A108E0810003
:1009D00001D512A104E0400001D513A100E00021DF
:1009E00015A000F048F8012010BD0000496E7661A6
:1009F0006C6964204F7065726174696F6E000000ED
:100A0000446976696465204279205A65726F0000F6
:100A10004F766572666C6F7700000000556E6465F6
:100A200072666C6F77000000496E657861637420B0
:100A3000526573756C7400005349474650453A201F
:100A400041726974686D6574696320657863657067
:100A500074696F6E3A20000010B500F025F8BDE80B
:100A60001040FFF79EBF000001491820ABBEFEE713
:100A700026000200704770B505460C460A2000E0CB
:100A80006D1C00F039F835B128780028F8D102E063
:100A9000641C00F031F814B120780028F8D1BDE8CA
:100AA00070400A2000F028B810B5012805D00021B8
:100AB00003A0FFF7E0FF012010BD09A1F8E7000047
:100AC00053494752544D454D3A204F7574206F6637
:100AD0002068656170206D656D6F7279000000009F
:100AE0003A2048656170206D656D6F727920636F83
:100AF000727275707465640008B569468DF80000FF
:100B00000320ABBE08BD000040F23C04C2F200046A
:100B100005F0C2FE04F092FD04F0DCFD02F0ACF939
:100B200004F042FE00F07CF904F030FE206A8047B9
:100B300005F0D6FE002005F0D1FFE9E710B540F240
:100B4000EC04C2F2000420780130C1B263292070A5
:100B500024D840F2F470C2F2000090ED000A9FED3C
:100B6000111AB4EE410AF1EE10FA08DD9FED101AE9
:100B700030EE010A80ED000AFFF7E0FF0EE09FED86
:100B80000A1AB4EE410AF1EE10FA07DA9FED071ADD
:100B900030EE010A80ED000AFFF7D0FF207801381F
:100BA000207010BD00003443000034C30000B44383
:100BB0000000B4C3FEE700008EB040F2F00BC2F2BA
:100BC000000B0DF1140840F2252940F2013A0DE026
:100BD00006AF8ECFDDE90A65DDE90C4CCDE9007684
:100BE000CDE90254CDF810C002F05CFEDBF8000045
:100BF00041464FF0FF3206F041FA0598B0F5407FCC
:100C000014DCB0F5017F2BD04845EFD106AFCECF35
:100C1000DDE90B54DDF834C0CDE90067CDE90254BD
:100C2000CDF810C000F02EFAE0E700BF5045CFD05D
:100C3000B0F5C06FDAD140F23C01C2F2000106AE5D
:100C4000D1F82CC04ECEDDE90A54DDE90C7ECDE9A9
:100C5000006502940397CDF810E0E047C6E700BFB7
:100C600006AF8ECFDDE90A65DDE90C4CCDE90076F3
:100C7000CDE90254CDF810C002F024FBB6E7000025
:100C800080B540F67400C2F2000000F089FC80BD1F
:100C90008EB040F2F808C2F200080DF1140909E024
:100CA00006AFEECFDDE90C4C8DE8E000CDE9034C5A
:100CB00002F0C4FAD8F8000049464FF0FF3206F0BF
:100CC000DDF90598A0F201210329E9D9A0F2052157
:100CD0000329EFD806AF8ECFDDE90A65DDE90C4CBC
:100CE000CDE90076CDE90254CDF810C002F012FB38
:100CF000E0E7000080B540F69C00C2F2000000F082
:100D00004FFC80BD10B58AB0002040F67404CDE9D8
:100D100005000121CDE90000CDE9020004900E207C
:100D2000C2F20004CDE9071109906946204600F09F
:100D300037FB204600F098FE2046022100F0CAFA58
:100D40000AB010BD10B58AB00E2040F69C04059084
:100D500000200121C2F200040690CDE90000CDE997
:100D600002000490CDE907116946204600F018FB07
:100D7000204600F079FE2046022100F0ABFA0AB0CE
:100D800010BD000082B006F003FB01AC019000BF73
:100D900000F042F82046022105F04CFEF8E7000082
:100DA00080B586B000910021CDE90211082104919F
:100DB0006946012300F0A2FA06B080BD002808BFF2
:100DC000704780B541F29C2C0A28C2F2000C0BD26D
:100DD000ACF101020123092102F8013F013903F1BD
:100DE0000103F9D100210CE0ACF1010E012309212E
:100DF00003F164020EF8012F013903F10103F7D169
:100E000001218CF8090000F580708CF80A10ACF80C
:100E10000B00BDE88040704780B500F087F980BDC9
:100E200040F2B0504AF6FC1C48F6310241F62F530E
:100E300045F69301C2F20000C4F2E82CC4F2EA22A3
:100E4000C4F2EE23C4F2ED21C0F8B4C0426743639C
:100E5000C0F8F41040F2D460C2F20000C0F838C00C
:100E6000C2610360416541F2B320C2F2000001217A
:100E70000170704740F2E04C6FF01B00C2F2000CB2
:100E8000002200BF0CEB0003598E1C30002918BF54
:100E90000121542883F834105A86F3D1704700009A
:100EA00040F2B05C6FF03F00C2F2000C002200BFC5
:100EB0000CEB0003B3F86A104030002918BF012181
:100EC000C02883F86C10A3F86A20F1D170470000A5
:100ED00040F21030C2F20000018DB1FA81F14909EF
:100EE00080F82A10002101857047000040F2505020
:100EF000C2F20000C18A002918BF01210176002139
:100F0000C182704740F2B460C2F2000000218181CA
:100F1000012181737047000040F23C00C2F20000E2
:100F2000018AB1FA81F14909817400210182704777
:100F3000401A41F6FF71B0F5805FC4BF401A704798
:100F400010F5805FB8BF08447047000082B006F01B
:100F50001FFA40F2103540F20406C2F20005C2F258
:100F6000000601AC019000BFFFF7B2FF95F82A0020
:100F70000138B0FA80F04009F077FFF7CDFFFFF7B6
:100F8000C1FFFFF78DFFFFF775FFFFF7AFFF2046AB
:100F9000C82105F04FFDE7E780B540F62410C2F206
:100FA000000000F0EFFD80BD80B540F68410C2F275
:100FB000000000F0E7FD80BD80B540F6C400C2F23D
:100FC000000000F0DFFD80BDD0F800C06FF00F0220
:100FD0004AF6AB2352FA8CF2CAF6AA230146A2FBC8
:100FE0000330000905A31B5C40F2FF302CEA00002F
:100FF0005F2A88BF0430C1E9160370470006101647
:10100000000610168269816AB2F5005F06D06AB9DF
:10101000022912D0012914D0D1B90EE0032917D822
:10102000DFE801F0020B020F0120704703293CBFEB
:10103000012070471CBF00207047C06AC0F30060E9
:101040007047C06AA0F1C070B0FA80F040097047E4
:101050000020704780B5D0F800C0D0F808E0DCF878
:101060000000BEF1400F20F48020CCF800000846BC
:10107000CCF8043004BF10460A46CCF80800CCF87F
:101080000C2080BD2DE9F04381B0DDE90B2140F259
:10109000D02602F47F40C2F3074502F00F03C2F3EB
:1010A00003172844150D0A09C1F307249FED1D0AF3
:1010B000DFED1D0AC1F307494FEA1168C2F20006CD
:1010C00062F3030561F30B241021C6E90037C6E97A
:1010D0000205346105F064FB86ED070ABBEE0E0ADB
:1010E000F3EE0E0A28460C2105F05AFB86ED090A9C
:1010F000BAEE040AF2EE040A20460C2105F050FB79
:1011000086ED0A0A00EE109A01EE108AB8EE400A47
:10111000B8EE411A86ED0E0A86ED0F1A01B0BDE851
:10112000F08300BFC3F548C0C3F5484070B586B032
:101130000020CDE902000820049040F275100090D4
:1011400040F2E040C2F2000090F8342090F85030B5
:1011500002F00102017E520190F86C0063F3041268
:1011600042EAC11100F00100C9B241EA801040F228
:10117000B051C2F2000191F86C3091F8AC4091F896
:101180002C2003F0010391F8EC1040EA430004F036
:101190000103184402F0010240F2C87540EAC2009F
:1011A00001F0010140F20404C2F2000540EA8100AE
:1011B000C2F2000494F8201028706068697008F08A
:1011C00089FAD5F80220E98822F07F42060A42EA2D
:1011D00000600909C5F80200E06861F31F16EE809F
:1011E00008F078FA06F00F0141EA0010E880D5E92E
:1011F000001040F24032C2F20002C2E9001040F694
:101200007400C2F200006946002300F077F806B0CF
:1012100070BD000070470000EFF3108072B600BF91
:10122000FEE7000080B598B181B14AF2862C013802
:10123000C0F6000C10F801EFD3B283EA0E033CF8BD
:10124000133092B2013983EA1222F3D190B280BDF9
:101250004FF6FF7290B280BD40F25050C2F20000D3
:1012600090ED040A9FED1A1A40F2503CB4EE410A88
:10127000F1EE10FAC2F2000C0FDD40F24E32C2F273
:1012800000021388013399B2B1F5FA7F138004D9B3
:1012900001218CF80010002111809CF80010002919
:1012A00002BF40F2DC518181704740F24C32C2F201
:1012B0000002118801318BB211804FF62421B3F561
:1012C000967F818182BF00208CF8000010807047DB
:1012D0000020CB4590F82020013A012A04D800686C
:1012E00000F11402002004E000F1240201204FF478
:1012F00080211368194311607047000010B590F801
:1013000020E0D0F800C0AEF1010EBEF1010FDCF814
:1013100008E00DD81EF0E05F10D0CEF3016EBEF1F4
:10132000030F11D100F1240101204FF4000233E03A
:1013300000F1240101204FF480222DE000F124016E
:1013400001204FF4001227E0012000FA0EF018608F
:10135000886818B14B6840EAC30001E0086840059E
:10136000D1E9033403430CEB0E10C0F88031C0F810
:101370008441097D012905D100F5C2710B6843F450
:1013800080730B605168C0F88C11126800F5C07151
:10139000C0F88821002001220B681A430A6010BDA2
:1013A000B0B590F82020013A012A2FD846F200600B
:1013B000C4F20000026842F001020260026822F4F6
:1013C0007C520260D1F814E0CC694A6A0368012CAF
:1013D00043EA022202600EF01F024FF0010303FAFB
:1013E00002F2C3696FEA020C23EA0203C36113D05D
:1013F0002CBBC36803EA0C03C360CB688C8844EA47
:10140000034300EBCE0423640B4611E0416A41F430
:10141000802141620120B0BDC3681343C3600B68E3
:101420008C8844EA034300EBCE04236401F10C03EF
:101430008C681B8843EA044300EBCE046364436872
:101440008D6943EA0204D1F810E0096A002D08BF53
:1014500003EA0C0444604369BEF1000F43EA02044E
:1014600008BF03EA0C040129446102D1C169114398
:10147000C161016821F0010101600020B0BD0000E0
:101480007047000010B590F82040013C012C0CD8AA
:10149000D0F800C079B1DCF81040A4070FD100F1FA
:1014A000240101204FF4001270E000F1240101201A
:1014B0004FF480226AE0DCF80C40A4076AD004688C
:1014C00004EB011CDCF8B0410CF5D87E14F00404E8
:1014D0009460DCF8B04119BFE4085460640D1460F6
:1014E000DEF80040002904F00204D460DCF8B441C6
:1014F00004F00F041461DCF8B441C4F307249461D0
:10150000DCF8B4414FEA14445461DCF8B8211A7095
:10151000026802EB0112D2F8B8214FEA12225A7087
:10152000026802EB0112D2F8B8214FEA12429A7017
:10153000026802EB0112D2F8B8214FEA1262DA70A7
:10154000026802EB0112D2F8BC211A71026802EBA8
:101550000112D2F8BC214FEA12225A71026802EB42
:101560000112D2F8BC214FEA12429A71026802EBD2
:101570000112D2F8BC214FEA1262DA71006814BF7E
:1015800000F1100100F10C01002020220B681A4329
:101590000A6010BD00F1240101204FF40012F5E7AC
:1015A0002DE9F04F81B0044600684669D0F80490F8
:1015B0008768D0F80CB0D0F810A0D0F81880F107E8
:1015C00003D1002530071CD423E0F90710D00121F6
:1015D000BA07816009D4780700F1AA80380700F1C2
:1015E000B080204600F06EFA02E0204600F06CFA6F
:1015F0000025F80500F18480F80300F1AA80300787
:1016000007D51BF0100004D0206845F400751021A8
:10161000C160700708D51BF0080005D020680821BC
:10162000C160204600F0E4F9B00706D52068C06824
:10163000800702D0204600F0DDF9700607D51AF0C9
:10164000100004D0206845F4806510210161B006C7
:1016500008D51AF0080005D020680821016120464D
:1016600000F0FCF9F00606D520680069800702D07A
:10167000204600F0F5F9B00308D519F0100005D0A8
:10168000206810214160204600F0ECF9F00308D5F5
:1016900019F0080005D0206808214160204600F0BC
:1016A0001DFA300440F18F805FEA497040F1888074
:1016B00006F4807008EA102028435FEA887101462A
:1016C00048BF41F00201B20558BF01465FEA4870C9
:1016D0000D4648BF45F00405700558BF0D4630055E
:1016E0006ED518F070006BD010380009052862D84C
:1016F000DFE800F0035356595C5F45F008055AE0F7
:1017000020684FF48071BA0581600AD4780512D43C
:10171000380519D4204600F0D9F9F8037FF56FAFEA
:1017200017E0204600F0D4F9F8037FF568AF10E029
:101730004FF400655DE705F50055F8037FF55FAFF1
:1017400007E04FF4805554E705F58045F8037FF531
:1017500056AF20684FF48031BA0381600AD4780311
:101760000FD4380313D4204600F0B4F930073FF506
:1017700048AF4EE7204600F0AFF930073FF541AFE4
:1017800047E705F5004530073FF53BAF41E705F575
:10179000803530073FF535AF3BE745F010050AE0EF
:1017A00045F0200507E045F0400504E045F08005E0
:1017B00001E045F480752068816921F07001816144
:1017C0002068042141602DB1606A28436062204690
:1017D000FFF756FE01B0BDE8F08F0000B0B5C8B10C
:1017E000044690F8200010B9204600F071F82068F7
:1017F000016841F00101016000F0E2FB054600BF15
:1018000020684168C90707D100F0DAFB401B0B28AC
:10181000F6D312E00120B0BD016821F002010160A1
:1018200000F0CEFB054600BF2068416889070DD552
:1018300000F0C6FB401B0B28F6D3606A052140F47C
:1018400000306062012084F82010B0BD217E026863
:10185000012922F0800208BF80320260617E0268A6
:10186000012922F0400208BF40320260A17E0268D6
:10187000012922F0200208BF20320260E17E0268C6
:10188000012922F0100218BF10320260217F026885
:10189000012922F0080208BF08320260617F026855
:1018A000012922F0040208BF04320260D4E901C217
:1018B000D4E9033561691A432A431143ACF10102AB
:1018C0001143C16100200121606284F82010B0BD85
:1018D00010B586B0006846F60002C4F2000200218E
:1018E0009042CDE90411CDE90211019134D046F2C4
:1018F0000041C4F20001884278D140F25431C2F272
:1019000000010A6843F64000C4F20200531C0B6059
:1019100052B900210091016841F000710160016835
:1019200001F00071009100990021009150F8101C05
:10193000142441F0080140F8101C50F8100C00F07D
:101940000800009000980320019040F20040C4F28B
:10195000020000F5006036E043F64000C4F20200E9
:101960000091016841F080610160016801F08061CF
:101970000091009940F25431C2F200010A68531CF0
:101980000B6052B900210091016841F000710160C3
:10199000016801F00071009100990021009150F858
:1019A000101C402441F0020140F8101C50F8100CAB
:1019B00000F00200009000984FF44050019040F277
:1019C0000040C4F202000221029100210391032190
:1019D00004910921059101A900F024FA204605216E
:1019E000002200F09DFB204600F096FB06B010BDE3
:1019F0007047000010B5016846F60002C4F200020C
:101A0000914215D046F20042C4F20002914218BF42
:101A100010BD40F20414C2F2000404F11C030021C2
:101A20002246FFF72FFD40F2F000C2F200000DE069
:101A300040F22814C2F2000404F11C0300212246E3
:101A4000FFF720FD40F2F800C2F2000000682146D6
:101A50000022002305F0AAFA10BD00007047000024
:101A60007047000070470000B0B5044690F82000B1
:101A700001281DD1022084F820002068016821F08F
:101A80000101016000F09CFA054600BF2068406833
:101A9000C00713D000F094FA401B0B28F6D3606AFD
:101AA00040F400306062052084F820000120B0BDC1
:101AB000606A40F4002060620120B0BD00206062D6
:101AC000B0BD000070470000704700007047000084
:101AD000704700007047000070470000704700002A
:101AE00070B5866D044600F06BFA94F83510022943
:101AF00025D105462068216C026822F0160202609A
:101B0000426922F08002426109B9A16C19B10168F1
:101B100021F008010160016821F00101016000BFAE
:101B200020680068C0070ED000F04AFA401B062863
:101B3000F6D320206065032084F835000CE0802077
:101B40006065012008E0E06D3F2101FA00F0B0601F
:101B5000012084F835000020002184F8341070BD85
:101B600090F83510022909D1052180F83510006858
:101B7000016821F00101016000207047802141656A
:101B800001207047F0B581B004460020009040F27B
:101B90007800C2F200000268D4E9166048F2B5137A
:101BA00037680821C1F64E3381403942A2FB032534
:101BB0000CD0226813685B0708D5136823F0040370
:101BC0001360B160616D41F00101616501218140E7
:101BD000394208D022685269120604D5B160616D9D
:101BE00041F00201616504218140394208D0226838
:101BF0001268920704D5B160616D41F0040161651E
:101C000010218140394215D020680268120711D591
:101C1000B16002680168520306D4C90506D40168A0
:101C200021F00801016001E0080342D4216C09B1F0
:101C300020468847E16D202000FA01F23A4244D064
:101C400020680368DB0640D5B26094F8353002683E
:101C5000052B1ED122F016020260426922F080029A
:101C60004261226C0AB9A26C1AB1026822F0080221
:101C700002603F208840B060012084F83500216D6B
:101C80000020002984F8340040D02046884701B065
:101C9000F0BD0168520310D4C90512D4016821F0C7
:101CA00010010160012084F83500002084F8340020
:101CB00007E0A16C0029BBD1BCE7080301D4616C2B
:101CC00000E0E16B09B120468847606DF0B1606DBE
:101CD000C00717D0052084F835002068A90A0268DB
:101CE00022F00102026000BF009A01328A42009293
:101CF00002D80268D207F7D1012084F8350000200D
:101D000084F83400E16C09B12046884701B0F0BD89
:101D10002DE9F041044600F053F9C4B10546022014
:101D200084F835000020216884F83400086820F029
:101D30000100086026683068C0070BD000F040F949
:101D4000401B0528F6D903212022032042E0012070
:101D5000BDE8F081306848F23F01CFF21001251D47
:101D600000EA010C2ECDD4E9050E41EA0C01114325
:101D700019432943D4E90778084340EA0E01606A11
:101D80003943042841EA080103D1D4E90B23114364
:101D9000194331607169042821F0070141EA000507
:101DA0000CD1D4E90A1045EA010538B12046FFF705
:101DB00029F918B10121402201200BE0204675616C
:101DC000FFF702F9E16D3F2202FA01F18160002282
:101DD00001210020626584F83510BDE8F081000023
:101DE000B0B5044690F83400012818D0012084F8DA
:101DF000340094F8350001280ED1022084F8350013
:101E0000002520466565FFF725F92068016841F047
:101E1000010101602846B0BD002084F83400022092
:101E2000B0BD00002DE9F04F83B000F13E4202F159
:101E3000FF724FEAB22242F200470192C4F2020757
:101E40000A224FF0010E00254FF0000A4FF0000863
:101E5000B84208BF092200920AE000BF08F1010859
:101E60000AF1040AB8F1100F05F1020500F0A48090
:101E70000C680EFA08FB14EA0B09EFD04C6804F06A
:101E8000030CACF1010EBEF1010F11D803228768DB
:101E900002FA05F6CA68B743AA403A43826042682C
:101EA000C4F3001722EA0B0207FA08F73A4342602C
:101EB000BCF1030F1CD0C26803238E6803FA05F738
:101EC000BA4306FA05F73A43BCF1020FC2600FD1DC
:101ED0006FF0030202EA580202440AF01C060F23C4
:101EE000176A03FA06F40B69A743B3403B43136236
:101EF000026803234F68AB409A4307F00303AB40EB
:101F00001A4317F4403F4FF0010E0260A6D00022A2
:101F100043F644030292C4F202031A6843F60044F3
:101F200042F480421A601A68C4F2010402F480424A
:101F30000292029A28F003024FF6084B2244CFF691
:101F4000FF7B52F80B300AF00C070F26BE4023EA45
:101F5000060C019B009E092B38BF1E4606FA07F7A8
:101F600047EA0C0342F80B30A2684B6842EA0907C3
:101F700043F60C4CDE0258BF22EA0907A760C4F200
:101F8000010CDCF800209E0242EA090758BF22EA51
:101F90000907CCF8007062689E0342EA090758BF3F
:101FA00022EA090767602268DB0342EA090358BF97
:101FB00022EA0903236051E703B0BDE8F08F000077
:101FC00046F66060C2F200000068704740F27E0092
:101FD00046F66061C2F20000C2F2000100780A68B1
:101FE000104408607047000080B543F60040C4F21A
:101FF0000200016841F400710160016841F48061F0
:102000000160016841F480710160032000F098F8DC
:102010000F2000F005F800F05BF8002080BD000004
:1020200070B586B0002543F640010195C4F2020167
:102030000A68044642F010020A60096801A801F02B
:10204000100101910199694600F02EF9049E002EBD
:1020500018BF012600F04EF94DF68361B040C4F27E
:102060001B31A0FB01014FF0FF3000EB914140F626
:10207000E41041F20002C2F20000C4F2000240F299
:10208000E733C0E90021C0E902530561856100F032
:1020900031FB0546C0B940F6E410C2F2000000F082
:1020A00059FB054680B9362000F036F80F2C0AD8C7
:1020B00036202146002200F033F840F28000C2F2C0
:1020C0000000046000E00125284606B070BD000055
:1020D00080B582B0002043F640010190C4F20201B5
:1020E0004A6842F480424A604A6802F4804201929F
:1020F000019A00900868002240F08050086008684B
:102100000F2100F08050009000986FF0010000F067
:1021100007F802B080BD000080B503F029FA80BD49
:1021200070B514460D46064603F032FA294622469B
:1021300001F06EFB0146304603F032FA70BD00003C
:1021400080B503F03FFA80BD2DE9F041002800F092
:102150008B8043F60808C4F202080446D8F8F80356
:102160000D4600F00F00884207D288F8F853D8F8DF
:10217000F80300F00F00A84276D12068810717D538
:10218000410705D5D8F8001041F4E051C8F8001017
:10219000010705D5D8F8001041F46041C8F80010D7
:1021A000D8F80010A26821F0F0011143C8F800101F
:1021B000C0073FD1D8F8F80300F00F00A84207D9B4
:1021C00088F8F853D8F8F80300F00F00A8424BD174
:1021D0002068410707D5D8F80010E26821F4E051E3
:1021E0001143C8F80010000708D5D8F8000021698D
:1021F00020F4604040EAC100C8F8000000F09EF8FA
:10220000D8F800104AF20822C1F30311C0F6000208
:10221000515C40F2780220FA01F140F28000C2F2F3
:1022200000000068C2F200021160FFF7F9FE002012
:10223000BDE8F0816068811E022907D258F8081CA9
:1022400089015CBF0120BDE8F08110E0012807D1C1
:1022500058F8081C89035CBF0120BDE8F08106E046
:1022600058F8081C890702D40120BDE8F081D8F88D
:10227000001021F003010843C8F80000FFF7A0FE9A
:10228000064641F2883700BFD8F80000616800F0C8
:102290000C00B0EB810F8DD0FFF792FE801BB8428F
:1022A000F2D90320BDE8F0810F22026043F6080254
:1022B000C4F20202136803F003034360136803F0DF
:1022C000F0038360136803F4E053C360D2F800C0E6
:1022D0004FF4E05303EADC030361D2F8F80300F0A3
:1022E0000F0008607047000040F27800C2F2000062
:1022F0000068704780B5FFF7F7FF43F60801C4F2A6
:10230000020109684AF21822C1F38221C0F60002D4
:10231000515CC84080BD000080B5FFF7E5FF43F683
:102320000801C4F2020109684AF21822C1F34231DD
:10233000C0F60002515CC84080BD000010B543F6F5
:102340000404C4F20204606800F00C0008280AD0FB
:10235000042819BF42F20040C0F2F40041F60030F8
:10236000C0F2B70010BD206821682368490241F619
:102370000031C0F2B70100F03F02C3F388105CBF28
:1023800042F20041C0F2F401A1FB00010023FEF77C
:1023900077F821680222C1F3014102EB4101B0FB51
:1023A000F1F010BD2DE9F04182B0002800F0A280CC
:1023B0000446007843F60006C007C4F2020643D084
:1023C000B06800F00C00042805D1306880033BD5CC
:1023D0006068C8BB8EE0B06800F00C00082802D12D
:1023E00070684002F1D46568B5F5A02F0AD0B5F544
:1023F000803F0BD0306820F480303060306820F4AB
:10240000802006E0306840F480203060306840F47E
:1024100080303060FFF7D4FD002D054611D000BF9D
:102420003068800310D4FFF7CBFD401B6428F7D938
:1024300022E100BFFFF7C4FD401B64284FF00300FA
:1024400055D830688003F5D4207880071AD5B06855
:1024500010F00C0F09D0B06800F00C00082840F014
:102460008A807068400200F186803068800702D55B
:10247000E06801283ED13068216920F0F80040EA88
:10248000C10030602078000738D4207840074CD451
:10249000A5695DB3B06800F00C00082840F09E808C
:1024A000012D27D07068E16900F480028A4221D1B1
:1024B000216A00F03F028A421CD147F6C071626A6D
:1024C0000140B1EB821F15D1A26A0023CFF6FF7342
:1024D00003EBC23200F440316FF30F02914209D195
:1024E000E16A00F07060B0EB016F03D1002002B030
:1024F000BDE8F081012002B0BDE8F08160690028EC
:1025000040F20000C4F2472057D00121C0F8801EDD
:10251000FFF756FD054600BF706F8007B5D4FFF783
:102520004FFD401B0228F7D9A6E0306C10F0805810
:102530000AD100200190306C40F080503064306C43
:1025400000F080500190019847F20007C4F20007A4
:102550003868C00524D4386840F480703860FFF7CC
:102560002FFD05463868C0051AD4FFF729FD401B2A
:102570000228F7D980E0E068002851D00020C4F29A
:10258000472001210160FFF71BFD054630688007E9
:102590003FF571AFFFF714FD401B0228F6D96BE041
:1025A000A568052D50D0012D52D0306F20F00100CC
:1025B0003067306F20F004004DE00021C0F8801E2D
:1025C000FFF7FEFC054600BF706F80077FF55DAF2B
:1025D000FFF7F6FC401B0228F6D94DE00027C4F2B5
:1025E000472700203866FFF7EBFC022D05460BD18C
:1025F0003068800158D5FFF7E3FC401B02284FF0FC
:102600000300F5D973E700BF306880017FF56EAF36
:10261000FFF7D6FC401B02284FF00300F4D966E711
:102620000020C4F2472000210160FFF7C9FC0546E5
:10263000306880077FF526AFFFF7C2FC401B0228F9
:102640004FF00300F4D952E7306F40F004003067D8
:10265000306F40F001003067FFF7B2FC002D0546F7
:1026600041F2883714D000BF306F800713D4FFF7D2
:10267000A7FC401BB842F7D9032002B0BDE8F081A7
:10268000FFF79EFC401BB8424FF003003FF62FAF10
:10269000306F8007F4D4B8F1000F7FF4F9AE306CDE
:1026A00020F080503064F3E604F11C052FCD084380
:1026B0000021CFF6FF7140EA821001EBC3316FF3C6
:1026C0000F0140EA05600843706001203866FFF79B
:1026D00077FC0446306880013FF508AFFFF770FCD7
:1026E000001B02284FF00300F4D900E770470000F8
:1026F00070470000002804BF0120704710B5044651
:1027000090F83D0028B9002084F83C00204600F0F5
:102710001FF8022084F83D002068211D02F042FAD3
:10272000012084F8460084F83E0084F83F0084F8D5
:10273000400084F8410084F8420084F8430084F8A3
:10274000440084F8450084F83D00002010BD0000DE
:102750007047000090F83D1001291CBF0120704710
:10276000022180F83D10006841F2FF72C168C4F296
:102770000002904241F00101C1600DDC40F2FF71A6
:10278000C4F20001884215DCB0F1804F29D040F23C
:102790000041C4F2000122E040F2FF31C4F2010125
:1027A000884212DC41F60001C4F20001884218D0D0
:1027B000002112E040F60001C4F20001884210D06E
:1027C00040F60041C4F2000109E044F20001C4F205
:1027D0000101884205D040F20041C4F20101884263
:1027E00006D1816801F00701062904BF0020704767
:1027F000016841F00101016000207047704700004E
:1028000010B5044600680169890744BFC1685FEAE2
:10281000817138D420680169490744BFC1685FEA03
:1028200041713CD420680169090744BFC1685FEA6F
:10283000017141D420680169C90644BFC1685FEADB
:10284000C16145D420680169C9071CBFC1685FEA3E
:10285000C1714AD120680169090644BFC1685FEAB5
:10286000016149D420680169490644BFC1685FEA33
:10287000416148D420680169890644BFC1685FEAA4
:10288000816147D410BD6FF0020101610121217700
:102890008069800745D02046FFF7B0FF47E06FF022
:1028A0000401016102212177806910F4407F41D049
:1028B0002046FFF7A3FF43E06FF008010161042108
:1028C0002177C06980073ED02046FFF797FF40E0A0
:1028D0006FF01001016108212177C06910F4407F79
:1028E0003AD02046FFF78AFF3CE06FF0010101611A
:1028F000204600F03FF8ADE76FF08001016120460F
:10290000FFF7F4FEAEE76FF040010161204600F0F2
:102910003DF8AFE76FF0200101612046FFF7E8FEC8
:1029200010BD204600F022F8204600F021F80020DB
:1029300020776FE7204600F019F8204600F018F8DD
:10294000002020776EE7204600F010F8204600F0C7
:102950000FF8002020776DE7204600F007F82046AA
:1029600000F006F8002020776CE7000070470000B8
:102970007047000080B5006841F20001C4F2000118
:10298000884208BFFFF722FB80BD000070470000AF
:102990007047000070470000B0B582B0036804467D
:1029A0001868D9685A6900F02F05202D01F020051C
:1029B00005D125B1204602F0E5F902B0B0BD5FEACD
:1029C000007C1EBF02F0010E01F4907212EB0E02A9
:1029D00048D1226B0840C1063BD5012A39D10020DD
:1029E0000190186801905868019001985869400654
:1029F00040D4A08DE18DE28D002A1CBF401A5FEA11
:102A0000004101D102B0B0BD216851E8031F226826
:102A100021F4907142E80313002BF5D1216851E8AD
:102A2000051F226821F0010142E80513002BF5D1B2
:102A3000202184F83E100021216300BF216851E865
:102A4000031F226821F0100142E80313002BF5D187
:102A500052E0010656D44006D4D5204602F086F94D
:102A600002B0B0BDC20718BF11F480724FD1420747
:102A700053D459E0A06B016849688AB2002AC1D0DA
:102A8000A38D9A42BED2E185C069B0F5807F30D077
:102A9000206850E8030F216820F4807041E80302A9
:102AA000002AF5D1206850E8050F216820F00100C8
:102AB00041E80502002AF5D1206850E8050F216899
:102AC00020F0400041E80502002AF5D1202084F8DA
:102AD0003E000020206300BF206850E8030F2168FB
:102AE00020F0100041E80302002AF5D1A06BFEF7A8
:102AF000F7FFA08DE18D401A81B22046FFF748FF15
:102B000002B0B0BD204602F00DFA02B0B0BD226C9A
:102B100042F001022264420706D5BEF1000F03D045
:102B2000226C42F002022264820706D5BEF1000F39
:102B300003D0226C42F004022264BCF1000F06D5DF
:102B40005EEA050203D0226C42F008022264226C85
:102B5000002A3FF457AF0840800602D5204602F015
:102B600011F920684069216C00F0400001F0080173
:102B7000401827D0204602F0D1F82068406940066E
:102B80001BD500BF206850E8050F216820F04000E9
:102B900041E80502002AF5D1A06B70B144F60D5151
:102BA000C0F600010165FEF7DBFF00283FF42AAF05
:102BB000A06B016D884702B0B0BD2046FFF7EAFE6A
:102BC00002B0B0BD2046FFF7E5FE0020206402B051
:102BD000B0BD0000002804BF0120704710B50446B6
:102BE00090F83D0028B9002084F83C00204600F011
:102BF00021F8242084F83D002068C16821F40051A8
:102C0000C160204602F020F92068016921F490415A
:102C10000161416921F02A014161C16841F400511B
:102C2000C16000202021206484F83D1084F83E100B
:102C300010BD00002DE9F04387B00446006844F65B
:102C40000001C4F2000100268842CDE90566CDE905
:102C5000036602963CD041F20001C4F201018842B1
:102C600000F0AB8047F60001C4F20001884240F05A
:102C7000A180002043F630010190C4F202010A69EC
:102C800042F080420A610A6902F080420192019A90
:102C900001900A6842F010020A60096801F0100110
:102CA000019101994FF4C07102910221CDE9031005
:102CB000032005900820069040F20040C4F2020074
:102CC00000F5406002A9FFF7ADF807B0BDE8F0835A
:102CD00043F630000196C4F20200016946F228086A
:102CE00041F4802101610169C4F2020801F48021EC
:102CF000019101990196016841F0080101600068A5
:102D000002A900F00800019001984FF44070029071
:102D10000220CDE90306032005900720069040F22B
:102D20000040C4F2020000F50060FFF77BF840F6B7
:102D30002415C2F200054FF480704FF000674FF485
:102D40008069C5E906602846C5E90087C5E90266CD
:102D5000C5E90496C5E90866FEF7DAFF002818BF42
:102D6000FEF75AFAA563AC6340F6841508F130000B
:102D7000C2F200054021C5E9000705F10800002264
:102D800080E806024FF44030C5E908022846C5E94C
:102D90000522EA61FEF7BCFF002818BFFEF73CFAE7
:102DA0002720052100226563AC63FFF7B9F92720CE
:102DB000FFF7B2F907B0BDE8F083002643F6300014
:102DC0000196C4F20200416941F01001416141697C
:102DD00001F01001019101990196016841F0020191
:102DE0000160006802A900F0020001900198C02073
:102DF00002900220CDE903060320059007200690EB
:102E000040F20040C4F20200FFF70CF846F228003E
:102E1000C4F2020040F6C40500F58360C2F200056A
:102E20004FF0006185E843004FF440304FF480627A
:102E30004FF48073C5E908062846C5E90362C5E971
:102E40000566EB61FEF764FF002818BFFEF7E4F9A2
:102E5000252005210022A563AC63FFF761F9252039
:102E6000FFF75AF907B0BDE8F08300007047000093
:102E700070470000FEE7000080B582B0002001909E
:102E800040F67020C2F2000001680A6801924A68A8
:102E90000192019ACA6842F40052CA60CA6842F0BC
:102EA0001002CA6040F25831C2F2000140F28512AD
:102EB00002F0B8F802B080BD2DE9F04F81B00028D3
:102EC00000F0AB8040F2583640F6440840F6540912
:102ED00040F2F87A04460025C2F200064FF0010BDA
:102EE000C2F20008C2F20009C2F2000A02E0A542E2
:102EF00080F29380705DA5280CD17719B7F8050092
:102F0000A0F2012107291FD8DFE801F006370404E9
:102F100004044B730135EAE73846162102F0A6F89F
:102F20000028F7D0F87CD7F80B1088F80C00D7F8F9
:102F30000700D7F80F2088E80700C0B21635FDF764
:102F40003DFF88F80EB0D2E740F2023188423CD013
:102F50000328DFD13846292102F088F80028D9D08B
:102F6000F91D40F62007C2F2000738462022FDF77F
:102F700004FB293587F820B0B9E73846192102F05B
:102F800075F80028C6D0D7F80700D7F80B10D7F887
:102F90000F20D7F8133089E80F00193589F810B0E1
:102FA000A5E73846102102F061F808B3D7F80A0007
:102FB000D7F8071040F66802C2F20002C2F8030018
:102FC0001160103582F808B013E03846272102F06E
:102FD0004DF800289ED0F91D40F60007C2F2000708
:102FE00038461E22FDF7C9FA273587F81EB07EE75E
:102FF0000135771938460F2102F038F800283FF4E0
:1030000089AFB7F80B00D7F80710AAF80400CAF880
:1030100000100F358AF806B069E701B0BDE8F08FFF
:1030200070B588B040F64401C2F2000149894FF6FC
:10303000FF72002091420790CDE90500CDE9030021
:10304000CDE9010000906DD040F2847640F28071AD
:1030500040F2E274C2F20006C2F200016FF0010217
:10306000C2F2000430600860A318B3F902300232E3
:1030700003EBE33585EAE3330E2A10FA83F0F3D14C
:1030800040F25132C2F2000212780860002A306029
:1030900054D0B4F90010B4F90220B4F9043000EEB1
:1030A000101A01EE100AB8EEC00AB8EEC11A02EE0C
:1030B000102A80EE010AB8EEC22A03EE103A82EE20
:1030C000012AB8EEC33A83EE013AB4F9065004EE91
:1030D000105AB8EEC44A84EE011A9FED364A20EE2B
:1030E000045A8DED005A22EE045A8DED015A23EE5A
:1030F000045A8DED025A9FED305A20EE050A8DEDEF
:10310000040A22EE050A8DED050A23EE050A21EEDA
:10311000044A8DED060A21EE050A8DED034A8DED78
:10312000070A2DE040F28070C2F20000006840F211
:103130008471C2F20001086008B070BD00EE100A90
:103140006846B8EEC00A00F10C02A01D042100BFC1
:1031500030F9023F013930F9085C02EE103A01EE15
:10316000105AB8EEC11AB8EEC22A81EE001A82EEE9
:10317000002A02ED031A82ED012A02F10402E7D1CE
:1031800000F01CF896ED000A6846B8EEC00A011F70
:103190006FF0010091ED011A231821EE001ABDEE27
:1031A000C11A0230043111EE102A0E285A80F1D1D2
:1031B00008B070BD6666E63FCDCC4C3E40F654008C
:1031C00040F64401C2F20000C2F20001B0F908006A
:1031D000498900EE100A01EE101AB8EEC00AB8EEE6
:1031E000411A80EE010A40F2B261C2F2000141F2DE
:1031F0007C120880C0F13C00C2F2000201B21080D3
:1032000040F24830C2F20000012920EE000A80EDB1
:10321000000AB8BF704740F28070C2F2000090ED23
:10322000001A40F28470B8EEC11A20EE010ABDEE19
:10323000C00AC2F2000080ED000A704780B5DDE9E7
:10324000052C40F2E043C0EBC000C2F2000311BA0B
:1032500003EB80004CF2E873090CCFF6FF73C15208
:103260006FF0FF0101EA122141EA126109B200EE9A
:10327000101A43F61401B8EEC00A411A81ED000A93
:103280009CFABCF100EE101A43F60C014CF2FA72F3
:10329000B8EEC00A411ACFF6FF7281ED000A4CF277
:1032A000F871835A4FEA1C4ECFF6FF7100F801E027
:1032B000591C81524CF2F971CFF6FF710122425430
:1032C00080BD0000DDE9031C40F250500BBA1B0C1E
:1032D000C2F2000083806FF0FF0303EA112343EA88
:1032E000116109B200EE101AB8EEC00A9CFABCF1E6
:1032F00080ED020A00EE101AC18A4FEA1C42013129
:10330000B8EEC00AC182012180ED040A0275417540
:1033100070470000DDE9032C11BA090C00EE101A09
:1033200040F2B051C2F2000101EB801048F23811B6
:10333000B8EE400A411A81ED000A6FF0FF0101EA80
:10334000122141EA126109B200EE101A48F230115E
:10335000B8EEC00A411A81ED000A9CFABCF100EEF9
:10336000101A48F22C1147F6EA62B8EEC00A411A68
:10337000CFF6FF7281ED000A815A4FEA1C4347F6EF
:10338000D86CCFF6FF7C013100F80C3081527047C9
:103390002DE9F04381B02DED088B82B0B0EE41AA4B
:1033A000B0EE60BADFED2D0A9FED2D1A8146102098
:1033B000B0EE428AB0EE619A884602F0A5F9064660
:1033C000FBEE0E0AB3EE0E1AB0EE4B0A0C2002F022
:1033D0009BF99FED24BA9FED241A0746B0EE4A0AE6
:1033E000F0EE4B0A0C2002F08FF90446B1EE041AFD
:1033F000B0EE490AF0EE4B0A0C2002F085F90546C2
:10340000FAEE040AB2EE041AB0EE480A0C2002F0FA
:103410007BF9310A8DF8001039098DF80210210A64
:1034200041EA07118DF8031029098DF80510010AEA
:1034300041EA05118DF806108DF807006A464846E6
:1034400041468DF801608DF80440FDF7A9FC02B0FB
:10345000BDEC088B01B0BDE8F08300BFC3F548C0E8
:10346000C3F54840000000000000FA4310B540F6E4
:10347000740046F20041C2F20000C4F2000140F2C2
:10348000001407220023C0F2011480E80E0000F1AE
:103490000C014FF4003C4FF4801E81E80850846119
:1034A0008383FEF79BF9002818BFFDF7B5FE10BD1A
:1034B00010B540F69C0046F60001C2F20000C4F2CE
:1034C000000140F2001407220023C0F2011480E83A
:1034D0000E0000F10C014FF4003C4FF4801E81E817
:1034E000085084618383FEF779F9002818BFFDF73F
:1034F00093FE10BD80B582B0002043F630010190EC
:10350000C4F202010A6842F480020A600A6802F406
:1035100080020192019A00900868002240F4001095
:1035200008600868052100F40010009000980C2045
:10353000FEF7F6FD0C20FEF7EFFD0E200521002220
:10354000FEF7EEFD0E20FEF7E7FD3A2005210022F2
:10355000FEF7E6FD3A20FEF7DFFD02B080BD000079
:1035600010B5B2B04AF22020C0F60000D0E9001237
:10357000D0E90203CDE92E12CDE930032EA80021B7
:1035800002F0AAFA40F2F001C2F2000108604AF229
:103590003020C0F60000D0E90012D0E90203CDE9E6
:1035A0002A12CDE92C032AA8002102F095FA40F254
:1035B000F801C2F2000108604AF26010C0F6000093
:1035C00090E80E50D0E905402391CDE9284023A88A
:1035D000002124922593CDF898C0CDF89CE002F00C
:1035E00095FA40F2E801C2F2000108604AF27C104C
:1035F000C0F6000090E81E5080691C9122901CA823
:1036000000211D921E931F94CDF880C0CDF884E058
:1036100002F07CFA40F2F401C2F2000108604AF2C2
:103620009810C0F6000090E81E50806915911B901C
:1036300015A80021169217931894CDF864C0CDF800
:1036400068E002F063FA40F2FC01C2F20001086097
:103650004AF2B410C0F6000090E81E5080690E9146
:1036600014900EA800210F9210931194CDF848C029
:10367000CDF84CE002F04AFA40F20011C2F200012B
:1036800008604AF2D010C0F6000090E81E50806931
:1036900007910D9007A80021089209930A94CDF88C
:1036A0002CC0CDF830E002F031FA40F2C821C2F26D
:1036B000000108604AF2EC10C0F6000090E81E50CD
:1036C00080698DE81E5006906846002102F01EFABF
:1036D00040F24471C2F20001086032B010BD000037
:1036E00081B0002143F630000091C4F2020002686C
:1036F00042F001020260026802F001020092009AA8
:103700000091026842F002020260026802F00202C6
:103710000092009A0091026842F00802026002687A
:1037200002F008020092009A0091026842F08002C2
:103730000260026802F080020092009A0091016823
:1037400041F010010160006800F010000090009846
:1037500001B0704780B540F6B42047F60001C2F2D0
:103760000000C4F2000100234FF00C0C4FF4E132D2
:1037700080E80E00C0E90333C0E905C3C361FFF769
:1037800029FA002818BFFDF747FD80BD10B540F6A7
:103790002C2041F2000C48F2A062C2F20000C4F2F8
:1037A000010CC0F201024FF4805300214FF4806EEF
:1037B0000C24C0E900C2C0E90231C0E904E4C0E958
:1037C0000611FFF707FA002818BFFDF725FD10BD09
:1037D00080B540F6702044F60001C2F20000C4F249
:1037E000000100234FF00C0C4FF4E13280E80E0092
:1037F000C0E90333C0E905C3C361FFF7EBF9002853
:1038000018BFFDF709FD80BDFEE70000FEE70000E0
:1038100000F0070080F00703042B28BF04234FF0BB
:10382000FF3C03380CFA03F338BF00209943814072
:103830000CFA00F022EA0000084370470000000084
:10384000EFF30980BFF36F8F154B1A681EF0100F4E
:1038500008BF20ED108A20E9F04F10602DE9090023
:103860004FF0500080F31188BFF34F8FBFF36F8F7D
:1038700003F024FA4FF0000080F31188BDE809003E
:1038800019680868B0E8F04F1EF0100F08BFB0ECE0
:10389000108A80F30988BFF36F8F704700BF00BFA5
:1038A0008011002004989FED0C0A01EE100A81EEB1
:1038B000001A039940F2B46202EE101AC2F200023A
:1038C000C2E9001090890130908121EE021A81EE48
:1038D000000A82ED020A704700007A44F0B581B018
:1038E0002DED048BC4B240F2D461C4EBC400C2F22B
:1038F000000101EB800595ED030A9FED419A9FEDD4
:10390000418A80EE091A80EE082A95ED003A40F2CD
:10391000F4772E46C2F20007BDEEC11ABDEEC22AF0
:1039200011EE100A12EE101A401A02EE100A95ED6E
:10393000011AB8EEC22A22EE082A31EE021A33EE3C
:10394000011A31EE400A46F8140F85ED011A87ED91
:10395000000AFDF7F3F897ED000A9FED2B1AB0EE81
:10396000C00AB4EE410AF1EE10FA45DD40F2B06053
:10397000C2F20000007801280DD040F2B160C2F21E
:103980000000007838B140F2EE00C2F2000000887A
:1039900080087C2830D896ED001A281D90ED000A8A
:1039A00041F2AA21B8EEC11AC2F2000121EE081AB2
:1039B00030EE090A31F8142031EE092AB4EE420A39
:1039C0005242F1EE10FA80ED000A21F8142006DDD3
:1039D0009FED0F1A30EE010A80ED000A0CE09FED1A
:1039E0000B2A31EE021AB4EE410AF1EE10FABCBF16
:1039F00030EE080A80ED000ABDEC048B01B0F0BD8A
:103A0000000034430000B4430000B442000034C35B
:103A10000000B4C380B540F2B051C0B2C2F20001A0
:103A200001EB801191ED020A40F2C4619FED201A72
:103A3000C2F200019FED1F2A01EB800120EE010A76
:103A400091ED001A20EE020A9FED1B2A30EE411A7A
:103A5000B4EE421A40F2D46CF1EE10FAC2F2000C4D
:103A600002DD4FF0FF3E08E09FED142AB4EE421A4B
:103A7000F1EE10FA08DA4FF0010EC0EBC0020CEBC9
:103A80008202136973441361C0EBC0000CEB800029
:103A900081ED000A01694FF4B472514301EE101A2E
:103AA000B8EEC11A30EE010A80ED030A80BD00BFF6
:103AB000000000390000B44300003443000034C368
:103AC00080B540F2103040F20402C2F20000C2F2AF
:103AD0000002418B93691980B0F912E0B0F914C06B
:103AE000B0F91830B0F91610B0F91C0000EE103A19
:103AF00001EE101A02EE10EA03EE10CA04EE100AEC
:103B0000B8EEC00AB8EEC11AB8EEC22AB8EEC33A8F
:103B1000B8EEC44A82ED000A82ED014A82ED021A33
:103B200082ED033A82ED042A80BD000082B003F0EA
:103B30002FFC41F2B42540F20407C2F20005022630
:103B4000C2F2000701AC019006E000BF00F016F8D9
:103B50002046022102F06EFFF87F2E600128F5D189
:103B600000F002F8F4E7000080B500F0AFF840F292
:103B70000400C2F200000021018480BD10B540F2B3
:103B80003C04C2F20004206B804700F0E3FB606A53
:103B90008047FFF795FF00F001F810BD10B540F227
:103BA0000404C2F20004A069017803291BD1427801
:103BB000022A18D11520208400F0B2F800F022FE6D
:103BC00094ED001A94ED020A94ED042AB2EE0C3A38
:103BD00061EE030ABAEE041A20EE030A22EE011A7D
:103BE00000F0F0FB10BD022911D14278032A0ED15A
:103BF0000C20208400F06AF800F004FE94ED040A22
:103C00009FED311A20EE010A00F0FCFC10BD0329E3
:103C100019D14278032A16D194ED001A94ED020AC4
:103C200094ED042AB2EE0C3A61EE030ABAEE041ADD
:103C3000162020EE030A22EE011A208400F0C2FBB7
:103C400000F0E0FD10BD012913D14278032A10D104
:103C50002020208400F0AEFD94ED001A94ED020ABD
:103C6000B2EE042A20EE020A61EE020A00F004FD20
:103C700010BD032911D14278012A0ED194ED001A0A
:103C800094ED020AB2EE042A172020EE020A61EE39
:103C9000020A208400F02CFC10BD02290BD14078D0
:103CA000022808D10B20208400F010F800F042F820
:103CB00000F036F810BD00F009F800F03BF800F015
:103CC0002FF80020208410BD52499D39B0B582B034
:103CD00040F2B050C2F2000040F2E0423E386FF0D5
:103CE0001B01C2F20002002355181C31542920F890
:103CF000403FEB83F8D140F69C04C2F2000400255B
:103D00002046002100220023009502F099FC204665
:103D1000002100220023009502F0C0FC02B0B0BDDB
:103D200080B501F025FD47F26810C2F200000021C5
:103D3000017080BD80B582B040F674004FF0000C79
:103D4000C2F20000002100220023CDF800C002F0E2
:103D500077FC02B080BD00002DE9F04381B02DED6D
:103D60000C8B14460D4651EA000240F2B16140F25C
:103D70004873C2F20001C2F2000307D041F2B2263A
:103D8000C2F20006002737700F700EE004EBE43635
:103D900086EAE436B6B20127452E0F7006D81F8892
:103DA000BE087C2E02D8013700241F80224300F079
:103DB0003B8141F2B3220B78C2F200020021012BB9
:103DC00011701EBF40F2EE02C2F20002118040F2FA
:103DD000B061C2F200014FF0010881F8008040F2AA
:103DE000D4694AF6FC11C2F20009C4F28E21C9F866
:103DF000381044F21941C4F22231C9F81C1041F6BE
:103E00002F51C4F2942100EE100A40F238079FEDC2
:103E1000828AC9F800104AF64A41B8EEC0AA00EEFC
:103E2000104AC2F20007C4F2233197ED009AB8EEAF
:103E3000C0BAB0EE480AC9F85410FCF76BFA29EE84
:103E4000000A20EE0B0A3AEE400A10EE100A05F0C6
:103E5000DBFA00EE105A97ED001AB8EEC0CAB0EEC9
:103E6000480A41EC190B21EE0BDAFCF717FA2DEE9C
:103E7000000A3CEE400A10EE100A05F0C5FA41ECCB
:103E8000110BB0EE490AF0EE690A03F0EDFD51ECBA
:103E9000100B9FED630B55EC106B32462B4604F074
:103EA000E1FC03F0E1FF97ED009AB0EE480AC9F893
:103EB0003C00FCF72FFA29EE000A20EE0B0A3AEE3E
:103EC000400A10EE100A05F09FFA97ED000A41EC47
:103ED000190B20EE0BDAB0EE480AFCF7DFF92DEEF5
:103EE000000A30EE0C0A10EE100A05F08DFA41ECD3
:103EF000110BB0EE490AF0EE690A03F0B5FD51EC82
:103F0000100B32462B4604F0ADFC03F0ADFF97EDED
:103F1000009AB0EE480AC9F82000FCF7FBF929EE38
:103F2000000A20EE0B0A30EE0A0A10EE100A05F025
:103F30006BFA97ED000A41EC190B20EE0BDAB0EEAC
:103F4000480AFCF7ABF92DEE000A30EE0C0A10EE31
:103F5000100A05F059FA41EC110BB0EE490AF0EEE7
:103F6000690A03F081FD51EC100B32462B4604F038
:103F700079FC03F079FF97ED009AB0EE480AC9F892
:103F80000400FCF7C7F929EE000A20EE0B0A30EE18
:103F90000A0A10EE100A05F037FA97ED000A41EC14
:103FA000190B20EE0BBAB0EE480AFCF777F92BEEAE
:103FB000000A3CEE400A10EE100A05F025FA41EC2A
:103FC000110BB0EE490AF0EE690A03F04DFD51EC19
:103FD000100B32462B4604F045FC03F045FF04EB82
:103FE000E43181EAE43189B26529C9F8580022BF79
:103FF00041F2B220C2F2000080F8008040F250701E
:10400000C2F2000080ED00AA40F24C70C2F2000043
:104010000021016045E100BFDB0F493F00BF00BF49
:1040200000000000DCA54C4040F2EE01C2F20001AD
:104030000A8840F2B0639708C2F2000300207C2F88
:10404000187000F20481501C088041F2B220C2F2C4
:104050000000007899A140F2507840F238079FEDB7
:10406000968A012808BF043191ED009A40F24C76FF
:10407000C2F20008C2F20007C2F2000698ED00AAE0
:1040800097ED00BAB0EE480A86ED009AFCF742F9C7
:104090002BEE000A29EE000A3AEE400A10EE100A52
:1040A00005F0B2F996ED00AA97ED00BAB0EE480A15
:1040B00041EC190BFCF7F2F82AEE4B1A21EE000A3C
:1040C00010EE100A05F0A0F941EC110BB0EE490A10
:1040D000F0EE690A03F0C8FC51EC100B9FED740B75
:1040E00054EC105B2A46234604F0BCFB03F0BCFEF4
:1040F00040F2D469C2F2000998ED009A96ED00AA48
:1041000097ED00BAB0EE480AC9F83C00FCF702F996
:104110002BEE000A2AEE000A39EE400A10EE100AD1
:1041200005F072F996ED000A97ED001A41EC190BB3
:1041300020EE01AAB0EE480AFCF7B0F82AEE000A19
:1041400010EE100A05F060F941EC110BB0EE490ACF
:10415000F0EE690A03F088FC51EC100B2A46234666
:1041600004F080FB03F080FE98ED009A96ED00AA23
:1041700097ED00BAB0EE480AC9F82000FCF7CAF87B
:104180002BEE000A2AEE000A39EE000A10EE100AA1
:1041900005F03AF996ED000A97ED001A41EC190B7B
:1041A00020EE01AAB0EE480AFCF778F82AEE000AE1
:1041B00010EE100A05F028F941EC110BB0EE490A97
:1041C000F0EE690A03F050FC51EC100B2A4623462E
:1041D00004F048FB03F048FE98ED009A96ED00AA23
:1041E00097ED00BAB0EE480AC9F80400FCF792F85F
:1041F0002BEE000A2AEE000A39EE000A10EE100A31
:1042000005F002F996ED00AA97ED00BAB0EE480A63
:1042100041EC190BFCF742F82AEE4B1A21EE000A8A
:1042200010EE100A05F0F0F841EC110BB0EE490A5F
:10423000F0EE690A03F018FC51EC100B2A462346F5
:1042400004F010FB03F010FEC9F8580029E041F219
:10425000B221C2F20001087040F2D4614AF6FC12A9
:10426000C2F20001C4F2E8228A6348F63102C4F2C5
:10427000EA22CA6141F62F52C4F2EE220A6045F6E4
:104280009302C4F2ED224A6541F2B322C2F2000267
:10429000012313706FF01B028B181C32542A186212
:1042A000FAD1BDEC0C8B01B0BDE8F08300BF00BFBC
:1042B00000000000DCA54C40DB0F493F000000007F
:1042C00000004842B0F5C06F18BF7047DDE9031029
:1042D00040F23C02C2F200021160118A5060481C98
:1042E0001082704780B582B00A2040F2547101906C
:1042F000C2F200010820086140F20160086040F24B
:104300003C000022C2F20000C1E90222D0E90230E2
:1043100040F27072C2F20002C2E9003040F674004E
:10432000C2F2000001ABFCF7E9FF02B080BD000063
:10433000074B19680868B0E8F04F80F30988BFF3AD
:104340006F8F4FF0000080F31188704700BF00BFEF
:104350008011002010B540F21034C2F20004A07E9B
:1043600003280DD1E07E03280AD1002000F024F8B4
:1043700040F23C00C2F20000816B0120884709E056
:10438000012000F019F840F23C00C2F20000816BFD
:1043900000208847A07EE17E80F0010081F00101CD
:1043A000084340F27C014FF00100C2F2000108BF57
:1043B0000220087010BD000040F27D01C2F2000131
:1043C000087070472DE9F04F81B0BDEEC00A10EEC5
:1043D000100ABDEEE00A10EE101ABDEEC10A10EE92
:1043E000102A00F067FE40F2B050C2F20000A0F1C7
:1043F000400741F2AA20C2F2000040F6843440F6A1
:10440000944840F2D46A851E0026C2F20004C2F22B
:104410000008C2F2000A4FF0000B00BF35F9020F8E
:1044200000EE100A40F2E040C2F2000000EB060984
:10443000D9ED020AB8EEC00A204601F0B7FB41F2FE
:10444000B321C2F200010978BDEEC00A10EE100AD5
:10445000012940F6C461A9F802004046C2F20001F9
:1044600008BF08460AEB060191ED010AD1ED030AE7
:1044700097ED141A584401F081FBBDEEC00A10EE0E
:10448000100A1C36A7F842000BF18C0B4037702E37
:1044900004F14404C2D140F24C10C2F2000001F019
:1044A000E5F840F2E040C2F2000040F69C04B0F9AA
:1044B0000210B0F91E20B0F93A30B0F95670C2F2CD
:1044C00000042046009702F0BBF840F2B050C2F260
:1044D0000000B0F90210B0F94220B0F98230B0F912
:1044E000C2702046009702F0D9F801B0BDE8F08F05
:1044F0002DE9F04F81B000F0A9F940F27870C2F2D6
:10450000000090ED000A40F27C70C2F2000090EDD5
:10451000001ABDEEC00A10EE100ABDEEC10A4FF639
:10452000242210EE101ACFF6FF7200F0C3FD40F205
:10453000B050C2F20000A0F1400741F2AA20C2F23E
:10454000000040F6843440F6944540F2E04A40F2E0
:10455000D46BA0F102090026C2F20004C2F20005E9
:10456000C2F2000AC2F2000B39F9020F0AEB060888
:1045700000EE100AD8ED020AB8EEC00A204601F09B
:1045800015FBBDEEC01A0BEB060090ED010AD0ED55
:10459000030A11EE100A97ED141AA8F80200284633
:1045A00001F0ECFABDEEC00A10EE100A1C36A7F8B6
:1045B000420040374434702E05F18C05D4D140F6CA
:1045C0009C04BAF90210BAF91E20BAF93A30BAF9C5
:1045D0005670C2F200042046009702F031F840F213
:1045E000B050C2F20000B0F90210B0F94220B0F9A8
:1045F0008230B0F9C2702046009702F04FF801B047
:10460000BDE8F08F10B52DED028B47F26814C2F2B1
:1046100000042078B0EE408A18B901F0B7F8012004
:10462000207040F2D024C2F20004D4ED070A94EDC9
:10463000091A40F6F82030EE880AC2F2000084ED34
:104640000B0A01F09BFAB0EE402A84ED0A0A9FEDB6
:10465000090A40F67400C2F2000040F21521F0EEA3
:10466000400AB0EE401AF0EE401AFEF791FEBDECA3
:10467000028B10BD000000002DE9F04F81B02DED40
:10468000048B82B040F2AC50C2F2000090ED001AF0
:1046900040F26C50C2F20000B0EE608AD0ED020A27
:1046A00041F2F400B0EE409AC2F20000B0EE410ACE
:1046B00001F0D0FABDEEC00A10EE102ABDEEC90A14
:1046C00010EE100ABDEEC80A524210EE101A12B2D5
:1046D00000F0F0FC40F2B050C2F20000A0F1400740
:1046E00041F2AA20C2F2000040F6843440F694451C
:1046F00040F2E04A40F2D46BA0F102090026C2F277
:104700000004C2F20005C2F2000AC2F2000B00BFB0
:1047100039F9020F0AEB060800EE100AD8ED020A7A
:10472000B8EEC00A204601F041FABDEEC01A0BEB0C
:10473000060090ED010AD0ED030A11EE100A97ED84
:10474000141AA8F80200284601F018FABDEEC00AB3
:1047500010EE100A1C36A7F8420040374434702E81
:1047600005F18C05D4D140F69C04BAF90210BAF9CF
:104770001E20BAF93A30BAF95670C2F20004204647
:10478000009701F05DFF40F2B050C2F20000B0F9B6
:104790000210B0F94220B0F98230B0F9C270204660
:1047A000009701F07BFF02B0BDEC048B01B0BDE8C7
:1047B000F08F0000B0B582B0FCF74EFD40F25055CE
:1047C000C2F20005B5F90C00D5ED020A00EE100AA0
:1047D00041F23810B8EEC00AC2F2000001F09CFAB3
:1047E000BDEEC00A40F6740010EE104AC2F200009E
:1047F0000021002200236C80009401F021FF02B010
:10480000B0BD0000B0B582B040F25055C2F2000514
:10481000D5ED020A41F238109FED0B0AC2F20000FA
:1048200001F07AFABDEEC00A40F6740010EE104AAC
:10483000C2F200000021002200236C80009401F0ED
:10484000FFFE02B0B0BD00BF0000000080B52DED3E
:10485000088B40F26C50C2F2000090ED021A40F258
:10486000AC50C2F2000090ED002A9FED1C3A31EEF0
:10487000421A81EE031A9FED1A2AB0EE409AB0EE6A
:10488000608A21EE02AAB0EE4A0AFBF707FD20EE8D
:1048900009BAB0EE4A0AFBF73DFD20EE080A40F2E5
:1048A00078703BEE400AC2F2000080ED000AB0EEE4
:1048B0004A0AFBF7F3FC20EE088AB0EE4A0AFBF73F
:1048C00029FD20EE090A40F27C7038EE000AC2F29F
:1048D000000080ED000ABDEC088B80BD8805B64164
:1048E00035FA8E3C40F23C00C2F2000080ED020A34
:1048F0007047000040F23C03C2F20003D874197301
:104900005A73704740F23C01C2F20001487370478D
:10491000B0B540F64400C2F20000408940F65403AE
:10492000782801EE100A28BF7820C2F200032D2853
:1049300098BF2D205A6800EE100A40F23C04B8EEF1
:10494000411A02EE102AB8EE400AC2F2000432EE1A
:10495000411A94F806C031EE002A617BB0EE421A8B
:10496000BCF1280F88BFB0EE401A012908BFB0EE95
:10497000412A94ED021AB1EE043A40F28C7230EE04
:10498000033AC2F20002B4EE431A82ED000A40F28A
:104990008872C2F20002F1EE10FA82ED002A06DC03
:1049A000B5EE401AF1EE10FA03DA9FED350A82ED0A
:1049B000000A1B8923F00300382806D192ED000A73
:1049C000B9EE041A30EE010A03E0372B03D89FED4D
:1049D0002D0A82ED000A40F20400C2F20000038CAE
:1049E0001068A0601BB10B2B01D0A07C38B1A36A6A
:1049F000002000210022002598476576B0BD0120E7
:104A0000E074207349B1012918D1BCF1190F1CD3EE
:104A1000A36A0120012101221EE00120FFF7CCFC46
:104A2000607EF8B1E069A36A41F28832411C90428D
:104A30004FF00100E1611BDB0121DBE70120FFF703
:104A4000BBFCA36A002000210FE00120FFF7B4FCAB
:104A5000A36A01200121002298470020E061012083
:104A60006076B0BDA36A0120012100229847B0BD45
:104A700000210022002598476561A560B0BD00BFF8
:104A800000000000CDCCCC3DB0B540F23C04C2F2F9
:104A90000004A36A0020002100220025984701207D
:104AA0006561A5606576FFF787FCB0BD80B54FF006
:104AB000500080F31188BFF36F8FBFF34F8F02F068
:104AC0006DFC30B14EF60450CEF200004FF0805134
:104AD0000160002080F3118880BD000070B592B0A5
:104AE00006AC20463021FBF78DFD002543F6400043
:104AF0000595CDE90355CDE901550095C4F20200B5
:104B00000168022641F080510160006800F0805089
:104B10000090009847F200000095C4F20000016880
:104B200041F440410160006800F44040009000986A
:104B3000012006904FF4803007904FF480000D90D4
:104B400006200E90A820CDE90F06042011902046E3
:104B50000C96FDF727FC88B90F20CDE901064FF42C
:104B6000A05004904FF48050059001A805210395B2
:104B7000FDF7EAFA002804BF12B070BDFCF74CFB49
:104B80004EF68850CEF20000016841F470010160D9
:104B90007047000080B540F6E410C2F20000FDF757
:104BA0002FFE80BD10B540F6FF3E0368C4F2000E34
:104BB00040F2004C7045C4F2010C0FDCB0F1804FA4
:104BC00019D040F20042C4F20002904213D040F6E5
:104BD0000002C4F2000290420DD010E040F6004204
:104BE000C4F20002904206D0604504D00022C4F214
:104BF0000102904203D14A6823F07003134341F647
:104C0000FF72C4F2000290420DDC70451FDCB0F16F
:104C1000804F41D040F20042C4F2000290423BD0AB
:104C200040F6000221E043F6FF72C4F20102904216
:104C300020DC42F20002C4F2000290422CD000229A
:104C4000C4F20102904227D0604525D028E040F60A
:104C50000042C4F2000290421ED041F60002C4F2AB
:104C60000002904218D041F60042C4F20002904285
:104C700012D015E044F20002C4F2010290420BD0BF
:104C800044F60002C4F20102904205D044F2004210
:104C9000C4F20102904203D1CA6823F44073134363
:104CA00023F080024B69D1F800E08C681A4302605F
:104CB000C46240F48062C0F828E0624504BF09691C
:104CC00001630121416110BD9FED0C2A30EE601A95
:104CD000B4EE421AF1EE10FA04DD9FED0B1A30EE3D
:104CE000010A70479FED062AB4EE421AF1EE10FA5F
:104CF000BCBF9FED041A30EE010A70470000344338
:104D0000000034C30000B4430000B4C380B5806B1E
:104D10000021C185C184FDF73DFE80BD016851E8D9
:104D2000031F026821F4907142E80313002BF5D1B0
:104D3000016851E8051F026821F0010142E80513EE
:104D4000002BF5D1016B01290AD100BF016851E8A0
:104D5000031F026821F0100142E80313002BF5D174
:104D6000202180F83E1000210163704780B5016862
:104D7000CA6822F04002CA60202180F83D10FEF788
:104D800077F880BD80B582B090F83E1022291ED100
:104D90008268B2F5805F02D10169002948D0816A3A
:104DA000B2F5805F07D00AB9026922B10268526881
:104DB00002F07F0201E0026852680A700121826AF3
:104DC00011448162C18D01390A04C18501D002B04C
:104DD00080BD0168CA6822F02002CA60CA6822F455
:104DE0008072CA604A6922F001024A61202180F87B
:104DF0003E10016B012923D100210163016851E8B4
:104E0000031F026821F0100142E80313002BF5D1C3
:104E100001680A68D20606D5002201920A6801924A
:104E2000496801910199818DFDF7B2FD02B080BD05
:104E30000168826A49686FF35F2111800221BEE731
:104E4000FEF714F802B080BD10B504460068D4E93E
:104E500002C22369016921F4405111430161626971
:104E600043EA0C01E3691143C268194349F20C6338
:104E70009A431143C1604169A26921F4407141F232
:104E80000043114340F48062C4F201039A4241613D
:104E900002D1FDF741FA01E0FDF72CFAE169636800
:104EA0001922B1F5004FA0FB02011CD15A00DB0F03
:104EB000FBF7E6FA48F21F51C5F2EB11A0FB012304
:104EC0005A096FF0630302FB0300322303EBC000B7
:104ED000A0FB01014FF4F87000EA111000EB021082
:104EE000C1F342111AE09A009B0FFBF7C9FA48F28E
:104EF0001F51C5F2EB11A0FB01235A096FF06303A8
:104F000002FB0300322303EB0010A0FB0101F020A1
:104F100000EA511000EB0210C1F34311226808436C
:104F2000906010BD90F83D10212923D18168B1F522
:104F3000805F01D1016931B1016A02684B1C0362D3
:104F40000978516007E0016A036831F8022B6FF3BA
:104F50005F225A600162C18C01390A04C18418BF02
:104F600070470068C16821F08001C160C16841F0EC
:104F70004001C1607047000010B582B040F62C249B
:104F8000C2F2000420680168C90644BFC0685FEA35
:104F9000C06007D440F62C20C2F20000FDF7FCFCF4
:104FA00002B010BD204601F0C7FB00200190206830
:104FB00001680191406801900198EBE710B582B05B
:104FC00040F67024C2F2000420680168C90644BF9C
:104FD000C1685FEAC16107D440F67020C2F20000E8
:104FE000FDF7DAFC02B010BD0021019101680191CA
:104FF000406801900198A06B0068016821F00101F0
:105000000160406840F28711081A80B2FDF754FF32
:10501000A06B40F2851100684160016841F0010118
:105020000160D9E7B0B5054690F83E0020281CBFC6
:105030000220B0BD13460A4600294FF0010418BFF4
:10504000002B01D12046B0BD0024AA62AB852C64A0
:105050002968A86B0431FCF7C3FE2868416941F058
:10506000400141612046B0BDFEE7000070B5054635
:1050700000284FF0000008BF70BD0C46032917D36D
:1050800040F20000C2F200000288A61E2846314607
:10509000FCF7C8F8A95DC2B291421CBF002070BDE8
:1050A000611911F8011CA1EB1020B0FA80F0400941
:1050B00070BD000070B52DED088B84B015460C4610
:1050C0000646FEF749FE54EA060040F29070C2F22E
:1050D000000001D000210CE005EBE53181EAE5316B
:1050E00089B2452906D801888A087C2A02D801316C
:1050F0000025018000EE106A9FED888AB8EEC0AAF4
:1051000000EE105AB8EEC09AB0EE480AFBF702F96A
:1051100020EE090A3AEE400A10EE100A04F074F983
:1051200002460B4603F09EFB00EE104AB8EEC0BAF2
:10513000B0EE480A05460E46FBF7B0F820EE090A25
:1051400030EE0B0A10EE100A04F05EF902460B4630
:1051500003F088FB02460B462846314602F0E6FF84
:1051600041EC100B02F080FD8DED000B9DF8070067
:1051700080F080008DF80700DDE9000103F000FBFE
:1051800041F2AA26C2F20006B0EE480A7080FBF790
:10519000C1F820EE090A3AEE400A10EE100A04F0B7
:1051A00033F902460B4603F05DFBB0EE480A0446B5
:1051B0000D46FBF773F820EE090A3BEE400A10EEAD
:1051C000100A04F021F902460B4603F04BFB02469D
:1051D0000B462046294602F0A9FF41EC100B02F0D5
:1051E00043FD51EC100B03F0CBFAB0EE480AB0804F
:1051F000FBF790F820EE090A30EE0A0A10EE100ACA
:1052000004F002F902460B4603F02CFBB0EE480A0C
:1052100004460D46FBF742F820EE090A3BEE400A31
:1052200010EE100A04F0F0F802460B4603F01AFBE9
:1052300002460B462046294602F078FF41EC100B4F
:1052400002F012FD8DED020B9DF80F0080F0800042
:105250008DF80F00DDE9020103F092FAB0EE480A82
:105260003080FBF757F820EE090A30EE0A0A10EEFC
:10527000100A04F0C9F802460B4603F0F3FAB0EE48
:10528000480A04460D46FBF709F820EE090A30EEFD
:105290000B0A10EE100A04F0B7F802460B4603F0B2
:1052A000E1FA02460B462046294602F03FFF41EC58
:1052B000100B02F0D9FC51EC100B03F061FAF080F6
:1052C0000020FEF7A7FB0120FEF7A4FB0220FEF75B
:1052D000A1FB0320FEF79EFB0020FEF7FFFA012052
:1052E000FEF7FCFA0220FEF7F9FA0320FEF7F6FAC1
:1052F00040F2D4656FF01B04C2F200052E1996ED42
:10530000080AD6ED0A0AFFF7DFFC1C34542C86EDA0
:10531000080AF3D104B0BDEC088B70BDDB0F493F28
:1053200080B500F05FF900F065F900F06BF980BD21
:1053300070B59CB00CAD0446284600F099F814AE48
:1053400004F108023046294600F004F904F1140083
:10535000314600F0C9F8304600F0C4F8284600F0A5
:10536000C1F806AD284600F04FF804F13400294694
:1053700000F078F8284600F073F86D46284600F0F3
:1053800043F804F14C00294600F06CF8284600F080
:1053900067F81CB070BD000010B504460220206004
:1053A0000020C4E9030004F11400C4ED010A84EDF7
:1053B000020A00F089F804F1340000F041F804F129
:1053C0004C0000F03DF804F1640000F01DF82046A8
:1053D000FFF7AEFF204600F093F8204610BD000016
:1053E00010B50446643000F03BF804F14C0000F0C6
:1053F00037F804F1340000F033F804F1140000F041
:1054000071F8204610BD000080B582B00021CDE9C2
:105410000011694600F002F802B080BDB0B50C463C
:10542000054600F00DF8D4E900102B46686143F8FA
:10543000101F284602210122FAF7B6FF2846B0BD08
:1054400010B5044602200121C4E9020104F1100351
:10545000204602210122FAF7A7FF204610BD0000D6
:1054600070470000D1E90421C0E904217047000021
:1054700080B584B00021CDE90211CDE90011694663
:105480000C3901224FF07E53013A41F80C3FFBD01A
:10549000694600F003F804B080BD0000B0B50C46CA
:1054A000054600F011F894E80F0005F1140C8CE8A3
:1054B0000E002B4643F8100F284602210222FAF76D
:1054C00073FF2846B0BD000010B504460220C4E9B1
:1054D000020004F11003204602210222FAF764FFC1
:1054E000204610BD7047000001F1100C9CE80C1024
:1054F000C96902614361C0F818C0C161704700000A
:1055000090ED010AB5EE400AF1EE10FA0FDAB7EEAF
:10551000001AB4EE410AF1EE10FA08DD4FF0500027
:1055200080F31188BFF36F8FBFF34F8FFEE790EDCD
:10553000020AB5EE400AF1EE10FAC8BF70474FF00C
:10554000500080F31188BFF36F8FBFF34F8F00BF00
:10555000FEE7000070B514460D460646FFF7B4FF9F
:1055600094ED000A28463146FAF722FF70BD00008C
:10557000002848BF704700F01F01012202FA01F124
:105580004EF200124009CEF2000242F8201070479D
:105590004EF60C50CEF200000068C0F302207047B7
:1055A0004EF6145300F00F02CEF2000309011A4424
:1055B00000F16043B0F1FF3FC8BF03F564421170D2
:1055C000704700004EF60C51CEF200010A684FF60B
:1055D000FF031A4060F30A2242F0806040F0FD7041
:1055E0000860704780B540F2AC70C2F20000FFF76F
:1055F00027FF80BD80B540F29470C2F20000FFF733
:105600001FFF80BD10B541F21C24C2F200049FEDC3
:10561000090ADFED090A2046FFF7BEFE45F2E13038
:1056200040F20002C0F60000C0F600022146FAF780
:105630009FFF10BDACC5273758FF7F3F80B5FBF7F4
:1056400061FBFBF77FFB40F67400C2F200000068CC
:10565000416941F00201416140F69C00C2F2000044
:105660000068416941F00201416180BDF0B581B03F
:1056700040F2B050C2F20000A0F13E0440F2E270ED
:10568000C2F20000851D40F2E0476FF01B00C2F23D
:1056900000072946224600BF3B1832F8406FDB8BDB
:1056A0001C3021F8026F542821F8083CF4D1FDF792
:1056B000B7FC6FF01B0000BF35F8021F3B1835F830
:1056C000082C1C30542824F8401FDA83F4D101B090
:1056D000F0BD000080B582B00020019040F62C2083
:1056E000C2F20000006801680191416801910199CE
:1056F000C16841F01001C16000F0FEFF02B080BD42
:10570000406880B2704700004FF0FF3101FA00F0AE
:10571000C04302EE100A30EE600AB8EEC22A31EE43
:10572000601A20EE020A80EE010ABDEEC00A10EEF9
:10573000100A7047FCF758FCFFF7D0F9FDF7D0FFCF
:10574000FDF7D8FEFDF792FEFDF7B2FEFEF702F878
:10575000FEF71CF8FEF73CF8FDF702FF00F0B6F983
:10576000FEE70000B0F1840118BFC11C0846704775
:1057700080B540F6740040F23002C2F20000C2F27E
:10578000000240F21521FBF70BFB80BD80B540F60F
:10579000740040F22802C2F20000C2F2000240F29D
:1057A0001521FBF7FDFA80BDB0B52DED108B9FEDF7
:1057B000B18A9FEDB2AA41F2F400DFEDAF1AC2F256
:1057C0000000B0EE0C0AF0EE480AB0EE481AB0EE57
:1057D0004A2A00F003FB41F23810B2EE049ADFEDE2
:1057E000A80ADFEDA81AC2F20000B0EE490AB0EE36
:1057F000481AB0EE4A2A00F0F1FA9FEDA3AA9FEDF5
:10580000A3BA9FEDA3CA40F684350024C2F2000576
:105810002819B0EE490AF0EE4A0AB0EE481AF0EE46
:105820004B1AB0EE4C2A00F0D9FA4434B4F5887F14
:10583000EED140F6F8249FED8F8AC2F200049FED6E
:10584000950ADFED950A04F14400F1EE001AB1EE7D
:10585000082AB0EE481A00F0C1FA9FED900ADFED79
:10586000901A9FED902A2046F0EE480AB0EE481AB2
:1058700000F0B4FA40F6C4649FED8BDA9FED8BBA6A
:105880009FED8BCAC2F20004B0EE04AA04F14400FA
:10589000B0EE4D0AF0EE4A0AB0EE481AF0EE4B1A9E
:1058A000B0EE4C2A00F09AFA9FED829A9FED75EACD
:1058B000B6EE00FA2046B0EE4F0AF0EE480AB0EE1F
:1058C000481AF0EE491AB0EE4E2A00F087FA04F1B9
:1058D000D000B0EE4D0AF0EE4A0AB0EE481AF0EEF3
:1058E0004B1AB0EE4C2A00F079FA04F18C00B0EEBD
:1058F0004F0AF0EE480AB0EE481AF0EE491AB0EE40
:105900004E2A00F06BFA04F5AE70B0EE4D0AF0EEE0
:105910004A0AB0EE481AF0EE4B1AB0EE4C2A00F0EC
:105920005DFA04F58C70B0EE4F0AF0EE480AB0EE66
:10593000481AF0EE491AB0EE4E2A00F04FFA04F57C
:10594000F470B0EE4D0AF0EE4A0AB0EE481AF0EEEE
:105950004B1AB0EE4C2A00F041FA04F5D270B0EECA
:105960004F0AF0EE480AB0EE481AF0EE491AB0EECF
:105970004E2A00F033FA40F694449FED4FDA9FED43
:1059800043BA9FED4ECAC2F2000404F14400B0EEE7
:105990004D0AF0EE4A0AB0EE481AF0EE4B1AB0EE9D
:1059A0004C2A00F01BFAB1EE02EA2046B0EE4E0A95
:1059B000F0EE480AB0EE481AF0EE491AB0EE492A65
:1059C00000F00CFA04F1D000B0EE4D0AF0EE4A0AF5
:1059D000B0EE481AF0EE4B1AB0EE4C2A00F0FEF989
:1059E00004F18C00B0EE4E0AF0EE480AB0EE481A10
:1059F000F0EE491AB0EE492A00F0F0F99FED300AB6
:105A000004F5AE70F0EE4A0AB0EE481AF0EE4B1A0A
:105A1000B0EE4C2A00F0E2F904F58C70B1EE040A05
:105A2000F0EE480AB0EE481AF0EE491AB0EE492AF4
:105A300000F0D4F99FED230A04F5F470F0EE000AAB
:105A4000B0EE481AF0EE4B1AB0EE4C2A00F0C6F950
:105A50009FED1D0A04F5D270F0EE480AB0EE481A28
:105A6000F0EE491AB0EE492A00F0B8F9BDEC108BFF
:105A7000B0BD00BF000000000060EA4600401C46C8
:105A80009A99193F00007A44CDCC4C3F0000FA456A
:105A90000070944648507C3B499D803C0000584231
:105AA0000000204300409C45000048420080BB4568
:105AB00000A00C460000FA440000164300606A464D
:105AC0000000024300008C423333134080B501F0E4
:105AD000ADF8002080BD000080B582B0826862B160
