:020000040800F2
:10000000B8AC00200D030008032B000821270008CE
:10001000012B000805090008D13C00080000000081
:100020000000000000000000000000004D02000879
:10003000410C000800000000A90200089D380008DB
:1000400027030008270300082703000827030008E8
:1000500027030008270300082703000827030008D8
:1000600027030008270300082703000827030008C8
:1000700027030008270300082703000827030008B8
:1000800027030008270300082703000827030008A8
:100090006909000827030008270300082703000850
:1000A0002703000827030008270300082703000888
:1000B0002703000827030008270300082703000878
:1000C0002703000827030008270300082703000868
:1000D00027030008A13C00082703000827030008A5
:1000E0002703000827030008270300082703000848
:1000F0002703000827030008270300082703000838
:100100002703000827030008270300082703000827
:1001100027030008270300086D390008270300089B
:100120002703000827030008DD0A0008270300084A
:1001300027030008270300082703000827030008F7
:10014000D509000827030008270300082703000833
:1001500027030008270300082703000827030008D7
:1001600027030008270300082703000827030008C7
:1001700027030008270300082703000800000000E9
:1001800027030008270300082703000827030008A7
:100190002703000827030008270300082703000897
:1001A00000000000000000002703000800F002F833
:1001B00000F03CF80AA090E8000C82448344AAF1C5
:1001C0000107DA4501D100F031F8AFF2090EBAE8C3
:1001D0000F0013F0010F18BFFB1A43F0010318477B
:1001E0001891000038910000103A24BF78C878C1F7
:1001F000FAD8520724BF30C830C144BF04680C602D
:10020000704700000023002400250026103A28BF74
:1002100078C1FBD8520728BF30C148BF0B60704778
:100220001FB508F00FF91FBD10B510BD00F07AFA28
:100230001146FFF7F5FF05F08FF900F098FA03B4C7
:10024000FFF7F2FF03BC00F0FDFA00002C4B196829
:100250000868B0E8F04F80F30988BFF36F8F4FF064
:10026000000080F311887047000000000848006813
:10027000006880F308884FF0000080F3148862B6AD
:1002800061B6BFF34F8FBFF36F8F00DF00BF00BFBA
:1002900008ED00E0DFF80C00016841F47001016036
:1002A000704700BF88ED00E0EFF30980BFF36F8F68
:1002B000134B1A681EF0100F08BF20ED108A20E9BA
:1002C000F04F106009B44FF0500080F31188BFF375
:1002D0004F8FBFF36F8F06F067F84FF0000080F389
:1002E000118809BC19680868B0E8F04F1EF0100FBB
:1002F00008BFB0EC108A80F30988BFF36F8F704796
:1003000034000020EFF30580704700000948804763
:1003100009480047FEE7FEE7FEE7FEE7FEE7FEE7E7
:10032000FEE7FEE7FEE7FEE704480549054A064BFF
:10033000704700005D390008AD010008B86C00206E
:10034000B8AC0020B88C0020B88C00209FED1A1AA1
:10035000F5EE000A40EE010ABDEEE00AF5EEC00A35
:1003600010EE100AF1EE10FA38BF401E00EE100A2F
:100370001349F7EE001AB8EEC00A30EEC00ADFEDFE
:100380000F0A20EE200AFCEEC00A10EE900AC0F31D
:10039000080000EE900A01EB8000F8EE600A90ED94
:1003A000011A70EE600A90ED000A71EEE01A21EE7B
:1003B000800A00EE810A704783F9223E0000004463
:1003C00078890008B5EEC00AF1EE10FA07D2DFED29
:1003D0001E0AB4EEE00AF1EE10FAA8BF7047DFED96
:1003E0001B0AB5EEC00A60EE200ABDEEE01A11EE5F
:1003F000100AF1EE10FA38BF401E00EE100A15493F
:10040000F7EE001AB8EEC00A30EEC00ADFED100AAF
:1004100060EE200ABCEEE00A10EE100AC0F30800FD
:1004200000EE100A01EB8000B8EE400A90ED011AD0
:1004300070EEC00A90ED000A71EEE01A21EE800A1B
:1004400000EE810A70470000CD024CB483F9223ED1
:10045000000000447889000853EA020C00F069802B
:100460002DE9F04B4FF00006002B1FBFB3FA83F5C8
:1004700003FA05F424FA05F65E4012BF1643B2FAF9
:1004800082F502FA05F4C5F120051EBF22FA05FC2B
:1004900044EA0C04203556EA044C4FEA144418BFD1
:1004A000641C4FF000084FF00009904271EB030C00
:1004B00039D3002919BFB1FA81F701FA07F6B0FA6A
:1004C00080F700FA07F6C7F120071EBF20FA07FCE5
:1004D00046EA0C062037B6FBF4FCA7EB0507103FF5
:1004E00007F01F0BCBF120060CFA0BFB2CFA06F6DB
:1004F00044BFB3460026202FA4BF5E464FF0000B3A
:100500005BEA060C08BF4FF0010B19EB0B09ABFBC4
:10051000027C48EB0608C01B06FB02CC0BFB03CC9D
:1005200071EB0C01C1E70B46024641464846BDE867
:10053000F08B13B54FF000004FF00001AFF30080D7
:10054000BDE81C407047032A40F2308010F0030CD5
:1005500000F0158011F8013BBCF1020F624498BF16
:1005600011F801CB00F8013B38BF11F8013BA2F1B3
:10057000040298BF00F801CB38BF00F8013B11F02E
:10058000030300F02580083AC0F0088051F8043BCE
:10059000083A51F804CBA0E80810F5E7121D5CBF3B
:1005A00051F8043B40F8043BAFF30080D20724BF6E
:1005B00011F8013B11F801CB48BF11F8012B24BF02
:1005C00000F8013B00F801CB48BF00F8012B704751
:1005D00010B5203AC0F00B80B1E81850203AA0E8DE
:1005E0001850B1E81850A0E81850BFF4F5AF5FEA12
:1005F000027C24BFB1E81850A0E8185044BF18C9C5
:1006000018C0BDE810405FEA827C24BF51F8043B6B
:1006100040F8043B08BF7047D20728BF31F8023BBF
:1006200048BF11F8012B28BF20F8023B48BF00F853
:10063000012B70474FF000020429C0F0128010F027
:10064000030C00F01B80CCF1040CBCF1020F18BFAE
:1006500000F8012BA8BF20F8022BA1EB0C0100F041
:100660000DB85FEAC17C24BF00F8012B00F8012B14
:1006700048BF00F8012B70474FF0000200B5134649
:1006800094469646203922BFA0E80C50A0E80C50B2
:10069000B1F12001BFF4F7AF090728BFA0E80C5063
:1006A00048BF0CC05DF804EB890028BF40F8042B5C
:1006B00008BF704748BF20F8022B11F0804F18BFC9
:1006C00000F8012B704770477047704710B500F075
:1006D00009F8006810BD10B5044600F003F8046086
:1006E00010BD000000487047586C00201FB584B052
:1006F00000200A9C06AB04AA02A90094AFF3008074
:1007000018B1DDE9020108B010BD0348204000F037
:1007100037F800200146F6E70000207C00487047CB
:10072000586C00207546FFF7F9FFAE460500694694
:10073000534620F00700854618B020B5FFF7F4FDBA
:10074000BDE820404FF000064FF000074FF00008D2
:100750004FF0000B21F00701AC46ACE8C009ACE853
:10076000C009ACE8C009ACE8C0098D46704710B5B7
:100770000446AFF300802046BDE81040FFF75FBDA0
:1007800010B500F009F8BDE81040AFF30080002874
:1007900001D000F057B8704710B5022803D04101CE
:1007A00003D50DA112E0002010BD010101D50FA15C
:1007B0000CE0C10001D511A108E0810001D512A112
:1007C00004E0400001D513A100E0002115A000F0D5
:1007D0003FF8012010BD0000496E76616C6964200D
:1007E0004F7065726174696F6E00000044697669CC
:1007F0006465204279205A65726F00004F766572F9
:10080000666C6F7700000000556E646572666C6FF1
:1008100077000000496E65786163742052657375D6
:100820006C7400005349474650453A204172697440
:10083000686D6574696320657863657074696F6E4F
:100840003A20000001491820ABBEFEE72600020056
:1008500070B505460C460A2000E06D1C00F011F84A
:1008600035B128780028F8D102E0641C00F009F8BE
:1008700014B120780028F8D1BDE870400A20AFF309
:10088000008008B569468DF800000320ABBE08BDA6
:10089000704705F0E7FB04F0EFFD04F02DFE05F0D6
:1008A00001FC002005F0C6FCF3E7000010B5114C78
:1008B0006178491CC9B26170642916D290ED000AB2
:1008C0000D4A10EE101ADFED0D0A914202DD30EEF6
:1008D000600A06E010EE101A094A914205D930EE7E
:1008E000200A80ED000AFFF7E1FF6078401E60708B
:1008F00010BD00009C000020000034430000B44301
:10090000000034C3FEE700008EB0164D4FF0FF39F3
:1009100040F2092640F201270DF124084A4605A9B4
:10092000286805F0E1FE059CB4420CD11422414632
:100930006846FFF74DFE0DF1180C20469CE80E00AE
:1009400001F024FFEAE7BC42E8D1142241466846A0
:10095000FFF73EFE0DF1180C20469CE80E0001F05A
:10096000E1FEDBE718000020014800F0E8BA0000D3
:10097000640300208EB0164E4FF0FF3709AD3A46A3
:1009800005A9306805F0B0FE059CA4F201200328FB
:100990000CD8142229466846FFF71AFE0DF1180CF0
:1009A00020469CE80E0001F0D3FEE8E7A4F2052003
:1009B0000328E4D8142229466846FFF709FE0DF102
:1009C000180C20469CE80E0001F052FFD7E700000B
:1009D0001C000020014800F0B2BA00008C03002087
:1009E00008B505F0BDFF0090034800F0CFF80221E4
:1009F000684605F0D9FBF7E70801002030B5002074
:100A0000094B0124024600BF00EB800103EB81018A
:100A10000D8A35B18C74401CC0B20A820428F3D30D
:100A200030BD8A74F7E70000B26A002030B50020BC
:100A30000A4B0124024600BF00EB001103EB8101C9
:100A4000CD8D3DB181F83040401CC0B2CA8504282C
:100A5000F2D330BD81F83020F6E70000486B00206B
:100A600005480021028D1AB180F82A1001857047CF
:100A7000012280F82A20F9E7646A0020401AB0F5C4
:100A8000805F03DDA0F5F850FF38704710F5805FF8
:100A9000FBDA41F6FF7108447047000008B505F025
:100AA0005FFF0C4D012600270B4C0090FFF7D8FF8D
:100AB00095F82A0001280AD084F81F70FFF7B6FFC6
:100AC000FFF79CFFC821684605F06EFBEEE7E6776E
:100AD000F4E70000646A0020D4000020014800F020
:100AE000FBBC00003C04002001681823CAB2103A85
:100AF000B2FBF3F2054B6FF30901032A9B5CC3655C
:100B000000D9091D81650846704700005889000812
:100B100010B5014600208B698A6A4FF0C07453B14A
:100B2000B3F5005F15D072B1012A0CD0022A0AD0A9
:100B3000032A09D104E01AB1012A06D0022A03D1FE
:100B4000C96AC90100D5012010BDC96AA142FAD005
:100B500010BD002AF7D0012AF2D0022AF3D0032ACE
:100B6000F3D010BD30B50468256825F480252560D4
:100B7000046863608368402B036803D09960006851
:100B8000C26030BD9A600068C16030BD2DE9F0419F
:100B900086B080460020029003900820049040F226
:100BA000751000902148224E234F817CD6E90045E4
:100BB00061F3451490F8261061F3041490F83A108C
:100BC00090F84E0061F3C71460F38614194890F84A
:100BD000301061F3410490F8741061F3000490F850
:100BE000B81090F8FC0061F3C30460F3820497F836
:100BF000200060F30F24786807F0CCFC60F3132525
:100C0000F86807F0C7FC60F31F55C6E90045C8F84F
:100C100000407168C8F8041000234246694607483E
:100C200000F023F806B0BDE8F0810000B26A0020B1
:100C300000010020486B0020D40000206403002045
:100C4000704772B6FEE790F82020012A07D0022AEA
:100C500005D0416A41F4802141620120704700685B
:100C600042690A43426100207047F0B590F8205075
:100C70000468A468012D05D0022D03D0416A41F417
:100C800080215DE014F0406F01D1E50055D5C4F33B
:100C90000164022C03D9416A41F4000150E00125AE
:100CA000A5401D608D684FF4C0739DB1CE6835437B
:100CB0004E6845EAC605066803EB0417F5514FF484
:100CC000C275076805EB04150E697E51097D01297F
:100CD00005D009E00E88CD6845EA4655EBE7016886
:100CE0004E5946F480764E511179D579567941EABC
:100CF000056195792D0445EA062529434FF4C6760A
:100D0000056806EB0416A9511178D57841EA05610A
:100D1000957852782D0445EA022211434FF4C475A8
:100D2000026805EB04155151006803EB04114258A9
:100D300042F0010242500020F0BD416A41F400112E
:100D400041620120F0BD000010B590F82020012A7A
:100D500007D0022A05D0416A41F480214162012076
:100D600010BD3B48D0F8002242F00102C0F800223A
:100D7000D0F8002222F47C52C0F80022D0F80022E1
:100D80004B6A42EA0322C0F800220A7D02F01F03E8
:100D900001229A40D0F81C329343C0F81C32CB6930
:100DA000B3B9D0F80C329343C0F80C328C894B683D
:100DB00064F31F434C6900EBC404C4F840320C894F
:100DC0000B6864F31F434C6900EBC404C4F844325D
:100DD000CB69012B16D1D0F80C321343C0F80C327A
:100DE0000C884B6864F31F434C6900EBC404C4F8DF
:100DF00040320C89CB6864F31F434C6900EBC40498
:100E0000C4F844328B69002BD0F804320ED013435F
:100E1000C0F804320B69002BD0F8143208D0134309
:100E2000C0F81432096A012904D008E09343EFE7BF
:100E30009343F5E7D0F81C121143C0F81C12D0F808
:100E4000001221F00101C0F80012002010BD0000C6
:100E500000640040704730B590F82040012C05D068
:100E6000022C03D0416A41F480215DE0046800292E
:100E700055D02469A40754D04FF4D874056804EB06
:100E800001142D5915F00405956005682D594ED0B3
:100E9000ED08556005682C5904F00204D4604FF445
:100EA000DA74056804EB01142D5905F00F0515617E
:100EB00005682D59C5F30725956105682C59240C43
:100EC00054614FF4DC72046802EB0112A4581C70E8
:100ED0000468A458240A5C700468A458240C9C700C
:100EE0000468A258120EDA704FF4DE72046802EB46
:100EF0000112A4581C710468A458240A5C71046887
:100F0000A458240C9C710468A258120EDA7100686F
:100F100081B1016941F020010161002030BDE46828
:100F2000A8E7416A41F400114162012030BD6D0D16
:100F30001560AFE7C16841F02001C160EDE72DE920
:100F4000F05F0546006800244669D0F80490876881
:100F5000D0F80CB0D0F810A0D0F81880F10748D025
:100F6000F90714D001218160B80703D5284600F0A5
:100F700052FA0CE0780702D54FF4006407E0380716
:100F800002D54FF4805402E0284600F043FAF805F9
:100F900016D529684FF480708860B80503D52846B7
:100FA00000F03BFA0CE0780502D544F4005407E069
:100FB000380502D544F4804402E0284600F02CFABB
:100FC000F80316D529684FF480308860B80303D53C
:100FD000284600F024FA0CE0780302D544F40044DB
:100FE00007E0380302D544F4803402E0284600F0DC
:100FF00015FA300707D55FEACB6004D529681020C1
:1010000044F40074C86070074FF0080707D55FEA22
:101010000B7004D52868C760284600F099F9B0071E
:1010200006D52868C068800702D0284600F092F9EB
:10103000700607D55FEACA6004D52968102044F419
:1010400080640861B00607D55FEA0A7004D5286895
:101050000761284600F0AEF9F00606D52868006959
:10106000800702D0284600F0A6F9B00308D55FEA51
:10107000C96005D5296810204860284600F09CF911
:10108000F00307D55FEA097004D528684760284651
:1010900000F0C6F9300446D55FEA497040D5F00546
:1010A00004D55FEAC87001D044F00104B00504D54E
:1010B0005FEA887001D544F00204700504D55FEA48
:1010C000487001D544F00404300529D518F0700F9C
:1010D00026D008F07000402815D006DC102809D072
:1010E00020280AD0302816D10AE050280ED06028D7
:1010F00011D10EE044F008040DE044F010040AE0C1
:1011000044F0200407E044F0400404E044F080048C
:1011100001E044F480742868816921F070018161E4
:10112000296804204860002C05D0686A2043686262
:101130002846FFF78FFEBDE8F09F70B5040003D08E
:1011400094F8200010B104E0012070BD204600F0AA
:1011500081F82068016841F00101016000F034FC71
:101160000546052604E000F02FFC401B0A2811D894
:1011700020684068C007F6D02068016821F00201AD
:10118000016000F021FC05460BE000F01DFC401B57
:101190000A2806D9606A40F40030606284F8206052
:1011A000D2E7206840688007EFD4207E01282068BD
:1011B00001683DD021F080010160607E0128206837
:1011C000016838D021F040010160A07E012820682C
:1011D000016833D021F020010160E07E0128206801
:1011E00001682ED041F010010160207F01282068A5
:1011F000016829D021F008010160607F0128206882
:10120000016824D021F004010160D4E902010843FF
:10121000D4E90412114308436168491E0843216858
:10122000C86100206062012084F82000002070BDA9
:1012300041F08001C0E741F04001C5E741F02001E5
:10124000CAE721F01001CFE741F00801D4E741F0EF
:101250000401D9E7F0B587B0044614216846FFF7CA
:101260000BFA364B3648DFF8D0E01968D4F800C0E6
:10127000334A03250226092710300024491CF4456F
:1012800022D11960012907D1016841F00071016084
:10129000006800F000700590106840F008001060D1
:1012A0001068CDE9005600F00800CDE904706946E9
:1012B0002448CDE9024500F06DFA002205211420F2
:1012C00000F020FC142033E0DFF87CE0F44531D15D
:1012D000D0F800C04CF0806CC0F800C0D0F800C05E
:1012E00001290CF0806CCDF814C0196007D1016899
:1012F00041F000710160006800F000700590106816
:1013000040F002001060106802AB00F0020005908F
:101310004FF44050CDE9000683E8B00069460B4821
:1013200000F038FA00220521402000F0EBFB4020BD
:1013300000F0DAFB07B0F0BD0064004020000020A0
:1013400030380240000C02400068004000040240B7
:101350007047000010B5124A016891420BD1114B41
:101360000021A3F11C02FFF776FD00230D491A4668
:101370001C390D480EE00D4A914210D1094B002155
:101380002433A3F11C02FFF766FD0023054908483A
:101390001A4608310068BDE8104005F045B910BD97
:1013A00000640040906100201800002000680040A8
:1013B0001C000020704770477047000070B504465D
:1013C00090F82000012804D0606A40F40020606298
:1013D00018E0022084F820002068016821F0010153
:1013E000016000F0F1FA05460EE000BF00F0ECFAF3
:1013F000401B0A2808D9606A40F40030606205206A
:1014000084F82000012070BD20684068C007EDD13D
:10141000606270BD70477047704770477047704793
:1014200070472DE9F0410446876D00F0CDFA06467D
:1014300094F835000025022806D08020606584F8E5
:1014400034500120BDE8F0812068016821F01601C8
:1014500001602068416921F080014161206C08B978
:10146000A06C20B12068016821F0080101602068AB
:10147000016821F0010101600CE000F0A5FA801B79
:10148000052807D920206065032084F8350084F8FA
:101490003450D7E720680068C007EED194F85C109C
:1014A0003F208840B860012084F8350084F834502B
:1014B0000020C7E790F83510022903D0802141654C
:1014C00001207047052180F835100068016821F07F
:1014D00001010160002070472DE9F84304464FF0F8
:1014E0000009CDF8009063484FF41651A56D0068CF
:1014F000B0FBF1F72E6894F85C10082000FA01F1B7
:1015000031420FD021680A6852070BD50A6822F0D1
:1015100004020A6094F85C108840A860606D40F096
:101520000100606594F85C104FF0010808FA01F0C2
:10153000304208D021684969090604D5A860606D69
:1015400040F00200606594F85C100420884030424E
:1015500008D021680968890704D5A860606D40F04B
:101560000400606594F85C1010208840304218D068
:1015700021680968090714D5A86020680168490333
:1015800004D50068000308D5A16C07E00168C9050F
:1015900003D4016821F008010160216C09B12046E3
:1015A000884794F85C1020208840304231D0216870
:1015B0000968C9062DD5A86094F83500052820686B
:1015C000016806D0490347D5006800031DD4616C4B
:1015D0001CE021F0160101602068416921F08001C2
:1015E0004161206C08B9A06C20B12068016821F02D
:1015F0000801016094F85C103F208840A86084F8DE
:10160000358084F83490216D1FE0E16B09B12046EC
:101610008847606D00282BD0606DC00714D005206E
:1016200084F835002068016821F00101016000980C
:10163000401C0090B84203D820680068C007F6D16B
:1016400084F8358084F83490E16C002910D001B022
:101650002046BDE8F04308470168C905D5D40168B4
:1016600021F01001016084F8358084F83490CCE7D3
:10167000BDE8F883300000202DE9F041044600F079
:10168000A3F906465CB1022084F83500002584F8F1
:1016900034502068016821F0010101600DE0012053
:1016A000BDE8F08100F090F9801B052805D92020C5
:1016B0006065032084F83500F2E720680068C00701
:1016C000F0D12268116820480140D4E90103184391
:1016D000D4E903363343184363691843A3691843B5
:1016E000E3691843236A18430843616A042903D154
:1016F000D4E90B1319430843106020684069666AF7
:1017000020F0070130460E43012704280CD1A06ABF
:101710000643E06A40B12046FFF7FAF920B14020C5
:10172000606584F83570BAE7206846612046FFF7A7
:10173000DBF994F85C203F2191408160656584F875
:1017400035700020ACE700003F8010F070B5044613
:1017500090F83400002501280CD0012084F83400D2
:1017600094F835600020012E06D084F8340002255C
:10177000284670BD022070BD022684F83560606581
:101780002046FFF7EFF92068016841F00101016090
:10179000EEE700002DE9F84FDFF8F8A10022012460
:1017A00003254FF00F090AF1040BAAF1040E00BF44
:1017B0000B6804FA02F63340B34270D10F7907F098
:1017C0000307012F01D0022F16D187684FEA420884
:1017D00005FA08FC27EA0C07D1F80CC00CFA08FC43
:1017E0004CEA070CC0F808C04768B7430E79C6F347
:1017F000001696403E4346600E79F643B6070AD07F
:10180000C7684FEA420C05FA0CF6B7438E6806FA31
:101810000CF63E43C6600E7906F00306022E10D188
:10182000D60800EB8608D8F8206057074FEAD76C37
:1018300009FA0CF7BE430F6907FA0CF73743C8F8EB
:10184000207006684FEA420C05FA0CF7BE430F7988
:1018500007F0030707FA0CF7374307604E6816F4E2
:10186000403F1CD04C4E376847F48047376036689D
:1018700022F0030706F480460096484E07EB060C5C
:10188000DCF8086897073F0F09FA07F826EA080608
:10189000DFF80C81404503D14FF0000841E072E0D1
:1018A000DFF80081404502D14FF0010839E0DFF850
:1018B000F880404502D14FF0020832E0DFF8EC80BA
:1018C000404502D14FF003082BE0DFF8E4804045AB
:1018D00002D14FF0040824E0DFF8D880404502D15F
:1018E0004FF005081DE0DFF8D080404502D14FF0F1
:1018F000060816E0DFF8C480404502D14FF0070823
:101900000FE0DFF8BC80404502D14FF0080808E046
:10191000DFF8B080404502D14FF0090801E04FF0F8
:101920000A0808FA07F848EA0608CCF80888DAF83E
:1019300000605746D1F804C09E435FEACC2C00D526
:101940001E433E60DBF800605F46D1F804C09E4352
:101950005FEA8C2C00D51E433E60DEF800607746BF
:10196000D1F804C09E435FEA8C3C00D51E433E6024
:10197000084F083F3E68D1F804C09E435FEACC3C64
:1019800000D51E433E60521C102AFFF411AFBDE883
:10199000F88F0000083C014044380240003001400C
:1019A000000002400004024000080240000C024017
:1019B000001002400014024000180240001C0240C7
:1019C0000020024000240240014880687047000067
:1019D0002400002002488168027811448160704729
:1019E000240000200B4810B5016841F4007101602B
:1019F000016841F480610160016841F48071016017
:101A0000032000F09FF80F2000F006F800F050F8D7
:101A1000002010BD003C024030B505461F4887B08D
:101A20000024016841F010010160006806A900F07F
:101A30001000009001A800F031F90498A8B100F05E
:101A40004DF940001649174AB0FBF1F11648491EFE
:101A5000026040F2E732C0E90324C0E90114846166
:101A600000F046FB040003D015E000F037F9E9E789
:101A70000D4800F06BFB04000DD1362000F034F867
:101A8000102D07D200222946362000F03BF80748E7
:101A9000056000E0012407B0204630BD4038024018
:101AA00040420F00001000409C040020280000204D
:101AB0000C4882B0016841F480410160006800F484
:101AC000804000900748001F016841F0805101608C
:101AD0000068002200F0805000900F21901E02B09C
:101AE00000F010B844380240002809DB00F01F0263
:101AF000012191404009800000F1E020C0F8001170
:101B000070470000F0B40E4B1B680C46C3F3022371
:101B1000C3F10705042D00D90425191D072901D299
:101B2000002300E0DB1E012606FA05F1491E2140D4
:101B300099409E40761E16403143F0BC02F0CCBA6C
:101B40000CED00E0064900F0070208684FF6FF03BD
:101B5000184040EA0220034A104308607047000022
:101B60000CED00E00000FA052DE9F0470E460500F7
:101B700065D0DFF81481D8F80000F7B200F00F004C
:101B8000B04207D288F80070D8F8000000F00F00CB
:101B9000B04254D128683D4C810712D5400703D587
:101BA000206840F4E05020602878000703D52068C2
:101BB00040F4604020602068A96820F0F0000843ED
:101BC00020602878C0072DD030496868083901287E
:101BD00012D0022813D0032811D0096889070029E0
:101BE0002DDA216821F0030101432160FFF7ECFEAB
:101BF000814641F2883A0EE009688903EFE70968F7
:101C00008901ECE7FFF7E0FEA0EB0901514502D99D
:101C10000320BDE8F0872068696800F00C00B0EB95
:101C2000810FEFD1D8F80010404601F00F01B1420A
:101C300007D90770006800F00F00B04201D0012002
:101C4000E7E72878400705D52068E96820F4E050E8
:101C5000084320602878000706D52068296920F409
:101C6000604040EAC100206000F058F82168084A4E
:101C7000C1F30311515CC84006490860064800687A
:101C8000FFF7CAFE0020C4E7003C024008380240CB
:101C90006089000830000020280000200F22026028
:101CA0000C4A136803F003034360136803F0F00366
:101CB0008360136803F4E053C36012684FF4E05389
:101CC00003EAD20202610448006800F00F000860D5
:101CD0007047000008380240003C024004480549B3
:101CE00000680968044AC1F38221515CC84070470A
:101CF0003000002008380240708900080448054977
:101D000000680968044AC1F34231515CC840704719
:101D1000300000200838024070890008154810B5CE
:101D2000006810F00C02144813D01449042A0FD094
:101D3000082A0ED10F4C241F2268236802F03F02AC
:101D40005B0207D52068C0F38810A0FB010106E004
:101D5000084610BD2168C1F38811A1FB00010023D2
:101D6000FEF77AFB2168C1F30141491C4900B0FB31
:101D7000F1F010BD083802400024F400001BB70049
:101D80002DE9F84F04006ED02078DFF84C93C0079F
:101D9000A9F104054AD009F104000168C1F38101E9
:101DA000012908D00068C0F3810002280AD1D9F8BF
:101DB0000000400206D52868800337D560680028F7
:101DC000E1D033E06068B0F5803F10D0B0F5A02FCF
:101DD000286810D020F480302860286820F4802003
:101DE00028606068A8B1FFF7EFFD06460DE028689F
:101DF00040F48030F4E740F480202860F7E700BF2B
:101E0000FFF7E2FD801B642873D828688003F7D5AC
:101E10000CE0FFF7D9FD064605E000BFFFF7D4FD53
:101E2000801B6428F0D828688003F7D42078DFF876
:101E3000AC8280074FF0000A3ED5A748001D01681C
:101E400011F00C0F08D00068C0F3810002280BD1FC
:101E5000D9F80000400207D42868800716D5E0684A
:101E6000012800D112E033E1E068B8B10120C8F8E0
:101E70000000FFF7A9FD064605E000BFFFF7A4FD3F
:101E8000801B0228C0D828688007F7D528682169F8
:101E900020F0F80040EAC10028600DE0C8F800A07A
:101EA000FFF792FD064604E0FFF78EFD801B022837
:101EB0001FD828688007F7D42078000722D5864FDE
:101EC00087486169703771B101210160FFF77CFDBE
:101ED000064604E0FFF778FD801B022809D8386821
:101EE0008007F7D50EE0C0F800A0FFF76DFD0646AD
:101EF00005E082E0FFF768FD801B02287DD8386886
:101F00008007F7D42078400768D5DFF8CCB10027E8
:101F10000BF13C0BDBF80000C0000BD4DBF8001029
:101F200041F08051CBF80010DBF80000012700F0F1
:101F3000805000906B4E3068C00510D4306840F47B
:101F400080703060FFF740FD009005E0FFF73CFD3A
:101F50000099401A022850D83068C005F6D55E4E68
:101F6000A0686C3601280FD00528306810D020F00A
:101F700001003060306820F004003060A068B8B123
:101F8000FFF722FD00900FE0306840F00100F4E719
:101F900040F004003060F7E7FFF716FD0099411AA2
:101FA00041F28830814266D830688007F4D50EE06F
:101FB000FFF70AFD009007E0FFF706FD0099411AC0
:101FC00041F28830814256D830688007F4D42FB16E
:101FD000DBF8001021F08051CBF80010A069C8B3E5
:101FE0003D49091D0968C1F3810102294AD002282F
:101FF000504607D0C8F8600000E03CE0FFF7E4FC82
:1020000004463BE04746C8F86000FFF7DDFC0646A3
:1020100005E000BFFFF7D8FC801B02282BD82868FA
:102020008001F7D4D4E907010843A16A2E4A490880
:1020300002EB0141626A41EA8211084394F82C10D4
:1020400040EA0161C9F8001001203866FFF7BCFCC6
:10205000044606E03EE000BFFFF7B6FC001B022886
:1020600009D828688001F7D534E000BFFFF7ACFC41
:10207000001B022802D90320BDE8F88F28688001E0
:10208000F4D427E00128F7D0D9F80000E26900F481
:10209000800191421CD1226A00F03F01914217D188
:1020A00047F6C071626A0140B1EB821F10D1A26A8B
:1020B0004FF0FF3300F4403103EB5202B1EB024F1B
:1020C00006D194F82C1000F07060B0EB016F01D0D5
:1020D0000120D1E70020CFE704380240000047424A
:1020E000800E4742007000400000FFFF70477047BD
:1020F00010B5040003D094F83D0010B107E00120B2
:1021000010BD002084F83C00204600F01EF802209C
:1021100084F83D00211D206801F02EFC012084F888
:10212000460084F83E0084F83F0084F8400084F8BC
:10213000410084F8420084F8430084F8440084F8A5
:10214000450084F83D00002010BD704790F83D1018
:10215000012901D001207047022180F83D1001685B
:10216000CA6842F00102CA6000681149884214D06E
:10217000B0F1804F11D00F4988420ED00E498842ED
:102180000BD00E49884208D00D49884205D00D4930
:10219000884202D00C49884204D1816801F00701CD
:1021A000062903D0016841F0010101600020704759
:1021B000000001400004004000080040000C004006
:1021C000000401400040014000180040704770B515
:1021D0000446006801694FF00005C943890715D41A
:1021E000C168C943890711D4E91E01610120207724
:1021F000206880698007204602D0FFF7E7FF04E0EF
:1022000000F098F8204600F096F8257720680169DC
:10221000C943490717D4C168C943490713D46FF0AC
:1022200004010161022020772068806910F4407F5A
:10223000204602D0FFF7CAFF04E000F07BF82046FA
:1022400000F079F8257720680169C943090716D499
:10225000C168C943090712D46FF008010161042065
:1022600020772068C0698007204602D0FFF7AEFFC4
:1022700004E000F05FF8204600F05DF82577206864
:102280000169C943C90617D4C168C943C90613D433
:102290006FF010010161082020772068C06910F4F8
:1022A000407F204602D0FFF791FF04E000F042F8A3
:1022B000204600F040F8257720680169C943C90726
:1022C00008D1C168C943C90704D1891E01612046EC
:1022D00000F032F820680169C943090609D4C168D1
:1022E000C943090605D46FF0800101612046FFF75C
:1022F000FDFE20680169C943490609D4C168C94384
:10230000490605D46FF040010161204600F01EF837
:1023100020680169C94389060BD4C168C94389068D
:1023200007D46FF0200101612046BDE87040FFF73F
:10233000DEBE70BD7047704700680349884201D116
:10234000FFF748BB7047000000100040704770471F
:1023500070470000F8B5016804460868CA684B6910
:1023600010F00F0F4FF0000559D003F0010602F4F2
:102370009077374365D0C10705D0D10503D5216CCF
:1023800041F001012164410705D5D90703D0216C33
:1023900041F002012164810705D5D90703D0216CE2
:1023A00041F004012164010707D502F02001314307
:1023B00003D0216C41F008012164216C00293AD03E
:1023C000800604D5900602D5204601F082FB2068E5
:1023D0004069216CC0F38010090700D460B3204627
:1023E00001F050FB20684069400621D52068143078
:1023F00050E8001F21F0400140E80012002AF5D10A
:10240000A06BA8B16C490165A06BFFF753F80028D9
:1024100011D0A06B016D01B0BDE8F0400847830604
:102420000FD593060DD52046BDE8F84001F051BB0D
:102430002046FFF78DFFF8BD2046FFF789FF256492
:10244000F8BD266B2023012E79D1C60677D5D60696
:1024500075D50868486800904869400640D5A16B6A
:10246000086840680004000CEAD0A28D8242E7D9D7
:10247000E085C869B0F5807F2DD020680C3050E829
:10248000001F21F4807140E80012002AF5D1206875
:10249000143050E8001F21F0010140E80012002A2A
:1024A000F5D12068143050E8001F21F0400140E8C9
:1024B0000012002AF5D184F83E30256320680C30E4
:1024C00050E8001F21F0100140E80012002AF5D169
:1024D000A06BFEF7A6FFA08DE18D401A81B229E026
:1024E000A08DE18D401A81B2E08D0028A8D000298E
:1024F000A6D020680C3050E8002F22F4907240E8FB
:102500000026002EF5D12068143050E8002F22F06C
:10251000010240E80026002EF5D184F83E30256304
:1025200020680C3050E8002F22F0100240E8002311
:10253000002BF5D12046FFF70AFFF8BDFFE705069F
:102540002BD5150629D594F83D002128F5D1A06892
:10255000B0F5805F01D12069B0B1206A411C2162D1
:10256000216800784860E08C401E0004000CE08484
:10257000E3D12068C16821F08001C1602068C16892
:1025800041F04001C160D8E7206A0088C0F308002C
:102590004860206A801C2062E5E74006CDD55006E1
:1025A000CBD5CA68204622F04002CA6084F83D308C
:1025B00000F0B5F8C1E70000753A000870B50400F6
:1025C00004D094F83D00002510B106E0012070BD54
:1025D00084F83C50204600F023F8242084F83D0085
:1025E0002068C16821F40051C160204601F0D2FA90
:1025F0002068016921F4904101612068416921F05E
:102600002A0141612068C16841F40051C16025641C
:10261000202084F83D0084F83E00002070BD0000BA
:1026200070B586B0064614216846FEF725F8344C8E
:1026300030680025334902220323A0421DD13148CE
:102640001030046844F080440460006800F080406A
:102650000590086840F0100008600868694600F0BE
:1026600010000590D8018DE825000820CDE9033041
:102670002548FFF78FF806B070BD244CA042FAD170
:1026800020481430046844F010040460006800F02E
:1026900010000590086840F002000860086869466C
:1026A00000F002000590C0208DE825000720CDE94C
:1026B00003301748FFF76EF8174C164820604FF0AC
:1026C0000060C4E901054014C4E90350801065614D
:1026D000C4E906504FF44030C4E908052046FEF72F
:1026E000CBFF08B1FEF7ADFAB46300220521252027
:1026F000A663FFF707FA2520FFF7F6F9BBE700000E
:1027000000780040303802400010024000100140C4
:1027100000040240406402403C04002070477047BF
:10272000FEE70000DDE9031288B243BA0748090C4E
:1027300049BA8380C18091B249BA4181110C0173B9
:10274000C189491CC181012141737047A26A0020DF
:1027500010B5A0F20120DDE9051200EB80048BB278
:1027600009485BBA00EB8400090C838049BAC18038
:1027700091B249BA8181110C8173018A491C01828D
:102780000121C17310BD0000B26A002010B53448A9
:10279000DDE9052390ED020A94B264BABCEEC00AEA
:1027A000120C52BA10EE101A00EE104A89B2B8EEAE
:1027B000400A00EE901A818380ED020AF8EE600A6A
:1027C00082829AB252BA028370EE600A1A0C827642
:1027D00010EE902A234B9A4202D9026A521C0262DE
:1027E00000EE901AF8EE600A70EEC00A10EE901A31
:1027F0009942016A01D9491E0162490300EE901A0B
:102800009FED191AF8EEE00A30EE200AF3EE0A0AFC
:1028100080ED090A60EE200A80EE810A80ED040A4C
:10282000B5EEC00AF1EE10FA05D2DFED100A30EE77
:10283000200A80ED040ABDEEC00A41F6FF7210EED8
:10284000101A91FBF2F302FB131100EE101AB8EE0E
:10285000C00A80ED040AC18D491CC18510BD00006D
:10286000046B0020000080C500003C4200F8FF45DA
:10287000DDE903128BB25BBA00EE103AA0F205203C
:1028800000EB00130948B8EE400A00EB8300090C86
:1028900080ED020A49BA818291B249BA0183110CD2
:1028A0008176C18D491CC18570470000486B0020AE
:1028B0000F4810B50D4901600721416000214FF418
:1028C00000328160C0E90312D20042610176012228
:1028D00042768276C27601774177FEF72EFC002899
:1028E00003D0BDE81040FEF7ACB910BD0064004055
:1028F000640300200F4810B50D49016007214160B5
:1029000000214FF400328160C0E90312D20042611D
:102910000176012242768276C27601774177FEF710
:102920000CFC002803D0BDE81040FEF78AB910BDAA
:10293000006800408C030020094808B5016841F494
:10294000800101600068002200F4800000900521F1
:102950003A20FFF7D7F8BDE808403A20FFF7C4B89F
:102960003038024030B52E4DB3B02AAC95E80F0098
:1029700084E80F0000212AA802F00EFE294C103531
:10298000A06195E80F002EAD85E80F0000212EA86C
:1029900002F002FE2249E0611C2220316846FDF768
:1029A00017FE0021684602F00AFE1D4920601C2225
:1029B0003C3107A8FDF70CFE002107A802F0FFFD3F
:1029C000174960601C2258310EA8FDF701FE002156
:1029D0000EA802F0F4FD1249A0601C22743115A863
:1029E000FDF7F6FD002115A802F0E9FD0C49E060B5
:1029F0001C2290311CA8FDF7EBFD00211CA802F061
:102A0000DEFD074920611C22AC3123A8FDF7E0FD63
:102A1000002123A802F0D3FD606133B030BD000077
:102A20009088000800000020154808B5016841F0B2
:102A300001010160016801F001010091016841F0AC
:102A400002010160016801F002010091016841F09A
:102A500008010160016801F008010091016841F07E
:102A600080010160016801F080010091016841F07E
:102A700010010160006800F01000009008BD000027
:102A8000303802400C4810B50A4901604FF4E1317A
:102A90004160002181600C22C160C0E904128161A3
:102AA000C161FFF78BFD002803D0BDE81040FEF7A1
:102AB000C8B810BD00780040B40300200E4810B51F
:102AC0000C4901600D4941604FF480518160002143
:102AD0004FF48062C0E903120C22C0E90521C161F4
:102AE000FFF76CFD002803D0BDE81040FEF7A9B841
:102AF00010BD000000100140F8030020A086010076
:102B0000FEE7FEE770B50646C0EBC6013C483F4D08
:102B100000EB81042DED028B94ED031ADFED398A71
:102B20009FED398AD4ED010A81EE280ABDEEC00A74
:102B300010EE100A81EE080ABDEEC00A10EE101A5F
:102B4000401A00EE100A606105F12000F8EEC01A8C
:102B5000B0EE600A01EE880AD4ED001A30EE210AC8
:102B600084ED010A30EE410AC5ED040A85ED080A3C
:102B7000FDF79CFE95ED080A2549B0EEC00A10EE5F
:102B8000100A884238DDA878012805D0287818B1C5
:102B90006889B0F5FA7F2FD294ED010A1B48B0EE98
:102BA000681A30EE280A303084ED010AD5ED040AA7
:102BB00070EEA80AC5ED040A30F81610494220F854
:102BC0001610D4ED050AF8EEE01A01EE881AB4EEFC
:102BD000C10AF1EE10FA02DD30EE480A0AE0F8EE22
:102BE000E00A50EE888AB4EEE80AF1EE10FA03D259
:102BF00030EE080A84ED010ABDEC028B70BD0000C6
:102C0000F4690020000034430000B4439C0000201D
:102C10000000B44270B5274C00EB001304EB8303B3
:102C2000DFED250A93ED020A254B254D20EE200A03
:102C3000DFED220A03EB8003224E20EE200AD3EDC3
:102C4000000A1035C0EBC00070EE600A05EB800092
:102C500010EE904AB44202DD0469641E06E010EEF4
:102C6000904A194DAC4202D90469641C046183ED99
:102C7000000A012901D10021016182B1012A0DD18F
:102C800001694FF4B472514300EE901AB1EE400A5C
:102C9000F8EEE00A30EE600A80ED030A70BD0169CB
:102CA0004FF4B472514300EE901AF8EEE00A30EEA1
:102CB000800AF1E7486B0020000000390000B443AF
:102CC000E469002000003443000034C31949184867
:102CD0008B69827E1A708B69C27E5A70B0F9182097
:102CE00000EE102AB8EEC00A81ED000AB0F91620F5
:102CF00000EE102AB8EEC00A81ED020AB0F91220E7
:102D000000EE102AB8EEC00A81ED040AB0F91420D2
:102D100000EE102AB8EEC00A81ED030AB0F91C00DB
:102D200000EE100AB8EEC00A81ED010A70470000FB
:102D3000646A0020D400002008B503F011FE074C9F
:102D40000090E07F012806D000F014F802216846C8
:102D500003F02AFAF5E700F003F8F7E7D4000020C3
:102D600010B500F0BDF802490020088410BD000035
:102D7000D400002010B5FFF7A9FFBDE8104000F017
:102D800001B8000070B54F4C002522462DED028B96
:102D9000B2EE048A92ED000AA06992ED011A60EE8B
:102DA000080A92ED020A017882B020EE080A03298F
:102DB0000AD002291FD0032909D0012928D00329CC
:102DC00008D002291AD026E04178022906D041789D
:102DD00003291AD04078012856D01CE01520208401
:102DE00002B0F9EE0C1ABDEC028B21EE211ABDE8FF
:102DF000704000F055BB4178032903D04078022889
:102E00004BD008E00C20208454E01620208434E0CD
:102E10004078032806D000F063F8258402B0BDECAA
:102E2000028B70BD202020842748284EF2EE0E0A27
:102E3000B0F91C0000EE100AB6F90600B8EEC00AA0
:102E400020EE200A00EE900A2148F8EEE00A02F097
:102E5000F3FBBDEEC00A00231A4610EE100A01B2C1
:102E600071801C48009502F0D4FF94ED000A60EEDA
:102E7000080A94ED020A20EE080A02B0BDEC028BAB
:102E8000BDE8704000F022BC1720208402B0BDECE9
:102E9000028BBDE8704000F091BBB5EEC01A0B206C
:102EA000F1EE10FA208405D00B4890ED040A0B488F
:102EB00080ED090A02B0BDEC028BBDE8704000F065
:102EC0000FB80000D4000020646A0020A26A00202D
:102ED000A069002064030020046B00209C000020F7
:102EE00038B50020134A1449044600BF00EB8003A4
:102EF00002EB83035C8000EB001301EB8303401CB7
:102F0000C0B25C800428F1D300231A4619460B484E
:102F1000009402F0A4FF00231A46194607480094C3
:102F200002F0C3FF00231A4619460548009402F038
:102F300070FF38BDB26A0020486B00208C0300206F
:102F4000640300202DE9F04715462DED088B0F4650
:102F500006469FEDFB0B01F0CFF851EC100B03F090
:102F60005FFE0AEE100AF84C56EA07024FF4FA79AF
:102F70004FF000004FF001017ED0E0702070E08043
:102F80002A439FEDF28BDFF8CC839FEDF39A74D048
:102F900020712278012A00D06081A170B8EE080A61
:102FA00088ED070AB0EE000A88ED000AB0EE080AC4
:102FB000894688ED0E0A9FEDE90A88ED150AB0EE04
:102FC0004A0AFDF7C3F9F0EE400A00EE105A94EDFC
:102FD000031AB8EEC00A20EE011A00EE107AB8EE1D
:102FE000C00A01EE600A10EE100A05F075F941EC16
:102FF0001B0BB0EE4A0AFDF7E5F9D4ED030A20EE0B
:10300000201A00EE106AF8EEC00A00EE105AB8EE70
:10301000C00A40EE410A10EE900A05F05DF941EC5D
:10302000100BB0EE4B1AF0EE6B1A01F0D1F953EC25
:10303000182B51EC100B04F051FB03F0F1FDB0EE36
:103040004A0AC8F82000FDF781F9F0EE400A00EEC8
:10305000105A94ED031AB8EEC00A20EE011A00EEE1
:10306000107AB8EEC00A01EE200A10EE100A05F040
:1030700033F941EC1B0B01E0C7E0DCE0B0EE4A0A9B
:10308000FDF7A0F9D4ED030A20EE201A00EE106A35
:10309000F8EEC00A00EE105AB8EEC00A40EE410A3F
:1030A00010EE900A05F018F941EC100BB0EE4B1A37
:1030B000F0EE6B1A01F08CF953EC182B51EC100B5D
:1030C00004F00CFB03F0ACFDB0EE4A0AC8F80400B3
:1030D000FDF73CF9F0EE400A00EE105A94ED031AA9
:1030E000B8EEC00A20EE011A00EE107AB8EEC00A5F
:1030F00001EE200A10EE100A05F0EEF841EC1B0B71
:10310000B0EE4A0AFDF75EF9D4ED030A20EE201A6C
:1031100000EE106A00EE905AB8EEC00AF8EEE00A2F
:1031200000EE810A10EE100A05F0D6F841EC100B03
:10313000B0EE4B1AF0EE6B1A01F04AF953EC182B73
:1031400051EC100B04F0CAFA03F06AFDB0EE4A0A23
:10315000C8F83C00FDF7FAF8F0EE400A00EE105A0D
:1031600094ED031AB8EEC00A20EE011A00EE107AB0
:10317000B8EEC00A01EE600A10EE100A05F0ACF8D5
:1031800041EC1B0BB0EE4A0AFDF71CF9D4ED030A23
:1031900020EE201A00EE106A00EE905AB8EEC00A37
:1031A000F8EEE00A00EE810A10EE100A05F094F83D
:1031B00041EC100BB0EE4B1AF0EE6B1A01F008F96F
:1031C00053EC182B51EC100B04F088FA03F028FD97
:1031D00000EE105AC8F85800B8EEC00A02F038F9EC
:1031E00010EE100A5E49884201DD84F8039000EE7B
:1031F000106AB8EEC00A84ED050A84ED069A84EDE3
:10320000079ABDEC088BBDE8F08700EE105A2170DC
:10321000B8EEC00A02F01CF910EE103ADFF844C113
:103220006345BFF6ADAEE3884B45BFF4A9AE5B1C6A
:10323000E3800025A4E6A07062894A457ED2521C34
:103240006281E07801287AD05FF0000000EE100A79
:10325000B8EE400A84ED070AB0EE4A0AFDF776F8A8
:10326000D4ED070A94ED031A20EE811AD4ED060A74
:1032700041EE400A10EE900A05F02EF841EC190BD1
:10328000B0EE4A0AFDF79EF8D4ED030A94ED071A52
:1032900020EE200AD4ED050A41EE400A10EE900A15
:1032A00005F01AF841EC100BB0EE491AF0EE691A6D
:1032B00001F08EF853EC182B51EC100B04F00EFAC1
:1032C00003F0AEFC4546B0EE4A0AC8F82000FDF710
:1032D0003DF8F0EE400A94ED070A94ED031A20EE53
:1032E000011A94ED060A01EE200A10EE100A04F00D
:1032F000F3FF41EC190BB0EE4A0AFDF763F8D4ED89
:10330000030A94ED071A60EE200A94ED050A01EE17
:10331000600A10EE100A04F0DFFF41EC100BB0EE73
:10332000491AF0EE691A01F053F853EC182B51ECDE
:10333000100B04F0D3F903F073FC15E08AE087E08A
:10334000000000000000F03F9C0000200000000092
:10335000DCA54C40F469002000000000000074422D
:103360000000C84200008C42B0EE4A0A6860FCF7D8
:10337000EDFFF0EE400A94ED070A94ED031A20EEFB
:10338000011A94ED060A01EE200A10EE100A04F06C
:10339000A3FF41EC190BB0EE4A0AFDF713F8D4ED88
:1033A000030A94ED071A60EE200A94ED050A01EE77
:1033B000200A10EE100A04F08FFF41EC100BB0EE63
:1033C000491AF0EE691A01F003F853EC182B51EC8E
:1033D000100B04F083F903F023FCB0EE4A0AE86313
:1033E000FCF7B4FFF0EE400A94ED070A94ED031ADF
:1033F00020EE011A94ED060A01EE600A10EE100AA2
:1034000004F06AFF41EC190BB0EE4A0AFCF7DAFF50
:10341000D4ED030A94ED071A60EE200A94ED050A34
:1034200001EE200A10EE100A04F056FF41EC100BDA
:10343000B0EE491AF0EE691A00F0CAFF53EC182BEF
:1034400051EC100B04F04AF903F0EAFBA865D8E64A
:103450003220FBE69FED0F0AE07088ED070A9FED32
:103460000E0A404688ED000A9FED0C0A88ED0E0A10
:10347000B3EE000A88ED150A21710021C1EBC102EB
:1034800000EB8202491CC9B282ED019A0429F5D3EE
:10349000B7E600000000284200002CC200004042B5
:1034A000BDEEC11A2DE9F84F11EE100AFDEEE00A4B
:1034B000BDEEC00A02B210EE900A384B01B210EE17
:1034C000100A00B200F006FCDFF8D0A0DFF8D080D0
:1034D000DFF8D0B0344DDFF8D490002404EB840141
:1034E00008EB810704EB0416B7F9060000EE100A9A
:1034F0003AF91400F8EEC00A00EE100A0BEB860051
:10350000B8EEC00A02F098F8BDEEC00A05EB8606D8
:10351000C4EBC40110EE100A7880204830380079DE
:103520000128B6F9140000EE100A09EB8100B8EE8C
:10353000C01AD0ED030A90ED010AC4EBC40000EB01
:10354000800028D01A4900BF01EB800002F061F82A
:10355000BDEEC00A641CE4B210EE100A042C7080A8
:10356000BCD3B8F93E100091B8F92A30B8F916204A
:10357000B8F902100F4802F072FCB5F9CE000090C5
:10358000B5F98A30B5F94620B5F90210094802F0BC
:103590008CFCBDE8F88F0849D6E70000CC0000207D
:1035A000B26A0020BC610020486B0020F469002052
:1035B000CC6200208C030020FC6400202DE9F84F31
:1035C00000F02AF990ED010A384B394ABDEEC00AE5
:1035D00010EE101A90ED000A09B2BDEEC00A10EE0E
:1035E000100A00B200F076FBDFF8C0A0314DDFF822
:1035F000C8B0DFF8C880DFF8C890002404EB84006E
:1036000005EB800704EB0416B7F9060000EE100A7C
:103610003AF91400F8EEC00A00EE100A0BEB86002F
:10362000B8EEC00A02F008F8BDEEC00A08EB860644
:10363000C4EBC40110EE100A7880B6F9140000EE55
:10364000100A09EB8100B8EEC01AD0ED030A90ED24
:10365000010AC4EBC40000EB80011A4800EB8100B2
:1036600001F0D7FFBDEEC00A641CE4B210EE100AF0
:10367000042C7080C2D3B5F93E000090B5F92A3011
:10368000B5F91620B5F902100F4802F0E8FBB8F9B9
:10369000CE100091B8F98A30B8F94620B8F9021076
:1036A000094802F002FCBDE8F88F0000CC000020C1
:1036B00024FAFFFFB26A0020BC610020486B0020A2
:1036C000F4690020CC6200208C0300202DE9F04F2B
:1036D0004748484D2DED028BB0EE608AF0EE408AEF
:1036E000D0ED040A81B095ED090A434801F0F7FFD7
:1036F000BDEEC01ABDEEC80A05F1300311EE100A86
:10370000404202B210EE100ABDEEE80A01B210EE1D
:10371000100A00B200F0DEFAAA4605F1300BDFF81D
:10372000DC80374DDFF8DC90002400BF04EB84011F
:1037300008EB810704EB0416B7F9060000EE100A47
:103740003BF91400F8EEC00A00EE100A2E48B8EE5D
:10375000C00A00EB860001F06FFFBDEEC00A05EB6A
:103760008606C4EBC40110EE100A78809AF80400B3
:103770000128B6F9140000EE100A09EB8100B8EE3A
:10378000C01AD0ED030A90ED010AC4EBC40000EBAF
:1037900080002BD01D4900BF01EB800001F039FFF4
:1037A000BDEEC00A641CE4B210EE100A042C708056
:1037B000BCD3B8F93E100091B8F92A30B8F91620F8
:1037C000B8F90210124802F04AFBB5F9CE00009099
:1037D000B5F98A30B5F94620B5F902100C4802F067
:1037E00064FB01B0BDEC028BBDE8F08F0949D3E763
:1037F000046B00209C0000205C690020B26A00205D
:10380000486B0020F4690020BC610020CC620020DD
:103810008C030020FC64002010B51C489FED1D1A8D
:103820002DED048BF0EE408AB0EE608A90ED040A34
:103830001748D0ED090A70EE600A80EE810ADFEDCC
:10384000160A20EE209AB0EE490AFCF77FFD60EEE2
:10385000289AB0EE490AFCF7B5FD48EE409A0C4CA8
:10386000B0EE490A2834C4ED009AFCF76FFD20EE53
:10387000088AB0EE490AFCF7A5FD08EE808A2046CA
:1038800084ED018ABDEC048B10BD0000046B0020A8
:103890009C0000208805B64135FA8E3C10B55020BA
:1038A00080F31188BFF34F8FBFF36F8F03F05EF883
:1038B00018B104494FF080500860002080F311884F
:1038C00010BD000004ED00E030B593B03021684633
:1038D000FCF7D2FE14210CA8FCF7CEFE1D480025F3
:1038E000016841F080510160006800F08050119043
:1038F0001948016841F4404101600068022400F465
:103900004040119001200090000401908001CDE919
:10391000064006200890A820CDE9090404200B9059
:103920006846FEF72DFA08B172B6FEE70CA90F2023
:1039300081E831004FF4A0500F904FF48050109068
:1039400005210CA8FEF710F9002801D072B6FEE799
:1039500013B030BD4038024000700040024801689A
:1039600041F470010160704788ED00E00148FEF706
:103970002EBC00009C040020F0B50268254C264DAA
:10398000264E274F274B4FF0804CA04209D0604570
:1039900007D0A84205D0B04203D0B84201D0984227
:1039A00004D122F0700E4A6842EA0E02A0421BD0F7
:1039B000604519D0A84217D0B04215D0B84213D0F4
:1039C000984211D0184DA8420ED0184DA8420BD0E5
:1039D000174DA84208D0174DA84205D0164DA84251
:1039E00002D0164DA84203D122F44075CA682A437A
:1039F0004D6922F080022A4302608A68C2620A6826
:103A00008262A04201D0984201D10969016301217B
:103A10004161F0BD0000014000040040000800408A
:103A2000000C0040000401400040014000440140FF
:103A30000048014000180040001C004000200040E9
:103A400070EE600A08499FED091A10EE900A88424C
:103A500002DD30EE410A704710EE900A04498842B8
:103A6000F9D930EE010A7047000034430000B44336
:103A7000000034C310B5806B0021C185C184FEF7FE
:103A800067FC10BD01680C3151E8002F22F49072E0
:103A900041E80023002BF5D10168143151E8002FD3
:103AA00022F0010241E80023002BF5D1016B01292E
:103AB00009D101680C3151E8002F22F0100241E8D1
:103AC0000023002BF5D1202180F83E100021016356
:103AD000704708B590F83E10222901D0022008BD99
:103AE00082684FF480539A4201D1016921B1816A01
:103AF0009A421BD04AB10AE00268816A5268C2F356
:103B000008020A80816A891C08E0026972B10268B1
:103B1000526802F07F020A70816A491C8162C18D7D
:103B2000491E0904090CC18503D019E002685268D6
:103B3000F1E70168CA6822F02002CA600168CA6819
:103B400022F48072CA6001684A6922F001024A6167
:103B5000202180F83E10016B012903D0FEF7DEFD25
:103B6000002008BD0021016301680C3151E8002FDD
:103B700022F0100241E80023002BF5D101680A6809
:103B8000D20602D50A6849680091818DFEF7DFFBF5
:103B9000E6E7000070B5044600680169E26821F4B8
:103BA0004051114301612169A068E26908436169DC
:103BB000114308432168CA6849F20C639A430243DF
:103BC000CA6020684169A26921F4407111434161D2
:103BD00031492068884202D03049884202D1FEF73C
:103BE0008DF801E0FEF77AF8E269002319216425D7
:103BF0003226B2F5004F626828D0A0FB0101930F76
:103C00009200FCF729FC0146B0FBF5F06FF01802BA
:103C1000504301EB800006EB0010B0FBF5F000F024
:103C2000F002B1FBF5F002EB0012B1FBF5F06FF022
:103C30001803584301EB800006EB0010B0FBF5F0D1
:103C400000F00F0021681044886070BDA0FB0101E6
:103C500092185B41FCF700FC0146B0FBF5F0020155
:103C6000B1FBF5F06FF01803584301EB800006EB51
:103C7000C000B0FBF5F000F0F80002EB4002B1FB31
:103C8000F5F0584301EB800006EBC000B0FBF5F007
:103C900000F00700D6E700000010014000140140CA
:103CA00038B50A4C20680168C90609D5C068C00645
:103CB00006D5204602F056F9206801684068009059
:103CC000BDE838400148FEF745BB0000F80300207E
:103CD000FEE700002DE9F0411D462DED068B144650
:103CE0000F460646B7EE008A9FEDE80B00F004FA97
:103CF00051EC100B02F094FF08EE900A2246394670
:103D00003046FFF71FF9E34856EA07017ED000214D
:103D1000A0F80810B0EE680AFCF718FBB0EE401AE5
:103D200000EE107A00EE904AB8EEC00AF8EEE00A13
:103D300000EE810A10EE100A04F0CEFA41EC100BEE
:103D40009FEDD59BB0EE491AF0EE691A00F040FCE9
:103D5000B0EE40AAF0EE60AAB0EE680AFCF732FBC3
:103D6000F0EE400A00EE106AB8EEC02A00EE104AEB
:103D7000B8EEC00A00EE602A12EE100A04F0ACFAA7
:103D800041EC100BB0EE491AF0EE691A00F020FC7D
:103D900053EC1A2B51EC100B03F0A4F841EC100B70
:103DA00001F03EFA51EC100B02F02EFF03F0D2FBB3
:103DB0002880B0EE680AFCF7C9FAB0EE401A00EEAF
:103DC000107A00EE904AB8EEC00AF8EEE00A00EE73
:103DD000C10A10EE100A04F07FFA41EC100BB0EEAD
:103DE000491AF0EE691A00F0F3FBB0EE40AAF0EECB
:103DF00060AAB0EE680AFCF7E5FAB0EE401A00EEF1
:103E0000106A00EE904AB8EEC00A00E028E1F8EE31
:103E1000E00A00EEC10A10EE100A04F05DFA41EC6F
:103E2000100BB0EE491AF0EE691A00F0D1FB53EC1A
:103E30001A2B51EC100B03F055F841EC100B01F06C
:103E4000EFF951EC100B03F085FB6880B0EE680AC7
:103E5000FCF77CFAB0EE401A00EE107A00EE904AC1
:103E6000B8EEC00AF8EEE00A00EEC10A10EE100A41
:103E700004F032FA41EC100BB0EE491AF0EE691A78
:103E800000F0A6FBB0EE40AAF0EE60AAB0EE680A21
:103E9000FCF798FAB0EE401A00EE106A00EE904A75
:103EA000B8EEC00AF8EEE00A00EE810A10EE100A41
:103EB00004F012FA41EC100BB0EE491AF0EE691A58
:103EC00000F086FB53EC1A2B51EC100B03F00AF8B0
:103ED00041EC100B01F0A4F951EC100B02F094FE30
:103EE00003F038FBA880B0EE680AFCF72FFAB0EEBA
:103EF000401A00EE107A00EE904AB8EEC00AF8EED2
:103F0000E00A00EE810A10EE100A04F0E5F941EC37
:103F1000100BB0EE491AF0EE691A00F059FBB0EE42
:103F200040AAF0EE60AAB0EE680AFCF74BFA00EE89
:103F3000906AB8EEE02A00EE904AF8EEE00A00EE51
:103F4000802A12EE100A04F0C7F941EC100BB0EE13
:103F5000491AF0EE691A00F03BFBB0EE401AF0EEA1
:103F6000601A53EC1A2B51EC110B02F0BBFF41EC21
:103F7000100B01F055F951EC100B03F0EBFAB5F909
:103F8000001000B200EE101A0022B8EEC00A20EEB7
:103F9000080ABDEEC00A10EE101A2980B5F9021009
:103FA00000EE101AB8EEC00A20EE080ABDEEC00AF4
:103FB00010EE101A6980B5F9041000EE101AB8EE70
:103FC000C00A20EE080ABDEEC00A10EE101A00EE7C
:103FD000100AA9801146B8EEC00A20EE080ABDEE0C
:103FE000C00A10EE100AE8801046FEF713FE002209
:103FF00011460120FEF70EFE002211460220FEF7B8
:1040000009FE002211460320FEF704FE002211469D
:104010001046FEF777FD002211460120FEF772FDE3
:10402000002211460220FEF76DFD002211460320FA
:10403000FEF768FD1A4E0024C4EBC40006EB8005B1
:10404000D5ED030A95ED010AFFF7FAFC641CE4B212
:1040500085ED010A042CEFD3BDEC068BBDE8F081A1
:1040600000EE104AB8EEC00A01F0F2F910EE101A94
:104070000C4A9142BFF64EAE0189B1F5FA7FBFF40A
:1040800049AE491C0181002444E600000000000004
:104090000000F03F9C0000200000000000000040F5
:1040A000F469002000008C4203B40198410000989C
:1040B00050EAC12018BF04204A0D18BF40F001008B
:1040C00040F2FF72B2EB515F08BF40F002000128DE
:1040D00008BF052002B070470907090E002804DB5D
:1040E00000F1E02080F80014704700F00F0000F1AC
:1040F000E02080F8141D704770B59B482DED020B31
:104100002DED068B079D25F00044A04218DC974852
:10411000844202DC0AD1069840B19DED060BBDEC4D
:10412000068B02B0BDE8704001F04EB9002DCCBF47
:104130009FED8F0B9FED900BBDEC068B02B070BD19
:104140008F48A04215DD8F48A042D8BF4FF0FF3402
:1041500058DD9DED060B51EC100BFFF7A5FF042871
:1041600008BF01F065F99DED060BBDEC068B02B0B2
:1041700070BD9DED060B51EC100B01F0E1F9CDE99E
:10418000060181489FED828BA0423CDD8248A0421F
:104190001FDD00249FED82AB9DED060B53EC1A2B27
:1041A00051EC100B02F09EFE9DED060B41EC190B3D
:1041B00053EC1A2B51EC100B03F090FA53EC182B24
:1041C00003F088FD53EC192B02F0CCFFCDE906017A
:1041D00049E09DED060B012453EC182B51EC100B1C
:1041E00002F080FE9DED060B41EC190B53EC182BF1
:1041F00051EC100B03F06EFD53EC192B02F0B2FFE3
:10420000CDE906012FE06848A0421FDD02249FEDA2
:10421000689B9DED060B53EC192B51EC100B03F032
:104220005DFA53EC182B02F05DFE9DED060B41ECA0
:10423000180B53EC192B51EC100B03F04BFD53EC06
:10424000182B02F08FFFCDE906010CE09DED060B67
:10425000032453EC102B9FED580B51EC100B02F084
:1042600081FFCDE906019DED060B53EC102B51ECBF
:10427000100B03F033FA41EC180B53EC182B03F03E
:104280002DFA41EC190B4E480621B0EE490AF0EE2A
:10429000690A784401F001F853EC182B51EC100B2B
:1042A00003F01CFA41EC180B4648B0EE490AF0EE58
:1042B000690A0521784400F0F0FF53EC192B51EC0A
:1042C000100B03F00BFA41EC100B51EC180B53ECF4
:1042D000102B002C0EDA02F005FE9DED061B53ECB0
:1042E000112B03F0FBF99DED061B53EC112B03F092
:1042F000C5FB35E002F0F6FD9DED061B53EC112BDE
:1043000003F0ECF941EC100B2F48784400EBC400AB
:1043100090ED001B51EC100B53EC112B03F0DAFC69
:104320009DED061B53EC112B03F0D4FC41EC100B5C
:104330002648784400EBC40090ED001B51EC100BB4
:1043400053EC112B03F09AFB41EC100B002DA2BF94
:10435000BDEC068B02B070BD51EC100B02F054FCAA
:1043600041EC100B01E70000000010440000F07F5A
:10437000182D4454FB21F93F182D4454FB21F9BF5B
:104380000000DC3F0000203E0000F33F0000000082
:10439000000000000000F03F0000E63F00000000C9
:1043A000000000000000004000800340000000000A
:1043B000000000000000F83F000000000000F0BF17
:1043C000524F0000084F0000924E00004A4E00007D
:1043D00070B56F4E2DED040B2DED048B82B0DDF822
:1043E00024C0DDE907235C422CF000411C4341EA74
:1043F000D474069D22F00040B44205D86C422C4390
:1044000040EAD474B4420BD99DED081B9DED060B18
:1044100002B0BDEC048B04B0BDE8704000F0DEBF1C
:10442000ACF14054A4F17F641C430BD0022404EA95
:10443000AC7444EAD27405439FED578B9FED582B23
:1044400007D015E09DED060B51EC100B01F00CF8B8
:1044500042E0002C11BF012C9DED060B02B0BDEC1B
:10446000048B04BF04B070BD022C38D0032C3BD0A9
:104470000B439FED4D1B9FED4E0B0AD0B14218D15F
:10448000B04209D121F0804120F08040099107908D
:104490000FE0002A15DA10E0474B7B44002C08BFE0
:1044A00093ED000B0DD0012C10D0022C17D0032C53
:1044B0001AD0B0421DD1002A03DAB0EE410AF0EE64
:1044C000610A02B0BDEC048B04B070BD93ED000B2B
:1044D00051EC100B02F098FB41EC100BF1E7B0EE41
:1044E000480AF0EE680AECE7B0EE420AF0EE620A23
:1044F000E7E7401A00159FED329B3C28C8BF8DEDC1
:10450000000B17DCBCF1000FBCBF10F13C0F8DEDB0
:10451000009B0FDB9DED080B53EC102B9DED060B64
:1045200051EC100B02F01EFE01F00AF800F09CFFA7
:10453000CDE90001B4B1012C10D0022C9FED220B6B
:1045400053EC102B9DED000B51EC100B19D003F028
:10455000C1FB53EC182B03F0BDFBBDE7019880F0C5
:10456000004001909DED000B53EC192B51EC100B0A
:1045700002F0B6FF04BF0220FCF7ADF89DED000B82
:104580009FE703F0A7FB53EC182B03F077FAA3E7A0
:104590000000F07F00000000182D4454FB2109406A
:1045A000182D4454FB2109C0182D4454FB21F9BF98
:1045B000182D4454FB21F93F024E0000000000007A
:1045C0000000000000000000075C143326A6A13C98
:1045D0002DE9F04D2DED040B2DED0E8B96B0DDE9A0
:1045E0002550279CDDF890A025F0004624F00048D7
:1045F000BAF1000F14BF0121002101EB4502FC4973
:1046000053184A1093422AD3002814BF01230023D1
:1046100003EB44030B44F7498B4220D358EA0001D3
:104620009FEDF59B76D0DFF8D8B35D4503D1BAF1A5
:10463000000F05D188E0BAF1000F08BF002100D0BB
:10464000012101EB450111F5001F08D8002814BF16
:104650000121002101EB440111F5001F0BD99DED53
:10466000261B9DED240B16B0BDEC0E8B04B0BDE8EF
:10467000F04D00F0B3BE0027002DBCBFE1498845D6
:1046800021DAE1498845A8BF02271CDAC3451ADCB4
:10469000DE4901EB2851142908DDC1F1340220FA6A
:1046A00002F101FA02F282420DD108E058B9C1F1DB
:1046B000140228FA02F101FA02F2424503D101F094
:1046C0000101C1F1020756EA0A0124D1002C22DAC5
:1046D000002D18BF022F01D0012F0AD00220FBF7B6
:1046E000FAFF16B0BDEC0E8B04B0BDE8F04D00F043
:1046F00053BE0220FBF7EFFF00F04EFE51EC100B13
:1047000002F082FA41EC100B16B0BDEC0E8B04B037
:10471000BDE8F08D18E09FEDBEAB9FEDBF8B00288C
:1047200071D1B848804522D105F1804010F5801044
:1047300008BFBAF1000F07D0B3450ADC002CA8BFB0
:104740009DED260BE0DA0DE0B0EE490AF0EE690AC5
:10475000DAE7002C06DA9DED260B51EC100B02F087
:1047600053FA6FE0AE48784490ED000BCCE7D845A3
:104770004DD1002C48DA2EB186423AD1BAF1000F61
:1047800042D126E0BAF1000F13D00220FBF7A3FFBD
:1047900000F03EFE8DED020B9DED240B8DED000B28
:1047A00010EE900A039961F31E0003909DED020B39
:1047B000AAE78DED02AB9DED240B1AEE901A10EED8
:1047C000900A8DED000B61F31E0003909DED020B2E
:1047D0009AE78DED028B9DED240B18EE901A10EEEA
:1047E000900A8DED000B61F31E0003909DED020B0E
:1047F0008AE709DA9DED240B51EC190B53EC102BD1
:1048000002F0B0FC1EE020E09DED240B7CE7864228
:104810001BDAB4F1804F0DD0A4F10050B0F1FF507D
:1048200013D1002D11DB9DED240B51EC100B01F089
:1048300062FB07E09DED240B53EC102B51EC100BA9
:1048400000F0C2BC41EC100B5EE79DED240B51EC77
:10485000100B00F075FEBAF1000FCDE90E0142D148
:104860009FED710B46B3A6F1E040B0F17F600CD034
:104870005E4538D1002D00DAA7B3022F0CBF01200E
:104880004FF0FF3002F0CAFEDCE7002D01DD002C06
:104890000DDA002D01DD002C1FDB002D16DA002CB7
:1048A00014DB012F08BF9FED620B3FF42DAFB0EE7C
:1048B0004A0AF0EE6A0A27E7022F18BF002D0CD033
:1048C000012F0AD1002DFFF61FAF06E0002DB8BF63
:1048D000002C08DA012F3FF417AFB0EE480AF0EED3
:1048E000680A11E71BE0012000EBE57050EA0701C0
:1048F00015D0791EB0EE498AF0EE698A084308BFE8
:104900009FED4D8B4E480025804570DD4D494E484A
:10491000884514DDB0420DDB002C19DB2FE00120AF
:10492000FBF7D9FE16B0BDEC0E8B04B0BDE8F04D20
:1049300000F05EBDB34502DC002C09DC1FE08642BE
:1049400002DA002C1BDA03E05E452BDD002C16DDBD
:104950000220FBF7C0FE00F05BFD8DED020B53EC77
:104960001A2B51EC180B02F0B9FECDE900010399A6
:10497000019861F31E0003909DED020BC4E6022036
:10498000FBF7A9FE00F054FD10EE901A18EE900A05
:104990008DED020B8DED008B61F31E0003909DEDFC
:1049A000020BB1E69DED0E0B53EC192B51EC100BE5
:1049B00003F090F99FED260BCDE9080153EC102B85
:1049C0009DED080B51EC100B02F088FE9FED221BB1
:1049D00053EC112B03F052F89DED081B53EC112BF7
:1049E00002F07CFE9FED1E1B53EC112B3CE08CE093
:1049F000FFFF1F00FFFF0F00000000000000F03F5E
:104A00000000F03F0000F07F0000404301FCFFFF8A
:104A1000000000000000F07F000000000000000027
:104A2000364B000000000000000000000000008085
:104A3000000000000000F0FF000000000000F0BFD8
:104A40000000E0410000F043FFFFEF3F00000000E6
:104A5000000000000000D03F555555555555D53F35
:104A6000000000000000E03F03F008F89DED080B97
:104A700041EC1A0B53EC102B51EC100B02F02EFEF4
:104A800053EC1A2B02F02AFE41EC1A0B9FEDFE0BA1
:104A900053EC102B9DED080B51EC100B02F01EFE99
:104AA00041EC1B0B9FEDFA0B51EC1A0B53EC102B46
:104AB00002F014FE41EC1A0B9FEDF70B53EC102B98
:104AC0009DED080B51EC100B02F008FE53EC1A2B75
:104AD00003F000F941EC1A0B51EC1B0B53EC1A2BB1
:104AE00002F000FA0690CDE906519DED060B53EC5D
:104AF0001B2B51EC100B03F0EDF853EC1A2B02F0CA
:104B0000BDFF41EC100B00F0A1B90020B6F5801FED
:104B10000EDA9FEDE30B53EC102B9DED0E0B51ECD9
:104B2000100B02F0DBFDCDE90E016FF034000E46F4
:104B300000EB2650A0F2FF37C6F31300DA4940F02D
:104B40007F6646F040568842D8BF002408DDD7492A
:104B50008142C8BF012403DC0024A6F580167F1C17
:104B6000D348784400EBC4000F9690ED00CB9DED48
:104B70000E0B53EC1C2B51EC100B03F0ABF89DED1E
:104B80000E0B41EC1B0B53EC1C2B51EC100B02F0E9
:104B9000A9F941EC100B51EC190B53EC102B02F05E
:104BA000E1FA41EC1D0B51EC1B0B53EC1D2B02F0F9
:104BB00095FD41EC1A0BBF488DED10AB7844109574
:104BC00090ED000B4FF0005040EA660000EB84408F
:104BD0008DED080B00F5002009909DED080B53ECBE
:104BE0001C2B51EC100B03F075F89DED0E1B53ECD4
:104BF000112B02F043FF41EC100B53EC102B9DEDF9
:104C0000100B51EC100B02F069FD9DED080B41EC0F
:104C10001C0B53EC102B9DED100B51EC100B02F004
:104C20005DFD53EC1B2B02F029FF53EC1C2B03F012
:104C300051F853EC1D2B02F051FD41EC1C0B53ECD1
:104C40001A2B51EC1A0B02F049FD41EC1B0B9A4850
:104C50000621B0EE4B0AF0EE6B0A784400F01DFB23
:104C6000B0EE401AF0EE601AB0EE41DAF0EE61DA22
:104C700053EC1B2B51EC1B0B02F030FD53EC1D2BA6
:104C800002F02CFD9DED100B41EC1B0B53EC1A2B8D
:104C900051EC100B02F026F953EC1C2B02F01EFD18
:104CA00053EC1B2B02F01EF99DED100B41EC1B0B7E
:104CB00053EC102B51EC100B02F010FD41EC1D0BCE
:104CC0009FED7FEB53EC1E2B02F00CF953EC1B2BEA
:104CD00002F008F90890CDE908519DED080B53EC5E
:104CE0001E2B51EC100B02F0F5FF53EC1D2B02F0C4
:104CF000F1FF53EC1B2B02F0C1FE9DED080B41ECC4
:104D00001D0B53EC102B9DED100B51EC100B02F012
:104D1000E5FC41EC1B0B53EC1A2B51EC1D0B02F084
:104D2000DDFC9DED080B41EC1A0B53EC102B51EC04
:104D30001C0B02F0D3FC53EC1A2B02F0D3F841EC1D
:104D40001A0B51EC1B0B53EC1A2B02F0CBF80C9006
:104D5000CDE90C519DED0C0B53EC1B2B51EC100BC2
:104D600002F0B8FF53EC1A2B02F088FE41EC1B0B4B
:104D70009FED550B53EC102B9DED0C0B51EC100BD4
:104D800002F0ACFC41EC1A0B9FED510B51EC1B0BEC
:104D900053EC102B02F0A2FC41EC1B0B9FED4E0BD1
:104DA00053EC102B9DED0C0B51EC100B02F096FC0C
:104DB00053EC1B2B02F096F841EC100B484878445A
:104DC00000EBC40090ED001B51EC100B53EC112BC9
:104DD00002F088F841EC1B0B384602F01FFCCDE9CD
:104DE000080153EC1B2B51EC1A0B02F07BF841EC41
:104DF000100B3C48784400EBC40090ED00CB51EC24
:104E0000100B53EC1C2B02F06DF89DED081B53ECBE
:104E1000112B02F067F80690CDE906519DED080BC5
:104E200053EC102B9DED060B51EC100B02F052FFD2
:104E300053EC1C2B02F04EFF53EC1A2B02F04AFFEE
:104E400053EC1B2B02F01AFE41EC100B9DED261BC0
:104E500053EC102B8DED001B00959DED260B51ECB6
:104E6000100B02F03BFC9DED000B41EC1A0B53ECD8
:104E7000102B9DED260B51EC100B02F02BFF9DED3E
:104E8000061B53EC112B2FE0000000604715F73F85
:104E9000FE822B654715F73F44DF5DF80BAE543EAD
:104EA00000000000000040438E9803007AB60B001B
:104EB000B2460000E0460000EA45000000000000A5
:104EC0000000000000000840000000E009C7EE3FBD
:104ED000FD033ADC09C7EE3FF5015B14E02F3EBE4F
:104EE000764400003044000002F0F8FB53EC1A2B2B
:104EF00001F0F8FF9DED060B41EC1A0B53EC102B63
:104F00009DED000B51EC100B02F0E8FBCDE90C011C
:104F10009DED0C0B51EC1A0B53EC102B01F0E2FF42
:104F2000CDE902010C46AA498C422FDB611A0843E5
:104F300018D19DED0C0B53EC102B9DED020B51EC99
:104F4000100B02F0C7FE41EC1B0B9FEDA30B51ECC5
:104F50001A0B53EC102B01F0C5FF53EC1B2B02F086
:104F60005CFD2DD20220FBF7B6FB00F051FA10EEEB
:104F7000901A18EE900A8DED020B8DED008B61F307
:104F80001E0003909DED020BFFF7BEBB944A24F078
:104F90000041914214D39349214408437FF4EFAC7C
:104FA0009DED0C0B53EC102B9DED020B51EC100BF7
:104FB00002F090FE53EC1A2B02F02FFD7FF6DFACCF
:104FC00024F000408849894A002601EB20518242A2
:104FD0002BDA481C4FF4801121FA00F02044844A57
:104FE000C0F30A517A44A1F2FF3192ED000B814ADD
:104FF0008DED080BCA4020EA0202C0F3130040F412
:105000008010C1F1140120FA01F60992002CB8BFFA
:1050100076429DED080B53EC102B9DED0C0B51ECE3
:10502000100B02F057FECDE90C019DED0C0B51EC7D
:105030001A0B53EC102B01F055FF9FED6F0B0890EE
:10504000CDE9085153EC102B9DED080B51EC100BE2
:1050500002F044FB41EC1B0B9FED690B53EC102B52
:105060009DED080B51EC100B02F038FB9DED0C0B85
:1050700041EC1C0B53EC102B9DED080B51EC100B6D
:1050800002F028FE53EC1A2B02F0F8FC9FED5E1B99
:1050900053EC112B02F022FB53EC1C2B01F022FFEE
:1050A00041EC1A0B51EC1B0B53EC1A2B01F01AFFBD
:1050B000CDE902019DED020B53EC1B2B51EC100BC3
:1050C00002F008FE53EC1A2B02F0D8FC9DED020B07
:1050D00041EC1A0B53EC102B51EC100B02F0FEFAC2
:1050E000CDE908014A489DED080B0521784400F000
:1050F000D4F89DED081B51EC100B53EC112B02F072
:10510000EDFA9DED021B53EC112B02F0B7FCCDE93B
:1051100006019DED020B53EC1A2B51EC100B02F023
:10512000DDFA53EC1A2B01F0DDFE9FED3B0B41EC59
:105130001A0B53EC102B9DED060B51EC100B02F0EB
:10514000C9FD9DED060B41EC1B0B53EC102B9DEDA7
:10515000020B51EC100B02F0C1FA53EC1B2B02F0C6
:1051600001F853EC1A2B02F0B5FD9DED021B53EC38
:10517000112B02F0AFFD53EC192B02F07FFCCDE9AF
:10518000020101EB065001150029C8BF039015DC90
:105190009DED020B324651EC100B03F0AFFAFEF717
:1051A00083FF042808BF00F043F932469DED020B4F
:1051B00051EC100B03F0A2FACDE902019DED020BB8
:1051C00051EC180B53EC102B02F088FAFFF73ABBA6
:1051D0000000904000000000FE822B654715973CC0
:1051E00000CC904000346F3F01FCFFFF0000E03F27
:1051F000B8420000FFFF0F0000000000432EE63F12
:10520000396CA80C615C20BEEF39FAFE422EE63FF5
:105210008841000000000000000000000000004085
:1052200000B52DED048BB0EE409AF0EE609A83B09D
:1052300051EC190B02F04AFC41EC180B18EE100A65
:1052400018EE901A8DED008B002818BF012008433E
:1052500020F00040C0F17F6000F1E040C00F14D0AA
:1052600019EE101A19EE900A8DED009B002918BF57
:105270000121084320F00040C0F17F6000F1E040D0
:10528000C00F04BF0120FBF726FAB0EE480A03B0B6
:10529000F0EE680ABDEC048B00BD70B504462DED40
:1052A000028B4D1E00EBC500B0EE408AF0EE608A26
:1052B00090ED000B35F0060017D053EC182B51EC95
:1052C000100B02F00BFA41EC100B6D1E04EBC50045
:1052D00090ED001B51EC100B53EC112B01F002FE72
:1052E00041EC100B35F00600E7D1022D36D0042D2D
:1052F0001CD0062D1CBFBDEC028B70BD53EC182BCF
:1053000051EC100B02F0EAF994ED0A1B53EC112B4F
:1053100001F0E8FD53EC182B02F0E0F994ED081BC6
:1053200053EC112B01F0DEFD41EC100B53EC182B6C
:1053300051EC100B02F0D2F994ED061B53EC112B3B
:1053400001F0D0FD53EC182B02F0C8F994ED040BDA
:1053500053EC102B01F0C6FD41EC100B53EC182B55
:1053600051EC100B02F0BAF994ED021B53EC112B27
:1053700001F0B8FD53EC182B02F0B0F994ED001BCE
:1053800053EC112B01F0AEFDBDEC028B41EC100B88
:1053900070BD0000000000009FED070B10B553EC3E
:1053A000102B9FED070B51EC100B01F0DBFE41ECD5
:1053B000100B10BD00000000000000000000000005
:1053C000000000000000F03F10B553EC102B51EC32
:1053D000100B01F087FD41EC100B10BD10B553EC24
:1053E000112B51EC100B01F07DFD41EC100B10BDA9
:1053F0009FED050B10B553EC102B51EC100B01F089
:10540000B1FE41EC100B10BD0000000000000000D8
:105410009FED050B10B553EC102B51EC100B02F067
:105420005DF941EC100B10BD0000000000000070A1
:105430009FED050B10B553EC102B51EC100B02F047
:105440004DF941EC100B10BD0000000000000010F1
:10545000B5EEC00AF1EE10FA01D2B1EE400ABDEE8F
:10546000C00AB8EEC00A704710B541EC100BFEF749
:1054700043FE51EC100B10BD70B58AB0002401251D
:1054800003940E260494CDE90645CDE9085605940B
:1054900000940194029469461548FBF755FC1448A2
:1054A000FBF78CFF02211248FBF7CDFB0094CDE9FE
:1054B0000645CDE9044608950194029469460D48D5
:1054C0000394FBF741FC0B48FBF778FF02210948E6
:1054D000FBF7B9FB06480068416941F002014161F0
:1054E00004480068416941F0020141610AB070BDA1
:1054F000640300208C03002038B50F4800210068A9
:10550000026842680092C26842F01002C2600A4C0F
:105510000A4A94F83E0020280DD13223A262A385C6
:1055200021642168A06B091DFCF710F9206841690E
:1055300041F04001416138BDF8030020906A00202D
:1055400082B0CDE9000121F0004001909DED000BFB
:1055500002B051EC100B7047FCF744FAFEF7B4F9B7
:10556000FDF762FAFDF7E8F9FDF7A2F9FDF7C2F9D8
:10557000FDF788FAFDF7A2FAFDF7F4F900F007F855
:10558000FEE701460020842900D0C81C704710B5F2
:1055900000F0CCFE002010BD38B5D0E9011204683F
:1055A0003AB1C3682BB100200090204600F0C5FF3F
:1055B00038BD2046BDE83840002200F09DBF7FB5D1
:1055C0000D4604464169B0F9080081B1A16971B185
:1055D000FFF7D7FFD4E905128DE80700D4E90010E2
:1055E0002B46226901F083F9039004B070BDFFF7E8
:1055F000C8FF03A9CDE90001208A2B4682B2D4E975
:10560000001001F047F9012801D00020EDE70398D0
:10561000EBE700B5F0EE412A014600F00DF891ED00
:105620000D0AF0EE620A01F1440000F005F891ED78
:105630001E0A81ED220A00BD80ED050AC0ED060AB2
:1056400090ED071A70EE600A80ED081AC0ED070AA7
:1056500090ED000A60EE201AC0ED0A1A90ED0B0AD8
:1056600090ED012A02EE200A70EEC10A80ED0B0ACD
:1056700090ED021A20EE812A80ED0C2AD0ED030A6B
:10568000B1EE601AB4EEC10AF1EE10FA02D8B0EE33
:10569000410A06E0B4EEE00AF1EE10FA01DBB0EEEA
:1056A000600A80ED0B0A31EE800A30EE020A80EDCE
:1056B0000D0AD0ED040AB1EE601AB4EEC10AF1EEA3
:1056C00010FA02D8B0EE410A06E0B4EEE00AF1EEBC
:1056D00010FA01DBB0EE600A80ED0D0A704710B5DC
:1056E00080ED050AC0ED060AFDEEE00ABDEEC00A37
:1056F000044610EE901A10EE100AFBF7BFF900EE08
:10570000100AF8EEC00AC4ED070A94ED000A20EE74
:10571000202A84ED0A2A94ED0B0A94ED011A01EE79
:10572000200A84ED0B0A94ED081AD4ED021A30EE2B
:10573000C11A61EE212AC4ED0C2A94ED031AF1EE90
:10574000411AB4EEE10AF1EE10FA02D8B0EE610AA5
:1057500006E0B4EEC10AF1EE10FA01DBB0EE410A48
:1057600084ED0B0A32EE000A30EE220A84ED0D0AB7
:1057700094ED041AF1EE411AB4EEE10AF1EE10FADA
:1057800002D8B0EE610A06E0B4EEC10AF1EE10FAFA
:1057900001DBB0EE410A84ED0D0AC4ED080A10BD2C
:1057A0002DE9F041184C0F460546E6682068001DBB
:1057B00000F008FC38B9206890F82C1001208840CF
:1057C000216981432161681C07D137B12168BDE897
:1057D000F0410E48091D00F039BC20683544B5423F
:1057E0004560216805D2A06BBDE8F041091D00F0BD
:1057F00015BC606B091D00F011FCA06A854200D247
:10580000A562BDE8F081000034000020C005002042
:105810002DE9F041054600F025FC2E4CA068401C07
:10582000A06020682C4F10B1606940B32DE0256066
:10583000A068012829D1002606EB860007EB80002E
:1058400000F0DEFB761C072EF6D323488C3000F0E8
:10585000D7FB2148A03000F0D3FB1F48B43000F044
:10586000CFFB1D48C83000F0CBFB1B48DC3000F0FC
:10587000C7FB19488C3060631430A06305E02068D2
:10588000E96AC06A884200D82560606A401C60628C
:10589000E96A0120226988401043206101EB810000
:1058A00007EB8000291D00F0D1FB00F0FBFB6069D5
:1058B00000280CD02068E96AC06A884207D20749EC
:1058C0004FF080500860BFF34F8FBFF36F8FBDE87C
:1058D000F081000034000020E404002004ED00E02A
:1058E00030B4026C0B46002A0BD0C1681144C16071
:1058F0008468A14201D30168C16030BC1846FAF740
:1059000022BE30BC70472DE9F041856B1746044636
:105910000026026C82B1C7B1E068FAF714FEE168B4
:10592000206C091AE1602268914202D2A168081A2B
:10593000E060022F16D017E02068A8B9A06801F037
:105940007BF806460020A0600EE06068FAF7FBFDD9
:10595000216C606808446060A168884204D32068B4
:10596000606001E005B16D1E6D1CA5633046BDE8A9
:10597000F08110B5044690F8510058B101280CD0C0
:1059800002280FD0502080F31188BFF34F8FBFF350
:105990006F8FFEE7206B00F099FB2046BDE81040BA
:1059A00000F094BB10BD00000F4845F6A03142073F
:1059B00005D0C01D0C4A20F00700821A891A0B4A34
:1059C00000230144C2E900030839183A21F0070115
:1059D00011604B600B600B1AC0E9001393604FF02D
:1059E0000040536050617047D405002088000020BB
:1059F000144E154CA6F1C8074FF08058DFF84C90B4
:105A000012E000BF00F02EFBF068C568281D00F012
:105A1000D9FAA068401EA0606068401E606000F077
:105A200041FB2846FFF7A5FF60680028EAD13868E7
:105A30000128F9D9C9F80080BFF34F8FBFF36F8FEA
:105A4000F2E70000AC0500203400002004ED00E087
:105A50000346009829B10260C0E90F31012100F02E
:105A60009FBD0060F8E72DE9F0479A46DDE909841B
:105A700081466FF00303206B03EB82021044089E03
:105A800020F00707780707D0502080F31188BFF374
:105A90004F8FBFF36F8FFEE7002561B10020231801
:105AA0000A5C83F834200A5C12B1401C1028F6D33B
:105AB00084F8435001E084F83450072E00D30626C2
:105AC000E662C4E91165201D00F0A5FA04F1180092
:105AD00000F0A1FA2461C6F107006462A061E564E8
