:020000040800F2
:10000000A8B100204D030008E73000088929000846
:10001000E53000085D0900085946000800000000AE
:100020000000000000000000000000008D02000839
:10003000B50D000800000000E90200088D4100082D
:1000400067030008670300086703000867030008E8
:1000500067030008670300086703000867030008D8
:1000600067030008670300086703000867030008C8
:10007000390C000867030008450C000867030008F6
:1000800067030008670300086703000867030008A8
:10009000090A0008670300086703000867030008EF
:1000A0006703000867030008670300086703000888
:1000B0006703000867030008670300086703000878
:1000C0006703000867030008670300086703000868
:1000D000670300089145000867030008C145000850
:1000E0006703000867030008670300086703000848
:1000F0006703000867030008670300086703000838
:100100006703000867030008670300086703000827
:1001100067030008670300085D42000867030008E2
:100120006703000867030008510C00086703000814
:1001300067030008670300086703000867030008F7
:10014000750A0008670300086703000867030008D2
:1001500067030008670300086703000867030008D7
:1001600067030008670300086703000867030008C7
:100170006703000867030008670300080000000029
:1001800067030008670300086703000867030008A7
:100190006703000867030008670300086703000897
:1001A00000000000000000006703000800F002F8F3
:1001B00000F05CF80AA090E8000C82448344AAF1A5
:1001C0000107DA4501D100F051F8AFF2090EBAE8A3
:1001D0000F0013F0010F18BFFB1A43F0010318477B
:1001E00068A1000088A100000A444FF0000C10F83C
:1001F000013B13F0070408BF10F8014B1D1108BFA5
:1002000010F8015B641E05D010F8016B641E01F844
:10021000016BF9D113F0080F1EBF10F8014BAD1C94
:100220000C1B09D16D1E58BF01F801CBFAD505E0B2
:1002300014F8016B01F8016B6D1EF9D59142D6D30C
:10024000704700000023002400250026103A28BF34
:1002500078C1FBD8520728BF30C148BF0B60704738
:100260001FB508F099FF1FBD10B510BD00F07AFA58
:100270001146FFF7F5FF05F08BFE00F098FA03B486
:10028000FFF7F2FF03BC00F0FDFA00002C4B1968E9
:100290000868B0E8F04F80F30988BFF36F8F4FF024
:1002A000000080F3118870470000000008480068D3
:1002B000006880F308884FF0000080F3148862B66D
:1002C00061B6BFF34F8FBFF36F8F00DF00BF00BF7A
:1002D00008ED00E0DFF80C00016841F470010160F6
:1002E000704700BF88ED00E0EFF30980BFF36F8F28
:1002F000134B1A681EF0100F08BF20ED108A20E97A
:10030000F04F106009B44FF0500080F31188BFF334
:100310004F8FBFF36F8F06F0F1FE4FF0000080F3B8
:10032000118809BC19680868B0E8F04F1EF0100F7A
:1003300008BFB0EC108A80F30988BFF36F8F704755
:1003400034000020EFF30580704700000948804723
:1003500009480047FEE7FEE7FEE7FEE7FEE7FEE7A7
:10036000FEE7FEE7FEE7FEE704480549054A064BBF
:10037000704700004D420008AD010008A871002040
:10038000A8B10020A8910020A89100209FED1A1A82
:10039000F5EE000A40EE010ABDEEE00AF5EEC00AF5
:1003A00010EE100AF1EE10FA38BF401E00EE100AEF
:1003B0001349F7EE001AB8EEC00A30EEC00ADFEDBE
:1003C0000F0A20EE200AFCEEC00A10EE900AC0F3DD
:1003D000080000EE900A01EB8000F8EE600A90ED54
:1003E000011A70EE600A90ED000A71EEE01A21EE3B
:1003F000800A00EE810A704783F9223E0000004423
:10040000CC990008B5EEC00AF1EE10FA07D2DFED84
:100410001E0AB4EEE00AF1EE10FAA8BF7047DFED55
:100420001B0AB5EEC00A60EE200ABDEEE01A11EE1E
:10043000100AF1EE10FA38BF401E00EE100A1549FE
:10044000F7EE001AB8EEC00A30EEC00ADFED100A6F
:1004500060EE200ABCEEE00A10EE100AC0F30800BD
:1004600000EE100A01EB8000B8EE400A90ED011A90
:1004700070EEC00A90ED000A71EEE01A21EE800ADB
:1004800000EE810A70470000CD024CB483F9223E91
:1004900000000044CC99000853EA020C00F0698087
:1004A0002DE9F04B4FF00006002B1FBFB3FA83F588
:1004B00003FA05F424FA05F65E4012BF1643B2FAB9
:1004C00082F502FA05F4C5F120051EBF22FA05FCEB
:1004D00044EA0C04203556EA044C4FEA144418BF91
:1004E000641C4FF000084FF00009904271EB030CC0
:1004F00039D3002919BFB1FA81F701FA07F6B0FA2A
:1005000080F700FA07F6C7F120071EBF20FA07FCA4
:1005100046EA0C062037B6FBF4FCA7EB0507103FB4
:1005200007F01F0BCBF120060CFA0BFB2CFA06F69A
:1005300044BFB3460026202FA4BF5E464FF0000BF9
:100540005BEA060C08BF4FF0010B19EB0B09ABFB84
:10055000027C48EB0608C01B06FB02CC0BFB03CC5D
:1005600071EB0C01C1E70B46024641464846BDE827
:10057000F08B13B54FF000004FF00001AFF3008097
:10058000BDE81C407047032A40F2308010F0030C95
:1005900000F0158011F8013BBCF1020F624498BFD6
:1005A00011F801CB00F8013B38BF11F8013BA2F173
:1005B000040298BF00F801CB38BF00F8013B11F0EE
:1005C000030300F02580083AC0F0088051F8043B8E
:1005D000083A51F804CBA0E80810F5E7121D5CBFFB
:1005E00051F8043B40F8043BAFF30080D20724BF2E
:1005F00011F8013B11F801CB48BF11F8012B24BFC2
:1006000000F8013B00F801CB48BF00F8012B704710
:1006100010B5203AC0F00B80B1E81850203AA0E89D
:100620001850B1E81850A0E81850BFF4F5AF5FEAD1
:10063000027C24BFB1E81850A0E8185044BF18C984
:1006400018C0BDE810405FEA827C24BF51F8043B2B
:1006500040F8043B08BF7047D20728BF31F8023B7F
:1006600048BF11F8012B28BF20F8023B48BF00F813
:10067000012B70474FF000020429C0F0128010F0E7
:10068000030C00F01B80CCF1040CBCF1020F18BF6E
:1006900000F8012BA8BF20F8022BA1EB0C0100F001
:1006A0000DB85FEAC17C24BF00F8012B00F8012BD4
:1006B00048BF00F8012B70474FF0000200B5134609
:1006C00094469646203922BFA0E80C50A0E80C5072
:1006D000B1F12001BFF4F7AF090728BFA0E80C5023
:1006E00048BF0CC05DF804EB890028BF40F8042B1C
:1006F00008BF704748BF20F8022B11F0804F18BF89
:1007000000F8012B704770477047704710B500F034
:1007100009F8006810BD10B5044600F003F8046045
:1007200010BD000000487047487100201FB584B01C
:1007300000200A9C06AB04AA02A90094AFF3008033
:1007400018B1DDE9020108B010BD0348204000F0F7
:1007500037F800200146F6E70000207C004870478B
:10076000487100207546FFF7F9FFAE46050069465F
:10077000534620F00700854618B020B5FFF7F4FD7A
:10078000BDE820404FF000064FF000074FF0000892
:100790004FF0000B21F00701AC46ACE8C009ACE813
:1007A000C009ACE8C009ACE8C0098D46704710B577
:1007B0000446AFF300802046BDE81040FFF75FBD60
:1007C00010B500F009F8BDE81040AFF30080002834
:1007D00001D000F057B8704710B5022803D041018E
:1007E00003D50DA112E0002010BD010101D50FA11C
:1007F0000CE0C10001D511A108E0810001D512A1D2
:1008000004E0400001D513A100E0002115A000F094
:100810003FF8012010BD0000496E76616C696420CC
:100820004F7065726174696F6E000000446976698B
:100830006465204279205A65726F00004F766572B8
:10084000666C6F7700000000556E646572666C6FB1
:1008500077000000496E6578616374205265737596
:100860006C7400005349474650453A204172697400
:10087000686D6574696320657863657074696F6E0F
:100880003A20000001491820ABBEFEE72600020016
:1008900070B505460C460A2000E06D1C00F011F80A
:1008A00035B128780028F8D102E0641C00F009F87E
:1008B00014B120780028F8D1BDE870400A20AFF3C9
:1008C000008008B569468DF800000320ABBE08BD66
:1008D000704700000A4C00BF06F06EFA05F0B4FA4B
:1008E00005F026FB02F052F805F070FB00F0F8F876
:1008F000206A804706F080FA002006F045FBEBE70F
:100900002801002010B5114CA178491CC9B2A17072
:10091000642916D290ED000A0D4A10EE101ADFED90
:100920000D0A914202DD30EE600A06E010EE101A68
:10093000094A914205D930EE200A80ED000AFFF7FE
:10094000E1FFA078401EA07010BD00009C000020B8
:10095000000034430000B443000034C3FEE700004D
:100960008EB0274E4FF0FF3840F2092709AD4246BE
:1009700005A9306806F062FD059CBC420CD114222A
:1009800029466846FFF744FE0DF1180C20469CE806
:100990000E0002F00DFAEAE7A4F50071013914D057
:1009A000A4F5407101391DD0B4F5C06FDFD1142218
:1009B00029466846FFF72CFE1248DDE90612D0F8FA
:1009C0002CC02046089BE047D1E714222946684600
:1009D000FFF71EFE0DF1180C20469CE80E0002F0F9
:1009E000B3F9C4E7142229466846FFF711FE0DF15A
:1009F000180C20469CE80E0002F076FBB7E70000DA
:100A00001800002028010020014800F068BB000009
:100A1000DC0300208EB0164E4FF0FF3709AD3A468A
:100A200005A9306806F00AFD059CA4F20120032800
:100A30000CD8142229466846FFF7EAFD0DF1180C80
:100A400020469CE80E0002F095F9E8E7A4F20520A4
:100A50000328E4D8142229466846FFF7D9FD0DF192
:100A6000180C20469CE80E0002F0C2F9D7E70000FF
:100A70001C000020014800F032BB000004040020EC
:100A800008B506F017FE0090034800F039F902217E
:100A9000684606F033FAF7E78001002030B50F4AC8
:100AA0000121002819D0134600F580740A2807D2C6
:100AB00002F8011B491CC9B20A29F9D3002108E038
:100AC00001F16405491CC9B202F8015B0A29F7D398
:100AD000012199725872A3F80B4030BD396F002084
:100AE00009489FED080A80ED2D0A9FED080A80ED68
:100AF0001D0A9FED070A80ED0D0A9FED060A80EDA5
:100B00003D0A704700003443487000200000F44262
:100B10000000F0420000EC4230B50020094B0124F7
:100B2000024600BF00EB800103EB81010D8A35B165
:100B30008C74401CC0B20A820428F3D330BD8A747E
:100B4000F7E70000B66F002030B50020094B012404
:100B5000024600BF03EB80114D8D3DB181F82C4062
:100B6000401CC0B24A850428F4D330BD81F82C2043
:100B7000F6E700004870002005480021028D1AB1F8
:100B800080F82A1001857047012280F82A20F9E7B1
:100B90004C6D0020002010B50649012302468C89C7
:100BA00034B18A73401CC0B28A810428F7D310BDC7
:100BB0008B73F7E78C6D002004480021028A12B184
:100BC00081740182704701228274FAE728010020B3
:100BD000401AB0F5805F03DDA0F5F850FF3870478C
:100BE00010F5805FFBDA41F6FF71084470470000A2
:100BF00008B506F05FFD0E4D012600270D4C009054
:100C0000FFF7BAFF95F82A0001280ED084F81F706C
:100C1000FFF7D2FFFFF7BEFFFFF796FFFFF77CFF5E
:100C2000C821684606F06AF9EAE7E677F0E70000CF
:100C30004C6D0020EC000020014800F01DBD0000BC
:100C400058050020014800F017BD0000B80500203D
:100C5000014800F011BD0000F804002001681823CD
:100C6000CAB2103AB2FBF3F2054B6FF30901032A43
:100C70009B5CC36500D9091D81650846704700006B
:100C8000AC96000810B5014600208B698A6A4FF0C7
:100C9000C07453B1B3F5005F15D072B1012A0CD006
:100CA000022A0AD0032A09D104E01AB1012A06D087
:100CB000022A03D1C96AC90100D5012010BDC96A41
:100CC000A142FAD010BD002AF7D0012AF2D0022AA0
:100CD000F3D0032AF3D010BD30B50468256825F49D
:100CE00080252560046863608368402B036803D017
:100CF00099600068C26030BD9A600068C16030BD14
:100D00002DE9F04186B08046002002900390082033
:100D1000049040F2751000902148224E234F90F825
:100D20002610D6E9004561F3451490F83A1061F3B6
:100D30000414817C90F84E0061F3C71460F38614AC
:100D4000194890F86C1061F3410490F8AC1061F30D
:100D5000000490F82C1090F8EC0061F3C30460F3E9
:100D6000820497F8200060F30F24786808F0BCFA3A
:100D700060F31325F86808F0B7FA60F31F55C6E969
:100D80000045C8F800407168C8F8041000234246C6
:100D90006946074800F03AF806B0BDE8F081000067
:100DA000B66F00207801002048700020EC00002081
:100DB000DC030020704772B6FEE7000010B558B1A2
:100DC000084C491E0BD310F8013B5340DBB234F8FA
:100DD000133083EA1222F4E74FF6FF7010BD10467D
:100DE00010BD0000CC97000890F82020012A07D001
:100DF000022A05D0416A41F48021416201207047F6
:100E0000006842690A43426100207047F0B590F8DB
:100E100020500468A468012D05D0022D03D0416A3A
:100E200041F480215DE014F0406F01D1E50055D51B
:100E3000C4F30164022C03D9416A41F4000150E07B
:100E40000125A5401D608D684FF4C0739DB1CE682B
:100E500035434E6845EAC605066803EB0417F551AD
:100E60004FF4C275076805EB04150E697E51097DC4
:100E7000012905D009E00E88CD6845EA4655EBE723
:100E800001684E5946F480764E511179D5795679DC
:100E900041EA056195792D0445EA062529434FF479
:100EA000C676056806EB0416A9511178D57841EA93
:100EB0000561957852782D0445EA022211434FF4DA
:100EC000C475026805EB04155151006803EB041169
:100ED000425842F0010242500020F0BD416A41F404
:100EE000001141620120F0BD10B590F82020012AC8
:100EF00007D0022A05D0416A41F4802141620120D5
:100F000010BD3B48D0F8002242F00102C0F8002298
:100F1000D0F8002222F47C52C0F80022D0F800223F
:100F20004B6A42EA0322C0F800220A7D02F01F0346
:100F300001229A40D0F81C329343C0F81C32CB698E
:100F4000B3B9D0F80C329343C0F80C328C894B689B
:100F500064F31F434C6900EBC404C4F840320C89AD
:100F60000B6864F31F434C6900EBC404C4F84432BB
:100F7000CB69012B16D1D0F80C321343C0F80C32D8
:100F80000C884B6864F31F434C6900EBC404C4F83D
:100F900040320C89CB6864F31F434C6900EBC404F6
:100FA000C4F844328B69002BD0F804320ED01343BE
:100FB000C0F804320B69002BD0F8143208D0134368
:100FC000C0F81432096A012904D008E09343EFE71E
:100FD0009343F5E7D0F81C121143C0F81C12D0F867
:100FE000001221F00101C0F80012002010BD000025
:100FF00000640040704730B590F82040012C05D0C7
:10100000022C03D0416A41F480215DE0046800298C
:1010100055D02469A40754D04FF4D874056804EB64
:1010200001142D5915F00405956005682D594ED011
:10103000ED08556005682C5904F00204D4604FF4A3
:10104000DA74056804EB01142D5905F00F051561DC
:1010500005682D59C5F30725956105682C59240CA1
:1010600054614FF4DC72046802EB0112A4581C7046
:101070000468A458240A5C700468A458240C9C706A
:101080000468A258120EDA704FF4DE72046802EBA4
:101090000112A4581C710468A458240A5C710468E5
:1010A000A458240C9C710468A258120EDA710068CE
:1010B00081B1016941F020010161002030BDE46887
:1010C000A8E7416A41F400114162012030BD6D0D75
:1010D0001560AFE7C16841F02001C160EDE72DE97F
:1010E000F05F0546006800244669D0F804908768E0
:1010F000D0F80CB0D0F810A0D0F81880F10748D084
:10110000F90714D001218160B80703D5284600F003
:1011100052FA0CE0780702D54FF4006407E0380774
:1011200002D54FF4805402E0284600F043FAF80557
:1011300016D529684FF480708860B80503D5284615
:1011400000F03BFA0CE0780502D544F4005407E0C7
:10115000380502D544F4804402E0284600F02CFA19
:10116000F80316D529684FF480308860B80303D59A
:10117000284600F024FA0CE0780302D544F4004439
:1011800007E0380302D544F4803402E0284600F03A
:1011900015FA300707D55FEACB6004D5296810201F
:1011A00044F40074C86070074FF0080707D55FEA81
:1011B0000B7004D52868C760284600F099F9B0077D
:1011C00006D52868C068800702D0284600F092F94A
:1011D000700607D55FEACA6004D52968102044F478
:1011E00080640861B00607D55FEA0A7004D52868F4
:1011F0000761284600F0AEF9F00606D528680069B8
:10120000800702D0284600F0A6F9B00308D55FEAAF
:10121000C96005D5296810204860284600F09CF96F
:10122000F00307D55FEA097004D5286847602846AF
:1012300000F0C6F9300446D55FEA497040D5F005A4
:1012400004D55FEAC87001D044F00104B00504D5AC
:101250005FEA887001D544F00204700504D55FEAA6
:10126000487001D544F00404300529D518F0700FFA
:1012700026D008F07000402815D006DC102809D0D0
:1012800020280AD0302816D10AE050280ED0602835
:1012900011D10EE044F008040DE044F010040AE01F
:1012A00044F0200407E044F0400404E044F08004EB
:1012B00001E044F480742868816921F07001816143
:1012C000296804204860002C05D0686A20436862C1
:1012D0002846FFF78FFEBDE8F09F70B5040003D0ED
:1012E00094F8200010B104E0012070BD204600F009
:1012F00081F82068016841F00101016000F034FCD0
:101300000546052604E000F02FFC401B0A2811D8F2
:1013100020684068C007F6D02068016821F002010B
:10132000016000F021FC05460BE000F01DFC401BB5
:101330000A2806D9606A40F40030606284F82060B0
:10134000D2E7206840688007EFD4207E012820681B
:1013500001683DD021F080010160607E0128206895
:10136000016838D021F040010160A07E012820688A
:10137000016833D021F020010160E07E012820685F
:1013800001682ED041F010010160207F0128206803
:10139000016829D021F008010160607F01282068E0
:1013A000016824D021F004010160D4E9020108435E
:1013B000D4E90412114308436168491E08432168B7
:1013C000C86100206062012084F82000002070BD08
:1013D00041F08001C0E741F04001C5E741F0200144
:1013E000CAE721F01001CFE741F00801D4E741F04E
:1013F0000401D9E7F0B587B0044614216846FFF729
:101400005BF9364B3648DFF8D0E01968D4F800C0F5
:10141000334A03250226092710300024491CF445CD
:1014200022D11960012907D1016841F000710160E2
:10143000006800F000700590106840F0080010602F
:101440001068CDE9005600F00800CDE90470694647
:101450002448CDE9024500F06DFA00220521142050
:1014600000F020FC142033E0DFF87CE0F44531D1BB
:10147000D0F800C04CF0806CC0F800C0D0F800C0BC
:1014800001290CF0806CCDF814C0196007D10168F7
:1014900041F000710160006800F000700590106874
:1014A00040F002001060106802AB00F002000590EE
:1014B0004FF44050CDE9000683E8B00069460B4880
:1014C00000F038FA00220521402000F0EBFB40201C
:1014D00000F0DAFB07B0F0BD0064004020000020FF
:1014E00030380240000C0240006800400004024016
:1014F0007047000010B5124A016891420BD1114BA0
:101500000021A3F11C02FFF776FD00230D491A46C6
:101510001C390D480EE00D4A914210D1094B0021B3
:101520002433A3F11C02FFF766FD00230549084898
:101530001A4608310068BDE8104005F01FBF10BD15
:10154000006400400C630020180000200068004088
:101550001C000020704770477047000070B50446BB
:1015600090F82000012804D0606A40F400206062F6
:1015700018E0022084F820002068016821F00101B1
:10158000016000F0F1FA05460EE000BF00F0ECFA51
:10159000401B0A2808D9606A40F4003060620520C8
:1015A00084F82000012070BD20684068C007EDD19C
:1015B000606270BD704770477047704770477047F2
:1015C00070472DE9F0410446876D00F0CDFA0646DC
:1015D00094F835000025022806D08020606584F844
:1015E00034500120BDE8F0812068016821F0160127
:1015F00001602068416921F080014161206C08B9D7
:10160000A06C20B12068016821F008010160206809
:10161000016821F0010101600CE000F0A5FA801BD7
:10162000052807D920206065032084F8350084F858
:101630003450D7E720680068C007EED194F85C10FA
:101640003F208840B860012084F8350084F8345089
:101650000020C7E790F83510022903D080214165AA
:1016600001207047052180F835100068016821F0DD
:1016700001010160002070472DE9F84304464FF056
:101680000009CDF8009063484FF41651A56D00682D
:10169000B0FBF1F72E6894F85C10082000FA01F115
:1016A00031420FD021680A6852070BD50A6822F030
:1016B00004020A6094F85C108840A860606D40F0F5
:1016C0000100606594F85C104FF0010808FA01F021
:1016D000304208D021684969090604D5A860606DC8
:1016E00040F00200606594F85C10042088403042AD
:1016F00008D021680968890704D5A860606D40F0AA
:101700000400606594F85C1010208840304218D0C6
:1017100021680968090714D5A86020680168490391
:1017200004D50068000308D5A16C07E00168C9056D
:1017300003D4016821F008010160216C09B1204641
:10174000884794F85C1020208840304231D02168CE
:101750000968C9062DD5A86094F8350005282068C9
:10176000016806D0490347D5006800031DD4616CA9
:101770001CE021F0160101602068416921F0800120
:101780004161206C08B9A06C20B12068016821F08B
:101790000801016094F85C103F208840A86084F83C
:1017A000358084F83490216D1FE0E16B09B120464B
:1017B0008847606D00282BD0606DC00714D00520CD
:1017C00084F835002068016821F00101016000986B
:1017D000401C0090B84203D820680068C007F6D1CA
:1017E00084F8358084F83490E16C002910D001B081
:1017F0002046BDE8F04308470168C905D5D4016813
:1018000021F01001016084F8358084F83490CCE731
:10181000BDE8F883300000202DE9F041044600F0D7
:10182000A3F906465CB1022084F83500002584F84F
:1018300034502068016821F0010101600DE00120B1
:10184000BDE8F08100F090F9801B052805D9202023
:101850006065032084F83500F2E720680068C0075F
:10186000F0D12268116820480140D4E901031843EF
:10187000D4E903363343184363691843A369184313
:10188000E3691843236A18430843616A042903D1B2
:10189000D4E90B1319430843106020684069666A55
:1018A00020F0070130460E43012704280CD1A06A1E
:1018B0000643E06A40B12046FFF7E4F920B140203A
:1018C000606584F83570BAE7206846612046FFF706
:1018D000C5F994F85C203F2191408160656584F8EA
:1018E00035700020ACE700003F8010F070B5044672
:1018F00090F83400002501280CD0012084F8340031
:1019000094F835600020012E06D084F834000225BA
:10191000284670BD022070BD022684F835606065DF
:101920002046FFF7D9F92068016841F00101016004
:10193000EEE700002DE9F84FDFF8F8A100220124BE
:1019400003254FF00F090AF1040BAAF1040E00BFA2
:101950000B6804FA02F63340B34270D10F7907F0F6
:101960000307012F01D0022F16D187684FEA4208E2
:1019700005FA08FC27EA0C07D1F80CC00CFA08FCA1
:101980004CEA070CC0F808C04768B7430E79C6F3A5
:10199000001696403E4346600E79F643B6070AD0DD
:1019A000C7684FEA420C05FA0CF6B7438E6806FA90
:1019B0000CF63E43C6600E7906F00306022E10D1E7
:1019C000D60800EB8608D8F8206057074FEAD76C96
:1019D00009FA0CF7BE430F6907FA0CF73743C8F84A
:1019E000207006684FEA420C05FA0CF7BE430F79E7
:1019F00007F0030707FA0CF7374307604E6816F441
:101A0000403F1CD04C4E376847F4804737603668FB
:101A100022F0030706F480460096484E07EB060CBA
:101A2000DCF8086897073F0F09FA07F826EA080666
:101A3000DFF80C81404503D14FF0000841E072E02F
:101A4000DFF80081404502D14FF0010839E0DFF8AE
:101A5000F880404502D14FF0020832E0DFF8EC8018
:101A6000404502D14FF003082BE0DFF8E480404509
:101A700002D14FF0040824E0DFF8D880404502D1BD
:101A80004FF005081DE0DFF8D080404502D14FF04F
:101A9000060816E0DFF8C480404502D14FF0070881
:101AA0000FE0DFF8BC80404502D14FF0080808E0A5
:101AB000DFF8B080404502D14FF0090801E04FF057
:101AC0000A0808FA07F848EA0608CCF80888DAF89D
:101AD00000605746D1F804C09E435FEACC2C00D585
:101AE0001E433E60DBF800605F46D1F804C09E43B1
:101AF0005FEA8C2C00D51E433E60DEF8006077461E
:101B0000D1F804C09E435FEA8C3C00D51E433E6082
:101B1000084F083F3E68D1F804C09E435FEACC3CC2
:101B200000D51E433E60521C102AFFF411AFBDE8E1
:101B3000F88F0000083C014044380240003001406A
:101B4000000002400004024000080240000C024075
:101B5000001002400014024000180240001C024025
:101B600000200240002402400148806870470000C5
:101B70002400002002488168027811448160704787
:101B8000240000200B4810B5016841F40071016089
:101B9000016841F480610160016841F48071016075
:101BA000032000F09FF80F2000F006F800F050F836
:101BB000002010BD003C024030B505461F4887B0EC
:101BC0000024016841F010010160006806A900F0DE
:101BD0001000009001A800F031F90498A8B100F0BD
:101BE0004DF940001649174AB0FBF1F11648491E5D
:101BF000026040F2E732C0E90324C0E901148461C5
:101C000000F046FB040003D015E000F037F9E9E7E7
:101C10000D4800F06BFB04000DD1362000F034F8C5
:101C2000102D07D200222946362000F03BF8074845
:101C3000056000E0012407B0204630BD4038024076
:101C400040420F000010004018060020280000202D
:101C50000C4882B0016841F480410160006800F4E2
:101C6000804000900748001F016841F080510160EA
:101C70000068002200F0805000900F21901E02B0FA
:101C800000F010B844380240002809DB00F01F02C1
:101C9000012191404009800000F1E020C0F80011CE
:101CA00070470000F0B40E4B1B680C46C3F30223D0
:101CB000C3F10705042D00D90425191D072901D2F8
:101CC000002300E0DB1E012606FA05F1491E214033
:101CD00099409E40761E16403143F0BC02F0E2BEB1
:101CE0000CED00E0064900F0070208684FF6FF031C
:101CF000184040EA0220034A104308607047000081
:101D00000CED00E00000FA052DE9F0470E46050055
:101D100065D0DFF81481D8F80000F7B200F00F00AA
:101D2000B04207D288F80070D8F8000000F00F0029
:101D3000B04254D128683D4C810712D5400703D5E5
:101D4000206840F4E05020602878000703D5206820
:101D500040F4604020602068A96820F0F00008434B
:101D600020602878C0072DD03049686808390128DC
:101D700012D0022813D0032811D00968890700293E
:101D80002DDA216821F0030101432160FFF7ECFE09
:101D9000814641F2883A0EE009688903EFE7096855
:101DA0008901ECE7FFF7E0FEA0EB0901514502D9FC
:101DB0000320BDE8F0872068696800F00C00B0EBF4
:101DC000810FEFD1D8F80010404601F00F01B14269
:101DD00007D90770006800F00F00B04201D0012061
:101DE000E7E72878400705D52068E96820F4E05047
:101DF000084320602878000706D52068296920F468
:101E0000604040EAC100206000F058F82168084AAC
:101E1000C1F30311515CC8400649086006480068D8
:101E2000FFF7CAFE0020C4E7003C02400838024029
:101E3000B496000830000020280000200F22026025
:101E40000C4A136803F003034360136803F0F003C4
:101E50008360136803F4E053C36012684FF4E053E7
:101E600003EAD20202610448006800F00F00086033
:101E70007047000008380240003C02400448054911
:101E800000680968044AC1F38221515CC840704768
:101E90003000002008380240C49600080448054974
:101EA00000680968044AC1F34231515CC840704778
:101EB0003000002008380240C4960008154810B5CC
:101EC000006810F00C02144813D01449042A0FD0F3
:101ED000082A0ED10F4C241F2268236802F03F020B
:101EE0005B0207D52068C0F38810A0FB010106E063
:101EF000084610BD2168C1F38811A1FB0001002331
:101F0000FEF7CAFA2168C1F30141491C4900B0FB40
:101F1000F1F010BD083802400024F400001BB700A7
:101F20002DE9F84F04006ED02078DFF84C93C007FD
:101F3000A9F104054AD009F104000168C1F3810147
:101F4000012908D00068C0F3810002280AD1D9F81D
:101F50000000400206D52868800337D56068002855
:101F6000E1D033E06068B0F5803F10D0B0F5A02F2D
:101F7000286810D020F480302860286820F4802061
:101F800028606068A8B1FFF7EFFD06460DE02868FD
:101F900040F48030F4E740F480202860F7E700BF89
:101FA000FFF7E2FD801B642873D828688003F7D50B
:101FB0000CE0FFF7D9FD064605E000BFFFF7D4FDB2
:101FC000801B6428F0D828688003F7D42078DFF8D5
:101FD000AC8280074FF0000A3ED5A748001D01687B
:101FE00011F00C0F08D00068C0F3810002280BD15B
:101FF000D9F80000400207D42868800716D5E068A9
:10200000012800D112E033E1E068B8B10120C8F83E
:102010000000FFF7A9FD064605E000BFFFF7A4FD9D
:10202000801B0228C0D828688007F7D52868216956
:1020300020F0F80040EAC10028600DE0C8F800A0D8
:10204000FFF792FD064604E0FFF78EFD801B022895
:102050001FD828688007F7D42078000722D5864F3C
:1020600087486169703771B101210160FFF77CFD1C
:10207000064604E0FFF778FD801B022809D838687F
:102080008007F7D50EE0C0F800A0FFF76DFD06460B
:1020900005E082E0FFF768FD801B02287DD83868E4
:1020A0008007F7D42078400768D5DFF8CCB1002747
:1020B0000BF13C0BDBF80000C0000BD4DBF8001088
:1020C00041F08051CBF80010DBF80000012700F050
:1020D000805000906B4E3068C00510D4306840F4DA
:1020E00080703060FFF740FD009005E0FFF73CFD99
:1020F0000099401A022850D83068C005F6D55E4EC7
:10210000A0686C3601280FD00528306810D020F068
:1021100001003060306820F004003060A068B8B181
:10212000FFF722FD00900FE0306840F00100F4E777
:1021300040F004003060F7E7FFF716FD0099411A00
:1021400041F28830814266D830688007F4D50EE0CD
:10215000FFF70AFD009007E0FFF706FD0099411A1E
:1021600041F28830814256D830688007F4D42FB1CC
:10217000DBF8001021F08051CBF80010A069C8B343
:102180003D49091D0968C1F3810102294AD002288D
:10219000504607D0C8F8600000E03CE0FFF7E4FCE0
:1021A00004463BE04746C8F86000FFF7DDFC064602
:1021B00005E000BFFFF7D8FC801B02282BD8286859
:1021C0008001F7D4D4E907010843A16A2E4A4908DF
:1021D00002EB0141626A41EA8211084394F82C1033
:1021E00040EA0161C9F8001001203866FFF7BCFC25
:1021F000044606E03EE000BFFFF7B6FC001B0228E5
:1022000009D828688001F7D534E000BFFFF7ACFC9F
:10221000001B022802D90320BDE8F88F286880013E
:10222000F4D427E00128F7D0D9F80000E26900F4DF
:10223000800191421CD1226A00F03F01914217D1E6
:1022400047F6C071626A0140B1EB821F10D1A26AE9
:102250004FF0FF3300F4403103EB5202B1EB024F79
:1022600006D194F82C1000F07060B0EB016F01D033
:102270000120D1E70020CFE70438024000004742A8
:10228000800E4742007000400000FFFF704770471B
:1022900010B5040003D094F83D0010B107E0012010
:1022A00010BD002084F83C00204600F01EF80220FB
:1022B00084F83D00211D206801F0D6FF012084F83C
:1022C000460084F83E0084F83F0084F8400084F81B
:1022D000410084F8420084F8430084F8440084F804
:1022E000450084F83D00002010BD704790F83D1077
:1022F000012901D001207047022180F83D100168BA
:10230000CA6842F00102CA6000681149884214D0CC
:10231000B0F1804F11D00F4988420ED00E4988424B
:102320000BD00E49884208D00D49884205D00D498E
:10233000884202D00C49884204D1816801F007012B
:10234000062903D0016841F00101016000207047B7
:10235000000001400004004000080040000C004064
:10236000000401400040014000180040704770B573
:102370000446006801694FF00005C943890715D478
:10238000C168C943890711D4E91E01610120207782
:10239000206880698007204602D0FFF7E7FF04E04D
:1023A00000F098F8204600F096F82577206801693B
:1023B000C943490717D4C168C943490713D46FF00B
:1023C00004010161022020772068806910F4407FB9
:1023D000204602D0FFF7CAFF04E000F07BF8204659
:1023E00000F079F8257720680169C943090716D4F8
:1023F000C168C943090712D46FF0080101610420C4
:1024000020772068C0698007204602D0FFF7AEFF22
:1024100004E000F05FF8204600F05DF825772068C2
:102420000169C943C90617D4C168C943C90613D491
:102430006FF010010161082020772068C06910F456
:10244000407F204602D0FFF791FF04E000F042F801
:10245000204600F040F8257720680169C943C90784
:1024600008D1C168C943C90704D1891E016120464A
:1024700000F032F820680169C943090609D4C1682F
:10248000C943090605D46FF0800101612046FFF7BA
:10249000FDFE20680169C943490609D4C168C943E2
:1024A000490605D46FF040010161204600F01EF896
:1024B00020680169C94389060BD4C168C9438906EC
:1024C00007D46FF0200101612046BDE87040FFF79E
:1024D000DEBE70BD7047704700680349884201D175
:1024E000FFF748BB7047000000100040704770477E
:1024F00070470000F8B5016804460868CA684B696F
:1025000010F00F0F4FF0000559D003F0010602F450
:102510009077374365D0C10705D0D10503D5216C2D
:1025200041F001012164410705D5D90703D0216C91
:1025300041F002012164810705D5D90703D0216C40
:1025400041F004012164010707D502F02001314365
:1025500003D0216C41F008012164216C00293AD09C
:10256000800604D5900602D5204601F02AFF206897
:102570004069216CC0F38010090700D460B3204685
:1025800001F0F8FE20684069400621D5206814302B
:1025900050E8001F21F0400140E80012002AF5D168
:1025A000A06BA8B16C490165A06BFFF753F8002838
:1025B00011D0A06B016D01B0BDE8F0400847830663
:1025C0000FD593060DD52046BDE8F84001F0F9BEC1
:1025D0002046FFF78DFFF8BD2046FFF789FF2564F1
:1025E000F8BD266B2023012E79D1C60677D5D606F5
:1025F00075D50868486800904869400640D5A16BC9
:10260000086840680004000CEAD0A28D8242E7D935
:10261000E085C869B0F5807F2DD020680C3050E887
:10262000001F21F4807140E80012002AF5D12068D3
:10263000143050E8001F21F0010140E80012002A88
:10264000F5D12068143050E8001F21F0400140E827
:102650000012002AF5D184F83E30256320680C3042
:1026600050E8001F21F0100140E80012002AF5D1C7
:10267000A06BFEF7A6FFA08DE18D401A81B229E084
:10268000A08DE18D401A81B2E08D0028A8D00029EC
:10269000A6D020680C3050E8002F22F4907240E859
:1026A0000026002EF5D12068143050E8002F22F0CB
:1026B000010240E80026002EF5D184F83E30256363
:1026C00020680C3050E8002F22F0100240E8002370
:1026D000002BF5D12046FFF70AFFF8BDFFE70506FE
:1026E0002BD5150629D594F83D002128F5D1A068F1
:1026F000B0F5805F01D12069B0B1206A411C216230
:10270000216800784860E08C401E0004000CE084E2
:10271000E3D12068C16821F08001C1602068C168F0
:1027200041F04001C160D8E7206A0088C0F308008A
:102730004860206A801C2062E5E74006CDD550063F
:10274000CBD5CA68204622F04002CA6084F83D30EA
:1027500000F019F9C1E700006543000870B50400F6
:1027600004D094F83D00002510B106E0012070BDB2
:1027700084F83C50204600F023F8242084F83D00E3
:102780002068C16821F40051C160204601F07AFE42
:102790002068016921F4904101612068416921F0BC
:1027A0002A0141612068C16841F40051C16025647B
:1027B000202084F83D0084F83E00002070BD000019
:1027C0002DE9F04F87B0064614216846FDF774FFE7
:1027D0006348624DD6F800C06149103802220323D5
:1027E0000024AC451CD10D6845F080450D6009689A
:1027F00001F080410591016841F01001016000681D
:10280000694600F010000590D8018DE815000820F9
:10281000CDE903305348FFF78DF807B0BDE8F08FDE
:10282000DFF8448107254FF4807A4FF4403B4FF0A6
:1028300000674FF48069C44538D14949091DD1F872
:1028400000C04CF0100CC1F800C0096801F0100184
:102850000591016841F0020101600068694600F0DD
:1028600002000590C0208DE81500CDE903353F48F2
:10287000FFF760F83F4D3E4805F118012860C5E9B3
:102880000174C5E903496C6181E8100C28466C624B
:10289000FEF7C2FF08B1FEF78EFAB56300220521EC
:1028A0002520AE63FFF7FEF9252053E0DFF8C8804E
:1028B000C445B2D1D1F800C04CF4802CC1F800C09E
:1028C000096801F480210591016841F00801016067
:1028D0000068694600F0080005904FF440708DE8EC
:1028E0001500CDE903352548FFF724F8214D24488C
:1028F0006035B8462860C5E90174C5E903496C61D3
:10290000C5E9064A2C624F4628466C62FEF784FFF2
:1029100008B1FEF750FAB563AE63164D1848C035DE
:102920003030E5E80208402091C5124845F81449C6
:10293000C030AC61C5E9074B6C62FEF76DFF08B1B2
:10294000FEF739FA7563002205212720AE63FFF7F1
:10295000A9F92720FFF798F95FE700000078004009
:1029600040380240001002400010014000040240C4
:1029700040640240F804002000480040000C02407F
:102980002860024070477047FEE700000A4982B0A5
:102990000868026842680092C26842F40052C2604D
:1029A0000868C16841F01001C16040F28512034916
:1029B000014802B001F032BEB4040020B46D002022
:1029C0002DE9F04700240746DFF834814D4D0126FC
:1029D00090E0285DA52866D105EB040940F20722A6
:1029E000B9F80500A0F20721904248D008DC03287E
:1029F0000BD0A0F50070013818D0012879D12DE056
:102A0000012952D0FB2974D162E04846292101F006
:102A100025FE00286DD009F1070120223A48FDF774
:102A2000B2FD3948293480F8206063E04846162119
:102A300001F014FEB8B3344809F107010D221F3824
:102A4000FDF7A1FDDFF8C0901634A9F11F0999F830
:102A50000000FEF723F889F80D604BE04846192185
:102A600001F0FCFDF8B1284809F1070110221138E6
:102A7000FDF789FD24481138193406743AE04846B8
:102A8000102101F0EBFD78B14946404651F8072F7F
:102A900040F8092F8A888280897981711848093025
:102AA0001034C67101E024E0641C281981460F210E
:102AB00001F0D4FDE8B1484650F8072FC8F80220CD
:102AC0008088A8F806000E48801C0F34867111E03B
:102AD0004846272101F0C2FD58B10B4809F1070112
:102AE0001E222130FDF74FFD07482130273486771D
:102AF00000E0641CBC42FFF66CAFBDE8F08700004C
:102B000064010020B46D0020656F0020F0B589B02D
:102B10000F46044620216846FDF7CEFD7348744DEC
:102B20004089A0F57F41FF397DD000202861014612
:102B3000C5F80C0034F91120002A00DC5242491C6F
:102B4000C9B210440829F5D3E860286129786E4697
:102B5000002969D0B4F9001000EE101AB8EEC01ABE
:102B600000EE100AB8EEC00AC1EE000A9FED610A3D
:102B700060EE800ACDED000AB4F9021000EE901A62
:102B8000B8EEE01A00EE900AF8EEE01AC1EE210A63
:102B900060EE800ACDED010AB4F9041000EE901A3F
:102BA000B8EEE01A00EE900AF8EEE01AC1EE210A43
:102BB00060EE800ACDED020AB4F9061000EE901A1C
:102BC000B8EEE01A00EE900AF8EEE01AC1EE210A23
:102BD00020EE800A8DED030AB4F9001000EE101A01
:102BE000B8EEC01A00EE100AB8EEC00AC1EE000A34
:102BF0009FED410A60EE800ACDED040AB4F902109F
:102C000000EE901AB8EEE01A00EE900AF8EEE01A24
:102C1000C1EE210A60EE800ACDED050AB4F9041078
:102C200000EE901A01E023E026E0B8EEE01A00EE94
:102C3000900AF8EEE01AC1EE210A60EE800ACDEDAE
:102C4000060AB4F9061000EE901AB8EEE01A00EE8B
:102C5000900AF8EEE01AC1EE210A20EE800A8DED0E
:102C6000070A00BF00F04AF8002095ED040A39E099
:102C7000E868286109B0F0BD34F9112004EB410384
:102C800000EE102A06EB8102491CF8EEC00A00EEA5
:102C9000100AC9B20429B8EEC00A80EE801A82ED8B
:102CA000001AB3F9083000EE103AF8EEC00A00EE50
:102CB000100AB8EEC00A80EE801A82ED041ADBD347
:102CC000D0E700BF06EB8001B8EEC01AD1ED000AD4
:102CD00060EE810AFDEEE00A10EE901A24F8101062
:102CE000401CC0B2B842EDDBC4E70000466F0020D4
:102CF000D40000206666E63FCDCC4C3E1048B0F9CB
:102D00000810104800EE101AC1F13C02818012B286
:102D10004280F8EEC00A90ED021A002A80EE810A85
:102D200020EE000A80ED050A09DDD0ED030AF8EE79
:102D3000E00A20EE800ABDEEC00A80ED040A70476A
:102D4000546F0020D4000020DDE9031288B243BA9A
:102D50000748090C49BA8380C18091B249BA4181C0
:102D6000110C0173C189491CC18101214173704754
:102D7000A66F002010B5A0F20120DDE9051200EBDE
:102D800080048BB209485BBA00EB8400090C838095
:102D900049BAC18091B249BA8181110C8173018A0B
:102DA000491C01820121C17310BD0000B66F0020D3
:102DB0000E48DDE9031290ED020ABCEEC00A10EEE7
:102DC000103A03838BB25BBA00EE103A090C49BA91
:102DD000B8EE400A80ED020A018291B249BA8182BE
:102DE000110C8175418D491C418570470870002088
:102DF000DDE903138AB252BA00EE102A0A4AA0F2A1
:102E00000520B8EE400A02EB8010090C80ED020AA2
:102E100049BA018299B249BA8182190C8175418DF2
:102E2000491C418570470000487000200F4810B5CC
:102E30000D4901600721416000214FF4003281609B
:102E4000C0E90312D2004261017601224276827605
:102E5000C27601774177FEF740FA002803D0BDE83B
:102E60001040FDF7A8BF10BD00640040DC03002047
:102E70000F4810B50D4901600721416000214FF452
:102E800000328160C0E90312D20042610176012262
:102E900042768276C27601774177FEF71EFA0028E5
:102EA00003D0BDE81040FDF786BF10BD00680040AC
:102EB00004040020154808B5016841F48001016050
:102EC000016801F480010091016841F40011016082
:102ED0000068002200F40010009005210C20FEF78D
:102EE000E1FE0C20FEF7D0FE002205210E20FEF7A9
:102EF000D9FE0E20FEF7C8FE002205213A20FEF77B
:102F0000D1FEBDE808403A20FEF7BEBE3038024090
:102F100030B52E4DB3B02AAC95E80F0084E80F0011
:102F200000212AA803F0DFF9294C1035A06195E8AB
:102F30000F002EAD85E80F0000212EA803F0D3F975
:102F40002249E0611C2220316846FDF761FB002127
:102F5000684603F0DBF91D4920601C223C3107A8BC
:102F6000FDF756FB002107A803F0D0F91749606070
:102F70001C2258310EA8FDF74BFB00210EA803F0D0
:102F8000C5F91249A0601C22743115A8FDF740FB59
:102F9000002115A803F0BAF90C49E0601C22903119
:102FA0001CA8FDF735FB00211CA803F0AFF9074969
:102FB00020611C22AC3123A8FDF72AFB002123A8A5
:102FC00003F0A4F9606133B030BD0000E49500085F
:102FD00000000020154808B5016841F001010160BA
:102FE000016801F001010091016841F002010160F6
:102FF000016801F002010091016841F008010160DF
:10300000016801F008010091016841F08001016050
:10301000016801F080010091016841F01001016038
:10302000006800F01000009008BD00003038024039
:103030000C4810B50A4901604FF4E13141600021AC
:1030400081600C22C160C0E904128161C161FFF797
:1030500085FB002803D0BDE81040FDF7ACBE10BDD5
:10306000007800402C0400200E4810B50C49016087
:103070000D4941604FF48051816000214FF480621E
:10308000C0E903120C22C0E90521C161FFF766FB0C
:10309000002803D0BDE81040FDF78DBE10BD000034
:1030A0000010014070040020A08601000C4810B5FB
:1030B0000A4901604FF4E1314160002181600C2236
:1030C000C160C0E904128161C161FFF747FB0028BC
:1030D00003D0BDE81040FDF76EBE10BD00480040B3
:1030E000B4040020FEE7FEE7DDE9031200EE902ABB
:1030F0009FED0A0A084880EE801A00EE901AC0E997
:10310000001261EE200A80EE801A80ED021A818999
:10311000491C8181704700008C6D002000007A44BA
:1031200070B50646C0EBC6013C483F4D00EB81043C
:103130002DED028B94ED031ADFED398A9FED398A6C
:10314000D4ED010A81EE280ABDEEC00A10EE100A85
:1031500081EE080ABDEEC00A10EE101A401A00EE09
:10316000100A606105F12000F8EEC01AB0EE600AA6
:1031700001EE880AD4ED001A30EE210A84ED010A2E
:1031800030EE410AC5ED040A85ED080AFDF7BAFBE9
:1031900095ED080A2549B0EEC00A10EE100A8842E3
:1031A00038DDE878012805D0687818B16889B0F56D
:1031B000FA7F2FD294ED010A1B48B0EE681A30EE68
:1031C000280A303084ED010AD5ED040A70EEA80A11
:1031D000C5ED040A30F81610494220F81610D4ED57
:1031E000050AF8EEE01A01EE881AB4EEC10AF1EE13
:1031F00010FA02DD30EE480A0AE0F8EEE00A50EE7E
:10320000888AB4EEE80AF1EE10FA03D230EE080A2A
:1032100084ED010ABDEC028B70BD0000706B0020D4
:10322000000034430000B4439C0000200000B4427E
:1032300070B5264BDFED260A03EB8013264D93ED88
:10324000020A254B254E20EE200ADFED220A03EB71
:103250008003103520EE200AD3ED000AC0EBC00039
:1032600005EB800070EE600A10EE904AB44202DD79
:103270000469641E06E010EE904A194DAC4202D972
:103280000469641C046183ED000A012901D1002155
:10329000016182B1012A0DD101694FF4B472514329
:1032A00000EE901AB1EE400AF8EEE00A30EE600A45
:1032B00080ED030A70BD01694FF4B472514300EE12
:1032C000901AF8EEE00A30EE800AF1E7487000202C
:1032D000000000390000B443606B0020000034435C
:1032E000000034C3194918488B69827E1A708B69B3
:1032F000C27E5A70B0F9182000EE102AB8EEC00A4B
:1033000081ED000AB0F9162000EE102AB8EEC00ACE
:1033100081ED020AB0F9122000EE102AB8EEC00AC0
:1033200081ED040AB0F9142000EE102AB8EEC00AAC
:1033300081ED030AB0F91C0000EE100AB8EEC00AD5
:1033400081ED010A704700004C6D0020EC00002068
:1033500008B504F0AFF9074C0090E07F012806D0D3
:1033600000F014F80221684603F0C8FDF5E700F00C
:1033700003F8F7E7EC00002010B500F0C9F80249A7
:103380000020088410BD0000EC00002010B5064CA1
:10339000206B804700F0E2FB606A8047FFF7A2FFE6
:1033A000BDE8104000F002B82801002070B5514C73
:1033B000BAEE041A2DED028B2246A069D2ED040A62
:1033C00092ED002AB2EE0C0AD2ED021A20EE811A1A
:1033D00062EE000A017821EE800A0025152382B0F2
:1033E000B2EE048A03290AD0022912D0032909D097
:1033F000012920D0032908D002290DD01EE04178F0
:10340000022910D0417803290DD0407801284ED0F0
:1034100014E04178032903D04078022854D00DE00D
:103420000C2020845FE0238402B0BDEC028BBDE859
:10343000704000F0C1BB4078032806D000F068F867
:10344000258402B0BDEC028B70BD202020842A4868
:103450002A4EF2EE0E0AB0F91C0000EE100AB6F980
:103460000600B8EEC00A20EE200A00EE900A2448BA
:10347000F8EEE00A02F087FFBDEEC00A00231A460C
:1034800010EE100A01B231801E48009503F06BFB6C
:1034900094ED000A60EE080A94ED020A02B020EEF4
:1034A000080ABDEC028BBDE8704000F0A3BC1720F9
:1034B000208402B062EE080A21EE880ABDEC028B7D
:1034C000BDE8704000F00CBC0B20208494ED010A94
:1034D000B5EEC00AF1EE10FA05D00B4890ED020AE5
:1034E0000A4880ED090A02B0BDEC028BBDE87040CD
:1034F00000F00EB8EC0000204C6D0020A66F0020FC
:103500001C6B0020DC030020087000209C000020C1
:1035100038B500201249134A044600BF00EB80036F
:1035200021F8234002EB8013401CC0B21C80042809
:10353000F4D300231A4619460B48009403F039FBD4
:1035400000231A4619460848009403F058FB00234C
:103550001A4619460548009403F005FB38BD0000E3
:10356000B66F00204870002004040020DC03002017
:103570002DE9F05F15462DED068B0F4606469FEDB3
:10358000FE0B01F0A1FA51EC100B04F0F3F909EE77
:10359000900A46EA0700FA4C5FEA00094FF4FA7B0A
:1035A0004FF000084FF0010A7ED084F8048084F8C0
:1035B0000180A4F8068000BF59EA05009FEDF18B59
:1035C000DFF8C8939FEDF29A6FD084F80580617898
:1035D0004046012900D0608184F803A09FEDED0AE8
:1035E000C84689ED0E0A9FEDEC0A89ED070A9FEDAA
:1035F000EB0A89ED000A9FEDEA0A89ED150AB0EEA3
:10360000690AFCF7C3FEF0EE400A00EE105A94ED92
:10361000031AB8EEC00A20EE011A00EE107AB8EED6
:10362000C00A01EE600A10EE100A05F0FFFC41EC42
:103630001A0BB0EE690AFCF7E5FED4ED030A20EEA2
:10364000201A00EE106AF8EEC00A00EE105AB8EE2A
:10365000C00A40EE410A10EE900A05F0E7FC41EC8A
:10366000100BB0EE4A1AF0EE6A1A01F099FB53EC17
:10367000182B51EC100B04F0DBFE04F07BF9B0EEDC
:10368000690AC8F83C00FCF781FEB0EE401A00EE73
:10369000105AD4ED030AB8EEC00A60EE201A00EE0C
:1036A000107AF8EEC00A01E0CFE0E4E041EE810AD2
:1036B00010EE900A05F0BAFC41EC1A0BB0EE690A64
:1036C000FCF7A0FED4ED030A20EE201A00EE106AEB
:1036D000F8EEC00A00EE105AB8EEC00A40EE410AF9
:1036E00010EE900A05F0A2FC41EC100BB0EE4A1A65
:1036F000F0EE6A1A01F054FB53EC182B51EC100B4E
:1037000004F096FE04F036F9B0EE690AC8F820001D
:10371000FCF73CFEF0EE400A00EE105A94ED031A5E
:10372000B8EEC00A20EE011A00EE107AB8EEC00A18
:1037300001EE200A10EE100A05F078FC41EC1A0B9D
:10374000B0EE690AFCF75EFED4ED030A20EE201A03
:1037500000EE106AF8EEC00A00EE105AB8EEC00A89
:1037600040EE010A10EE900A05F060FC41EC100BEF
:10377000B0EE4A1AF0EE6A1A01F012FB53EC182B65
:1037800051EC100B04F054FE04F0F4F8B0EE690AAA
:10379000C8F80400FCF7FAFDF0EE400A00EE105AFB
:1037A00094ED031AB8EEC00A20EE011A00EE107A6A
:1037B000B8EEC00A01EE600A10EE100A05F036FC01
:1037C00041EC1A0BB0EE690AFCF71CFED4ED030ABB
:1037D00020EE201A00EE106A00EE905AB8EEC00AF1
:1037E000F8EEE00A00EE810A10EE100A05F01EFC69
:1037F00041EC100BB0EE4A1AF0EE6A1A01F0D0FA62
:1038000053EC182B51EC100B04F012FE04F0B2F83C
:1038100000EE105AC8F85800B8EEC00A02F000FBDB
:1038200010EE100A5F49884201DD84F804A000EE22
:10383000106AB8EEC00A84ED050A84ED069A84ED9C
:10384000079ABDEC068BBDE8F09F00EE105A84F895
:1038500001A0B8EEC00A02F0E3FA10EE100A5249D5
:103860008842BFF6A9AEE0885845BFF4A5AE401C1B
:10387000E0800025A0E684F8038060894146584531
:1038800078D2401C60812079012874D05FF000005C
:1038900000EE100AB8EE400A84ED070AB0EE690A9D
:1038A000FCF774FDF0EE400A94ED070A94ED031A5C
:1038B00020EE011A94ED060A01EE600A10EE100ADD
:1038C00005F0B4FB41EC1A0BB0EE690AFCF79AFD67
:1038D000D4ED030A94ED071A20EE200AD4ED050A70
:1038E00041EE400A10EE900A05F0A0FB41EC100BEF
:1038F000B0EE4A1AF0EE6A1A01F052FA53EC182BA5
:1039000051EC100B04F094FD04F034F84D46B0EE89
:10391000690AC9F83C00FCF739FDF0EE400A94ED65
:10392000070A94ED031A20EE011A94ED060A01EE3F
:10393000200A10EE100A05F079FB41EC1A0BB0EEEC
:10394000690AFCF75FFDD4ED030A94ED071A20EE37
:10395000200AD4ED050A41EE400A10EE900A05F067
:1039600065FB41EC100BB0EE4A1AF0EE6A1A01F05A
:1039700017FA1BE098E095E0000000000000F03F1F
:103980009C00002000000000DCA54C40706B002073
:10399000000000000000074300002743000096429B
:1039A000000023430000C84200008C4253EC182B57
:1039B00051EC100B04F03CFD03F0DCFFB0EE690AA3
:1039C0002862FCF7E3FCF0EE400A94ED070A94ED60
:1039D000031A20EE011A94ED060A01EE200A10EEF9
:1039E000100A05F023FB41EC1A0BB0EE690AFCF754
:1039F00009FDD4ED030A94ED071A60EE200A94ED58
:103A0000050A01EE200A10EE100A05F00FFB41EC4A
:103A1000100BB0EE4A1AF0EE6A1A01F0C1F953EC3D
:103A2000182B51EC100B04F003FD03F0A3FFB0EED4
:103A3000690A6860FCF7AAFCF0EE400A94ED070AF8
:103A400094ED031A20EE011A94ED060A01EE600AC5
:103A500010EE100A05F0EAFA41EC1A0BB0EE690A12
:103A6000FCF7D0FCD4ED030A94ED071A60EE200AAF
:103A700094ED050A01EE200A10EE100A05F0D6FAC0
:103A800041EC100BB0EE4A1AF0EE6A1A01F088F918
:103A900053EC182B51EC100B04F0CAFC03F06AFF36
:103AA000A865CEE63220F3E69FED100A217189ED7C
:103AB0000E0A9FED0F0A484689ED070A9FED0D0A91
:103AC0005FF0000189ED000A9FED0B0A89ED150AF0
:103AD00084F805A0C1EBC10200EB8202491CC9B207
:103AE00082ED019A0429F5D3ABE6000000003443CF
:103AF0000000F4420000F0420000EC42DDE9032146
:103B0000B0F5C06F07D10448C0E9052100F11401E8
:103B1000088A401C088270471401002008B50A205A
:103B200000900B4808216B46016100218160C16053
:103B300040F2016101600748D0E90712C0E90312B1
:103B400000F10C0202490448FDF760F908BD0000CD
:103B50009C6D002014010020DC03002070B5104C87
:103B6000104DA07E032802D1E07E03280AD0012058
:103B700000F01CF8A96B00208847A17E0A480129A3
:103B800006D008E0002000F011F80120A96BF3E74F
:103B9000E17E012902D00121017070BD0221FBE705
:103BA0004C6D0020280100209C0000200149087075
:103BB0007047000014010020BDEEC11A2DE9F84F36
:103BC00011EE100AFDEEE00ABDEEC00A02B210EEE0
:103BD000900A3A4B01B210EE100A00B200F05CFD00
:103BE000DFF8D890364DDFF8DCA0374EDFF8DC8008
:103BF0000024A9F1300B00BF04EB840705EB87001C
:103C000004EB0411B0F9060000EE100A39F91400B3
:103C1000F8EEC00A00EE100A0AEB8100B8EEC00A06
:103C200002F0B1FBBDEEC00AC4EBC40110EE100AF5
:103C300025F827009BF8050006EB84170128B7F943
:103C4000100000EE100A08EB8100B8EEC01AD0EDAB
:103C5000030A90ED010AC4EBC40000EB80002BD0F6
:103C60001B4900BF01EB800002F07AFBBDEEC00AE9
:103C7000641CE4B210EE100A042C3880BCD3154842
:103C800002F022F9B5F93C000090B5F92830B5F9F9
:103C90001420B5F90010104802F08BFFB6F9C000EF
:103CA0000090B6F98030B6F94020B6F900100A4805
:103CB00002F0A5FFBDE8F88F0849D3E7CC0000204B
:103CC000B66F00203863002048700020706B002021
:103CD00048640020E06B0020040400207866002087
:103CE0002DE9F84F00F026F990ED010A394B3A4AD8
:103CF000BDEEC00A10EE101A90ED000A09B2BDEE3A
:103D0000C00A10EE100A00B200F0C6FCDFF8C49042
:103D1000324DDFF8CCA0334EDFF8CC80DFF8CCB0EA
:103D2000002400BF04EB840705EB870004EB0411BB
:103D3000B0F9060000EE100A39F91400F8EEC00AD6
:103D400000EE100A0AEB8100B8EEC00A02F01BFB7D
:103D5000BDEEC00AC4EBC40110EE100A25F827001E
:103D600006EB8417B7F9100000EE100A08EB81008B
:103D7000B8EEC01AD0ED030A90ED010AC4EBC400FE
:103D800000EB80010BEB810002F0EAFABDEEC00A05
:103D9000641CE4B210EE100A042C3880C2D3B5F9CA
:103DA0003C000090B5F92830B5F91420B5F90010A1
:103DB0000F4802F0FEFEB6F9C0000090B6F9803060
:103DC000B6F94020B6F90010094802F018FFBDE826
:103DD000F88F0000CC00002024FAFFFFB66F00200F
:103DE0003863002048700020706B00204864002079
:103DF000040400202DE9F04F45482DED028BF0EE34
:103E0000608AD0ED020A4348B0EE408A81B090ED5E
:103E1000090A414802F00AFBBDEEC01ABDEEE80AED
:103E20003C4B11EE100A3033404202B210EE100A41
:103E3000BDEEC80A01B210EE100A00B200F02CFC70
:103E4000DFF8D090354DDFF8D8A0364EDFF8D880B7
:103E5000DFF8D8B0002409F1300900BF04EB840773
:103E600005EB870004EB0411B0F9060000EE100A20
:103E700039F91400F8EEC00A00EE100A0AEB8100CE
:103E8000B8EEC00A02F07FFABDEEC00AC4EBC4016E
:103E900010EE100A25F8270006EB8417B7F910007A
:103EA00000EE100A08EB8100B8EEC01AD0ED030A4C
:103EB00090ED010AC4EBC40000EB80010BEB810024
:103EC00002F04EFABDEEC00A641CE4B210EE100A15
:103ED000042C3880C2D3B5F93C000090B5F92830E5
:103EE000B5F91420B5F90010114802F062FEB6F9D8
:103EF000C0000090B6F98030B6F94020B6F9001045
:103F00000B4802F07CFE01B0BDEC028BBDE8F08FE7
:103F1000087000209C000020D86A0020B66F0020A6
:103F20003863002048700020706B00204864002037
:103F30000404002010B51C489FED1D1A2DED048BC4
:103F4000F0EE408AB0EE608A90ED020A1748D0ED9C
:103F5000090A70EE600A80EE810ADFED160A20EE93
:103F6000209AB0EE490AFCF711FA60EE289AB0EEFA
:103F7000490AFCF747FA48EE409A0C4CB0EE490A61
:103F80002834C4ED009AFCF701FA20EE088AB0EE5E
:103F9000490AFCF737FA08EE808A204684ED018A48
:103FA000BDEC048B10BD0000087000209C000020B8
:103FB0008805B64135FA8E3C014880ED020A70470B
:103FC00028010020024BD87419735A7370470000FF
:103FD0002801002001494873704700002801002093
:103FE0002DE9F04155482DED028B418954482D298A
:103FF00002D29FED540A08E0782902D99FED520AB7
:1040000003E000EE101AB8EE400A4D4C4F4B14344A
:1040100080ED020A2246677B9279012F01D1282A7E
:104020000CD800EE101A5968F8EE400A00EE101A8B
:1040300030EEC00AD0ED020A30EEC00AB1EE041A2A
:1040400080ED010A90ED020AD4ED020A70EE011A29
:104050009FED3F8AF4EEE10AF1EE10FA02DD80ED09
:10406000010A06E0F5EEC00AF1EE10FA01D280ED89
:10407000018A1989A1F13803042B04D290ED010AB9
:1040800030EE410A06E0372902D990ED010A03E03B
:104090009FED300A80ED010A294B2F49002684ED5F
:1040A000020A1433B1F920109B6A81B10B290ED09A
:1040B000A17C01290BD00125E5742573DFB1012F07
:1040C00009D0012101700022114610461AE0002299
:1040D0001146104626E0192A01D3012202E00121EF
:1040E00001700022012108469847E6616576BDEC23
:1040F000028BBDE8F08101210170607E012806D0AD
:1041000000220846BDEC028BBDE8F0411847E0698B
:1041100041F28831401CE06188424FF0000204DD2A
:104120000121084698476676E1E70021012098477B
:1041300084ED058A84ED028AD9E70000466F0020ED
:1041400014010020000034420000F042546F0020AF
:1041500000000000CDCCCC3DEC00002010B5094C97
:1041600000221146A36A104698479FED070A0020D7
:1041700084ED050A84ED020A6076A4F114010120A1
:10418000087010BD280100200000000010B550206C
:1041900080F31188BFF34F8FBFF36F8F03F090FA56
:1041A00018B104494FF080500860002080F3118856
:1041B00010BD000004ED00E030B593B0302168463A
:1041C000FCF77AFA14210CA8FCF776FA1D480025B2
:1041D000016841F080510160006800F0805011904A
:1041E0001948016841F4404101600068022400F46C
:1041F0004040119001200090000401908001CDE921
:10420000064006200890A820CDE9090404200B9060
:104210006846FDF785FE08B172B6FEE70CA90F20CF
:1042200081E831004FF4A0500F904FF4805010906F
:1042300005210CA8FDF768FD002801D072B6FEE745
:1042400013B030BD403802400070004002480168A1
:1042500041F470010160704788ED00E00148FEF70D
:1042600086B8000018060020F0B50268254C264DDF
:10427000264E274F274B4FF0804CA04209D0604577
:1042800007D0A84205D0B04203D0B84201D098422E
:1042900004D122F0700E4A6842EA0E02A0421BD0FE
:1042A000604519D0A84217D0B04215D0B84213D0FB
:1042B000984211D0184DA8420ED0184DA8420BD0EC
:1042C000174DA84208D0174DA84205D0164DA84258
:1042D00002D0164DA84203D122F44075CA682A4381
:1042E0004D6922F080022A4302608A68C2620A682D
:1042F0008262A04201D0984201D109690163012183
:104300004161F0BD00000140000400400008004091
:10431000000C004000040140004001400044014006
:104320000048014000180040001C004000200040F0
:1043300070EE600A08499FED091A10EE900A884253
:1043400002DD30EE410A704710EE900A04498842BF
:10435000F9D930EE010A7047000034430000B4433D
:10436000000034C310B5806B0021C185C184FEF705
:10437000BFF810BD01680C3151E8002F22F4907293
:1043800041E80023002BF5D10168143151E8002FDA
:1043900022F0010241E80023002BF5D1016B012935
:1043A00009D101680C3151E8002F22F0100241E8D8
:1043B0000023002BF5D1202180F83E10002101635D
:1043C000704708B590F83E10222901D0022008BDA0
:1043D00082684FF480539A4201D1016921B1816A08
:1043E0009A421BD04AB10AE00268816A5268C2F35D
:1043F00008020A80816A891C08E0026972B10268B9
:10440000526802F07F020A70816A491C8162C18D84
:10441000491E0904090CC18503D019E002685268DD
:10442000F1E70168CA6822F02002CA600168CA6820
:1044300022F48072CA6001684A6922F001024A616E
:10444000202180F83E10016B012903D0FEF79AFA73
:10445000002008BD0021016301680C3151E8002FE4
:1044600022F0100241E80023002BF5D101680A6810
:10447000D20602D50A6849680091818DFEF737F8A7
:10448000E6E7000070B5044600680169E26821F4BF
:104490004051114301612169A068E26908436169E3
:1044A000114308432168CA6849F20C639A430243E6
:1044B000CA6020684169A26921F4407111434161D9
:1044C00031492068884202D03049884202D1FDF744
:1044D000E5FC01E0FDF7D2FCE26900231921642527
:1044E0003226B2F5004F626828D0A0FB0101930F7D
:1044F0009200FBF7D1FF0146B0FBF5F06FF0180218
:10450000504301EB800006EB0010B0FBF5F000F02B
:10451000F002B1FBF5F002EB0012B1FBF5F06FF029
:104520001803584301EB800006EB0010B0FBF5F0D8
:1045300000F00F0021681044886070BDA0FB0101ED
:1045400092185B41FBF7A8FF0146B0FBF5F00201B2
:10455000B1FBF5F06FF01803584301EB800006EB58
:10456000C000B0FBF5F000F0F80002EB4002B1FB38
:10457000F5F0584301EB800006EBC000B0FBF5F00E
:1045800000F00700D6E700000010014000140140D1
:1045900038B50A4C20680168C90609D5C068C0064C
:1045A00006D5204602F088FB20680168406800902C
:1045B000BDE838400148FDF79DBF000070040020B1
:1045C00038B5154C20680168C9061FD5C168C906F1
:1045D0001CD5016840680090A06B0068016821F05C
:1045E00001010160A06B0068406880B2A0F28710F2
:1045F0004042FEF7E5F9A16B40F28510096848607A
:10460000A06B0068016841F001010160BDE838401D
:104610000148FDF76FBF0000B404002070B50446E8
:1046200090F83E00202801D0022070BD91B18AB1DF
:10463000A162A28500202064134625680A46291D30
:10464000A06BFDF753F92068416941F040014161D9
:10465000002070BD012070BDFEE7000030B50C46A3
:10466000050014D0022C12D90A48A11E028828463F
:10467000FCF7A4FB2919C2B211F8023C9A4206D1F8
:1046800011F8011CB1EB102F01D1012030BD002029
:1046900030BD0000640100202DE9F0411D462DEDE4
:1046A000068B14460F460646B7EE008A9FEDEA0BCE
:1046B00000F00AFA51EC100B03F05CF908EE900AD6
:1046C000224639463046FEF753FFDFF8948356EA18
:1046D00007007DD00021A8F8081000BFB0EE680ADE
:1046E000FBF754FEB0EE401A00EE107A00EE904A4E
:1046F000B8EEC00AF8EEE00A00EE810A10EE100AE9
:1047000004F094FC41EC100B9FEDD69BB0EE491ADF
:10471000F0EE691A00F044FCB0EE40AAF0EE60AA98
:10472000B0EE680AFBF76EFEB0EE401A00EE106ABB
:10473000F8EEC00A00EE104AB8EEC00A40EE410A98
:1047400010EE900A04F072FC41EC100BB0EE491A26
:10475000F0EE691A00F024FC53EC1A2B51EC100B0C
:1047600003F06AFA41EC100B01F042FA51EC100B25
:1047700003F0F4F803F098FD6880B0EE680AFBF7E8
:1047800005FEB0EE401A00EE107A00EE904AB8EE48
:10479000C00AF8EEE00A00EEC10A10EE100A04F0BA
:1047A00045FC41EC100BB0EE491AF0EE691A00F02E
:1047B000F7FBB0EE40AAF0EE60AAB0EE680AFBF795
:1047C00021FEB0EE401A00EE106AB8EEC00A00E01A
:1047D0002AE100EE904AF8EEE00A00EEC10A10EE7F
:1047E000100A04F023FC41EC100BB0EE491AF0EE75
:1047F000691A00F0D5FB53EC1A2B51EC100B03F0A7
:104800001BFA41EC100B01F0F3F951EC100B03F023
:104810004BFDA880B0EE680AFBF7B8FDB0EE401A79
:1048200000EE107A00EE904AB8EEC00AF8EEE00A08
:1048300000EEC10A10EE100A04F0F8FB41EC100B78
:10484000B0EE491AF0EE691A00F0AAFBB0EE40AAE9
:10485000F0EE60AAB0EE680AFBF7D4FDB0EE401AA5
:1048600000EE106A00EE904AB8EEC00AF8EEE00AD8
:1048700000EE810A10EE100A04F0D8FB41EC100B98
:10488000B0EE491AF0EE691A00F08AFB53EC1A2BCD
:1048900051EC100B03F0D0F941EC100B01F0A8F92A
:1048A00051EC100B03F05AF803F0FEFC2880B0EE38
:1048B000680AFBF76BFDB0EE401A00EE107A00EECE
:1048C000904AB8EEC00AF8EEE00A00EE810A10EE57
:1048D000100A04F0ABFB41EC100BB0EE491AF0EEFD
:1048E000691A00F05DFBB0EE40AAF0EE60AAB0EEEF
:1048F000680AFBF787FD00EE906A01EE104AF8EEB9
:10490000E00AB8EEC11A41EE000A10EE900A04F077
:104910008DFB41EC100BB0EE491AF0EE691A00F075
:104920003FFBB0EE401AF0EE601A53EC1A2B51EC3C
:10493000110B03F081F941EC100B01F059F951EC26
:10494000100B03F0B1FCB5F9001000B200EE101A24
:104950000022B8EEC00A20EE080ABDEEC00A10EE32
:10496000101A2980B5F9021000EE101AB8EEC00A2C
:1049700020EE080ABDEEC00A10EE101A6980B5F9E3
:10498000041000EE101AB8EEC00A20EE080ABDEEC0
:10499000C00A10EE101A00EE100AA9801146B8EEF7
:1049A000C00A20EE080ABDEEC00A10EE100AE88028
:1049B0001046FEF73DFC002211460120FEF738FCB0
:1049C000002211460220FEF733FC0022114603208C
:1049D000FEF72EFC002211461046FEF7A1FB002236
:1049E00011460120FEF79CFB002211460220FEF733
:1049F00097FB002211460320FEF792FB1B4E00247A
:104A0000C4EBC40006EB8005D5ED030A95ED010A61
:104A1000FFF78EFC641CE4B285ED010A042CEFD391
:104A2000BDEC068BBDE8F08100EE104AB8EEC00A7E
:104A300001F0F6F910EE100A0D498842BFF64EAEAD
:104A4000B8F80800B0F5FA7FBFF448AE401CA8F8EB
:104A50000800002442E60000000000000000F03FD3
:104A60009C0000200000000000000040706B00204F
:104A700000008C4203B401984100009850EAC12024
:104A800018BF04204A0D18BF40F0010040F2FF7229
:104A9000B2EB515F08BF40F00200012808BF0520BB
:104AA00002B070470907090E002804DB00F1E0207E
:104AB00080F80014704700F00F0000F1E02080F84B
:104AC000141D70470000000070B59B482DED020BCF
:104AD0002DED068B079D25F00044A04218DC974879
:104AE000844202DC0AD1069840B19DED060BBDEC74
:104AF000068B02B0BDE8704001F04EB9002DCCBF6E
:104B00009FED8F0B9FED900BBDEC068B02B070BD3F
:104B10008F48A04215DD8F48A042D8BF4FF0FF3428
:104B200058DD9DED060B51EC100BFFF7A3FF042899
:104B300008BF01F065F99DED060BBDEC068B02B0D8
:104B400070BD9DED060B51EC100B01F015FACDE98F
:104B5000060181489FED828BA0423CDD8248A04245
:104B60001FDD00249FED82AB9DED060B53EC1A2B4D
:104B700051EC100B03F060F89DED060B41EC190BA6
:104B800053EC1A2B51EC100B03F052FC53EC182B86
:104B900003F04AFF53EC192B03F08EF9CDE906011F
:104BA00049E09DED060B012453EC182B51EC100B42
:104BB00003F042F89DED060B41EC190B53EC182B5A
:104BC00051EC100B03F030FF53EC192B03F074F988
:104BD000CDE906012FE06848A0421FDD02249FEDC9
:104BE000689B9DED060B53EC192B51EC100B03F059
:104BF0001FFC53EC182B03F01FF89DED060B41EC46
:104C0000180B53EC192B51EC100B03F00DFF53EC68
:104C1000182B03F051F9CDE906010CE09DED060BD0
:104C2000032453EC102B9FED580B51EC100B03F0A9
:104C300043F9CDE906019DED060B53EC102B51EC29
:104C4000100B03F0F5FB41EC180B53EC182B03F0A1
:104C5000EFFB41EC190B4E480621B0EE490AF0EE8D
:104C6000690A784401F001F853EC182B51EC100B51
:104C700003F0DEFB41EC180B4648B0EE490AF0EEBB
:104C8000690A0521784400F0F0FF53EC192B51EC30
:104C9000100B03F0CDFB41EC100B51EC180B53EC57
:104CA000102B002C0EDA02F0C7FF9DED061B53EC13
:104CB000112B03F0BDFB9DED061B53EC112B03F0F4
:104CC00087FD35E002F0B8FF9DED061B53EC112B7C
:104CD00003F0AEFB41EC100B2F48784400EBC4000E
:104CE00090ED001B51EC100B53EC112B03F09CFECC
:104CF0009DED061B53EC112B03F096FE41EC100BBF
:104D00002648784400EBC40090ED001B51EC100BDA
:104D100053EC112B03F05CFD41EC100B002DA2BFF6
:104D2000BDEC068B02B070BD51EC100B02F016FE0C
:104D300041EC100B01E70000000010440000F07F80
:104D4000182D4454FB21F93F182D4454FB21F9BF81
:104D50000000DC3F0000203E0000F33F00000000A8
:104D6000000000000000F03F0000E63F00000000EF
:104D70000000000000000040008003400000000030
:104D8000000000000000F83F000000000000F0BF3D
:104D9000D25500008855000012550000CA5400008A
:104DA00070B56F4E2DED040B2DED048B82B0DDF848
:104DB00024C0DDE907235C422CF000411C4341EA9A
:104DC000D474069D22F00040B44205D86C422C43B6
:104DD00040EAD474B4420BD99DED081B9DED060B3F
:104DE00002B0BDEC048B04B0BDE8704000F0DEBF43
:104DF000ACF14054A4F17F641C430BD0022404EABC
:104E0000AC7444EAD27405439FED578B9FED582B49
:104E100007D015E09DED060B51EC100B01F00CF8DE
:104E200042E0002C11BF012C9DED060B02B0BDEC41
:104E3000048B04BF04B070BD022C38D0032C3BD0CF
:104E40000B439FED4D1B9FED4E0B0AD0B14218D185
:104E5000B04209D121F0804120F0804009910790B3
:104E60000FE0002A15DA10E0474B7B44002C08BF06
:104E700093ED000B0DD0012C10D0022C17D0032C79
:104E80001AD0B0421DD1002A03DAB0EE410AF0EE8A
:104E9000610A02B0BDEC048B04B070BD93ED000B51
:104EA00051EC100B02F05AFD41EC100BF1E7B0EEA3
:104EB000480AF0EE680AECE7B0EE420AF0EE620A49
:104EC000E7E7401A00159FED329B3C28C8BF8DEDE7
:104ED000000B17DCBCF1000FBCBF10F13C0F8DEDD7
:104EE000009B0FDB9DED080B53EC102B9DED060B8B
:104EF00051EC100B02F0E0FF01F03EF800F09CFFD7
:104F0000CDE90001B4B1012C10D0022C9FED220B91
:104F100053EC102B9DED000B51EC100B19D003F04E
:104F200083FD53EC182B03F07FFDBDE7019880F063
:104F3000004001909DED000B53EC192B51EC100B30
:104F400003F078F904BF0220FBF7E5FB9DED000BB1
:104F50009FE703F069FD53EC182B03F039FCA3E73E
:104F60000000F07F00000000182D4454FB21094090
:104F7000182D4454FB2109C0182D4454FB21F9BFBE
:104F8000182D4454FB21F93F82540000000000001A
:104F90000000000000000000075C143326A6A13CBE
:104FA0002DE9F04D2DED040B2DED0E8B96B0DDE9C6
:104FB0002550279CDDF890A025F0004624F00048FD
:104FC000BAF1000F14BF0121002101EB4502FC4999
:104FD00053184A1093422AD3002814BF01230023F8
:104FE00003EB44030B44F7498B4220D358EA0001FA
:104FF0009FEDF59B76D0DFF8D8B35D4503D1BAF1CC
:10500000000F05D188E0BAF1000F08BF002100D0E1
:10501000012101EB450111F5001F08D8002814BF3C
:105020000121002101EB440111F5001F0BD99DED79
:10503000261B9DED240B16B0BDEC0E8B04B0BDE815
:10504000F04D00F0B3BE0027002DBCBFE1498845FC
:1050500021DAE1498845A8BF02271CDAC3451ADCDA
:10506000DE4901EB2851142908DDC1F1340220FA90
:1050700002F101FA02F282420DD108E058B9C1F101
:10508000140228FA02F101FA02F2424503D101F0BA
:105090000101C1F1020756EA0A0124D1002C22DAEB
:1050A000002D18BF022F01D0012F0AD00220FBF7DC
:1050B00032FB16B0BDEC0E8B04B0BDE8F04D00F035
:1050C00053BE0220FBF727FB00F04EFE51EC100B05
:1050D00002F044FC41EC100B16B0BDEC0E8B04B09A
:1050E000BDE8F08D18E09FEDBEAB9FEDBF8B0028B3
:1050F00071D1B848804522D105F1804010F580106B
:1051000008BFBAF1000F07D0B3450ADC002CA8BFD6
:105110009DED260BE0DA0DE0B0EE490AF0EE690AEB
:10512000DAE7002C06DA9DED260B51EC100B02F0AD
:1051300015FC6FE0AE48784490ED000BCCE7D84505
:105140004DD1002C48DA2EB186423AD1BAF1000F87
:1051500042D126E0BAF1000F13D00220FBF7DBFAB0
:1051600000F03EFE8DED020B9DED240B8DED000B4E
:1051700010EE900A039961F31E0003909DED020B5F
:10518000AAE78DED02AB9DED240B1AEE901A10EEFE
:10519000900A8DED000B61F31E0003909DED020B54
:1051A0009AE78DED028B9DED240B18EE901A10EE10
:1051B000900A8DED000B61F31E0003909DED020B34
:1051C0008AE709DA9DED240B51EC190B53EC102BF7
:1051D00002F072FE1EE020E09DED240B7CE786428B
:1051E0001BDAB4F1804F0DD0A4F10050B0F1FF50A4
:1051F00013D1002D11DB9DED240B51EC100B01F0B0
:1052000024FD07E09DED240B53EC102B51EC100B0B
:1052100000F0C2BC41EC100B5EE79DED240B51EC9D
:10522000100B00F0A9FEBAF1000FCDE90E0142D13A
:105230009FED710B46B3A6F1E040B0F17F600CD05A
:105240005E4538D1002D00DAA7B3022F0CBF012034
:105250004FF0FF3003F08CF8DCE7002D01DD002C6F
:105260000DDA002D01DD002C1FDB002D16DA002CDD
:1052700014DB012F08BF9FED620B3FF42DAFB0EEA2
:105280004A0AF0EE6A0A27E7022F18BF002D0CD059
:10529000012F0AD1002DFFF61FAF06E0002DB8BF89
:1052A000002C08DA012F3FF417AFB0EE480AF0EEF9
:1052B000680A11E71BE0012000EBE57050EA0701E6
:1052C00015D0791EB0EE498AF0EE698A084308BF0E
:1052D0009FED4D8B4E480025804570DD4D494E4871
:1052E000884514DDB0420DDB002C19DB2FE00120D6
:1052F000FBF711FA16B0BDEC0E8B04B0BDE8F04D13
:1053000000F05EBDB34502DC002C09DC1FE08642E4
:1053100002DA002C1BDA03E05E452BDD002C16DDE3
:105320000220FBF7F8F900F05BFD8DED020B53EC6A
:105330001A2B51EC180B03F07BF8CDE9000103990F
:10534000019861F31E0003909DED020BC4E602205C
:10535000FBF7E1F900F054FD10EE901A18EE900AF8
:105360008DED020B8DED008B61F31E0003909DED22
:10537000020BB1E69DED0E0B53EC192B51EC100B0B
:1053800003F052FB9FED260BCDE9080153EC102BE7
:105390009DED080B51EC100B03F04AF89FED221B1A
:1053A00053EC112B03F014FA9DED081B53EC112B59
:1053B00003F03EF89FED1E1B53EC112B3CE08CE0FC
:1053C000FFFF1F00FFFF0F00000000000000F03F84
:1053D0000000F03F0000F07F0000404301FCFFFFB1
:1053E000000000000000F07F00000000000000004E
:1053F000B651000000000000000000000000008026
:10540000000000000000F0FF000000000000F0BFFE
:105410000000E0410000F043FFFFEF3F000000000C
:10542000000000000000D03F555555555555D53F5B
:10543000000000000000E03F03F0CAF99DED080BFA
:1054400041EC1A0B53EC102B51EC100B02F0F0FF57
:1054500053EC1A2B02F0ECFF41EC1A0B9FEDFE0B04
:1054600053EC102B9DED080B51EC100B02F0E0FFFC
:1054700041EC1B0B9FEDFA0B51EC1A0B53EC102B6C
:1054800002F0D6FF41EC1A0B9FEDF70B53EC102BFB
:105490009DED080B51EC100B02F0CAFF53EC1A2BD8
:1054A00003F0C2FA41EC1A0B51EC1B0B53EC1A2B14
:1054B00002F0C2FB0690CDE906519DED060B53ECC0
:1054C0001B2B51EC100B03F0AFFA53EC1A2B03F02B
:1054D0007FF941EC100B00F0A1B90020B6F5801F58
:1054E0000EDA9FEDE30B53EC102B9DED0E0B51EC00
:1054F000100B02F09DFFCDE90E016FF034000E4657
:1055000000EB2650A0F2FF37C6F31300DA4940F053
:105510007F6646F040568842D8BF002408DDD74950
:105520008142C8BF012403DC0024A6F580167F1C3D
:10553000D348784400EBC4000F9690ED00CB9DED6E
:105540000E0B53EC1C2B51EC100B03F06DFA9DED80
:105550000E0B41EC1B0B53EC1C2B51EC100B02F00F
:105560006BFB41EC100B51EC190B53EC102B02F0C0
:10557000A3FC41EC1D0B51EC1B0B53EC1D2B02F05B
:1055800057FF41EC1A0BBF488DED10AB78441095D6
:1055900090ED000B4FF0005040EA660000EB8440B5
:1055A0008DED080B00F5002009909DED080B53ECE4
:1055B0001C2B51EC100B03F037FA9DED0E1B53EC36
:1055C000112B03F005F941EC100B53EC102B9DED62
:1055D000100B51EC100B02F02BFF9DED080B41EC72
:1055E0001C0B53EC102B9DED100B51EC100B02F02B
:1055F0001FFF53EC1B2B03F0EBF853EC1C2B03F0B9
:1056000013FA53EC1D2B02F013FF41EC1C0B53EC6F
:105610001A2B51EC1A0B02F00BFF41EC1B0B9A48B2
:105620000621B0EE4B0AF0EE6B0A784400F01DFB49
:10563000B0EE401AF0EE601AB0EE41DAF0EE61DA48
:1056400053EC1B2B51EC1B0B02F0F2FE53EC1D2B09
:1056500002F0EEFE9DED100B41EC1B0B53EC1A2BF0
:1056600051EC100B02F0E8FA53EC1C2B02F0E0FEB8
:1056700053EC1B2B02F0E0FA9DED100B41EC1B0BE1
:1056800053EC102B51EC100B02F0D2FE41EC1D0B31
:105690009FED7FEB53EC1E2B02F0CEFA53EC1B2B4D
:1056A00002F0CAFA0890CDE908519DED080B53ECC1
:1056B0001E2B51EC100B03F0B7F953EC1D2B03F02C
:1056C000B3F953EC1B2B03F083F89DED080B41EC71
:1056D0001D0B53EC102B9DED100B51EC100B02F039
:1056E000A7FE41EC1B0B53EC1A2B51EC1D0B02F0E7
:1056F0009FFE9DED080B41EC1A0B53EC102B51EC67
:105700001C0B02F095FE53EC1A2B02F095FA41ECBB
:105710001A0B51EC1B0B53EC1A2B02F08DFA0C9068
:10572000CDE90C519DED0C0B53EC1B2B51EC100BE8
:1057300003F07AF953EC1A2B03F04AF841EC1B0BF7
:105740009FED550B53EC102B9DED0C0B51EC100BFA
:1057500002F06EFE41EC1A0B9FED510B51EC1B0B4E
:1057600053EC102B02F064FE41EC1B0B9FED4E0B33
:1057700053EC102B9DED0C0B51EC100B02F058FE6E
:1057800053EC1B2B02F058FA41EC100B48487844BC
:1057900000EBC40090ED001B51EC100B53EC112BEF
:1057A00002F04AFA41EC1B0B384602F0E1FDCDE96C
:1057B000080153EC1B2B51EC1A0B02F03DFA41ECA3
:1057C000100B3C48784400EBC40090ED00CB51EC4A
:1057D000100B53EC1C2B02F02FFA9DED081B53EC21
:1057E000112B02F029FA0690CDE906519DED080B28
:1057F00053EC102B9DED060B51EC100B03F014F93C
:1058000053EC1C2B03F010F953EC1A2B03F00CF99A
:1058100053EC1B2B02F0DCFF41EC100B9DED261B23
:1058200053EC102B8DED001B00959DED260B51ECDC
:10583000100B02F0FDFD9DED000B41EC1A0B53EC3B
:10584000102B9DED260B51EC100B03F0EDF89DEDA8
:10585000061B53EC112B2FE0000000604715F73FAB
:10586000FE822B654715F73F44DF5DF80BAE543ED3
:1058700000000000000040438E9803007AB60B0041
:10588000324D0000604D00006A4C00000000000036
:105890000000000000000840000000E009C7EE3FE3
:1058A000FD033ADC09C7EE3FF5015B14E02F3EBE75
:1058B000F64A0000B04A000002F0BAFD53EC1A2B81
:1058C00002F0BAF99DED060B41EC1A0B53EC102BCC
:1058D0009DED000B51EC100B02F0AAFDCDE90C017F
:1058E0009DED0C0B51EC1A0B53EC102B02F0A4F9AC
:1058F000CDE902010C46AA498C422FDB611A08430C
:1059000018D19DED0C0B53EC102B9DED020B51ECBF
:10591000100B03F089F841EC1B0B9FEDA30B51EC2E
:105920001A0B53EC102B02F087F953EC1B2B02F0EF
:105930001EFF2DD20220FAF7EEFE00F051FA10EE13
:10594000901A18EE900A8DED020B8DED008B61F32D
:105950001E0003909DED020BFFF7BEBB944A24F09E
:105960000041914214D39349214408437FF4EFACA2
:105970009DED0C0B53EC102B9DED020B51EC100B1D
:1059800003F052F853EC1A2B02F0F1FE7FF6DFAC75
:1059900024F000408849894A002601EB20518242C8
:1059A0002BDA481C4FF4801121FA00F02044844A7D
:1059B000C0F30A517A44A1F2FF3192ED000B814A03
:1059C0008DED080BCA4020EA0202C0F3130040F438
:1059D0008010C1F1140120FA01F60992002CB8BF21
:1059E00076429DED080B53EC102B9DED0C0B51EC0A
:1059F000100B03F019F8CDE90C019DED0C0B51ECE7
:105A00001A0B53EC102B02F017F99FED6F0B089057
:105A1000CDE9085153EC102B9DED080B51EC100B08
:105A200002F006FD41EC1B0B9FED690B53EC102BB4
:105A30009DED080B51EC100B02F0FAFC9DED0C0BE8
:105A400041EC1C0B53EC102B9DED080B51EC100B93
:105A500002F0EAFF53EC1A2B02F0BAFE9FED5E1B38
:105A600053EC112B02F0E4FC53EC1C2B02F0E4F895
:105A700041EC1A0B51EC1B0B53EC1A2B02F0DCF827
:105A8000CDE902019DED020B53EC1B2B51EC100BE9
:105A900002F0CAFF53EC1A2B02F09AFE9DED020BA6
:105AA00041EC1A0B53EC102B51EC100B02F0C0FC24
:105AB000CDE908014A489DED080B0521784400F026
:105AC000D4F89DED081B51EC100B53EC112B02F098
:105AD000AFFC9DED021B53EC112B02F079FECDE9DA
